:020000040800F2
:1000000000040020C1010008017500080175000806
:10001000E12D000801750008017500080175000850
:1000200001750008017500080175000811960008A7
:1000300001750008017500080175000811F4000839
:100040000175000801C9000891CA0008E1CA00084A
:10005000017500080175000841C6000891C6000836
:10006000E1C6000831C7000881C7000891B8000840
:10007000E1B8000831B9000881B90008D1B9000819
:1000800021BA000871BA000881C3000881CC0008B9
:10009000F1CC0008A1CD000851CE0008D1C700085E
:1000A0000175000801750008C1EE0008017500081F
:1000B000D1EF000811F0000851F0000811DC000831
:1000C00051DD000801750008017500080175000880
:1000D000017500080175000801750008D1F40008D9
:1000E00061C8000851C90008A1C9000801750008CD
:1000F000017500080175000801750008C1BA000803
:1001000001750008E1CF000891F0000801750008B2
:10011000017500080175000881EE000801750008EE
:1001200011BB000861BB0008B1BB000801BC00089E
:1001300051BC000801750008F1C9000801750008EC
:1001400001750008017500080175000821E8000824
:10015000A1BC0008F1BC000841BD00080175000801
:100160000175000801750008017500080175000897
:1001700041CA000801750008411C0008017500080B
:100180000175000801750008017500080175000877
:100190000175000801750008017500080175000867
:1001A0000175000801750008017500080175000857
:1001B0000175000801750008017500080175000847
:1001C00072B62E4880F3098840F20000CCF200009D
:1001D0004EF63471CEF20001086040F20000C0F229
:1001E000F0004EF68851CEF2000108604FF000009A
:1001F000E1EE100A4EF63C71CEF2000108600620D6
:1002000080F31488BFF36F8F0FF0AAFA4FF05530C8
:100210001B491C4A91423CBF41F8040BFAE71A49BA
:10022000164A91423CBF41F8040BFAE71749184AB5
:10023000184B9A423EBF51F8040B42F8040BF8E702
:1002400000201549154A91423CBF41F8040BFAE7DA
:1002500007F03EF9124C134DAC4203DA54F8041B7C
:100260008847F9E701F064F80F4C104DAC4203DA0F
:1002700054F8041B8847F9E707F03AB90008002052
:10028000000000200004002000040020784901083C
:1002900000080020DC140020E0140020586E00202C
:1002A000C0010008C0010008C0010008C00100082A
:1002B0002DE9F04F2DED108AC1F80CD0D0F80CD0FC
:1002C000BDEC108ABDE8F08F07F05AFA08F048FA42
:1002D000002383F311882846A047002007F0E0FFA1
:1002E00008F026FA07F02CFA07F04AFE07F048FA61
:1002F00008F036FA00DFFEE7000000000000000012
:1003000081F0004102E000BF83F0004330B54FEAC6
:1003100041044FEA430594EA050F08BF90EA020F33
:100320001FBF54EA000C55EA020C7FEA645C7FEAC6
:10033000655C00F0E2804FEA5454D4EB5555B8BFE9
:100340006D420CDD2C4480EA020281EA030382EA5A
:10035000000083EA010180EA020281EA0303362DEC
:1003600088BF30BD11F0004F4FEA01314FF4801CBF
:100370004CEA113102D0404261EB410113F0004FD1
:100380004FEA03334CEA133302D0524263EB430388
:1003900094EA050F00F0A780A4F10104D5F1200E26
:1003A0000DDB02FA0EFC22FA05F2801841F1000181
:1003B00003FA0EF2801843FA05F359410EE0A5F155
:1003C00020050EF1200E012A03FA0EFC28BF4CF086
:1003D000020C43FA05F3C01851EBE37101F000453C
:1003E00007D54FF0000EDCF1000C7EEB00006EEB49
:1003F0000101B1F5801F1BD3B1F5001F0CD34908D3
:100400005FEA30004FEA3C0C04F101044FEA445229
:1004100012F5800F80F09A80BCF1004F08BF5FEAB0
:10042000500C50F1000041EB045141EA050130BD90
:100430005FEA4C0C404141EB010111F4801FA4F133
:100440000104E9D191F0000F04BF01460020B1FA88
:1004500081F308BF2033A3F10B03B3F120020CDAC0
:100460000C3208DD02F1140CC2F10C0201FA0CF09E
:1004700021FA02F10CE002F11402D8BFC2F1200C03
:1004800001FA02F120FA0CFCDCBF41EA0C019040B9
:10049000E41AA2BF01EB0451294330BD6FEA040402
:1004A0001F3C1CDA0C340EDC04F11404C4F12002ED
:1004B00020FA04F001FA02F340EA030021FA04F3FF
:1004C00045EA030130BDC4F10C04C4F1200220FA56
:1004D00002F001FA04F340EA0300294630BD21FA94
:1004E00004F0294630BD94F0000F83F4801306BF5A
:1004F00081F480110134013D4EE77FEA645C18BF4E
:100500007FEA655C29D094EA050F08BF90EA020FE4
:1005100005D054EA000C04BF1946104630BD91EADC
:10052000030F1EBF0021002030BD5FEA545C05D1DF
:100530004000494128BF41F0004130BD14F580041E
:100540003CBF01F5801130BD01F0004545F0FE4192
:1005500041F470014FF0000030BD7FEA645C1ABFC7
:10056000194610467FEA655C1CBF0B46024650EAFE
:10057000013406BF52EA033591EA030F41F400212A
:1005800030BD00BF90F0000F04BF0021704730B5B0
:100590004FF4806404F132044FF000054FF0000185
:1005A00050E700BF90F0000F04BF0021704730B546
:1005B0004FF4806404F1320410F0004548BF40421B
:1005C0004FF000013EE700BF42004FEAE2014FEA70
:1005D00031014FEA02701FBF12F07F4393F07F4F4B
:1005E00081F06051704732F07F4208BF704793F04E
:1005F0007F4F04BF41F40021704730B54FF4607461
:1006000001F0004521F000411CE700BF50EA010263
:1006100008BF704730B54FF000050AE050EA01020C
:1006200008BF704730B511F0004502D5404261EB7C
:1006300041014FF4806404F132045FEA915C3FF4BD
:10064000D8AE4FF003025FEADC0C18BF03325FEA5A
:10065000DC0C18BF033202EBDC02C2F1200300FA0B
:1006600003FC20FA02F001FA03FE40EA0E0021FA30
:1006700002F11444BDE600BF0000000000000000CD
:1006800070B54FF0FF0C4CF4E06C1CEA11541DBF28
:100690001CEA135594EA0C0F95EA0C0F00F0DEF8F3
:1006A0002C4481EA030621EA4C5123EA4C5350EAD8
:1006B000013518BF52EA033541F4801143F4801329
:1006C00038D0A0FB02CE4FF00005E1FB02E506F0BA
:1006D0000042E0FB03E54FF00006E1FB03569CF00F
:1006E000000F18BF4EF0010EA4F1FF04B6F5007F15
:1006F00064F5407404D25FEA4E0E6D4146EB060687
:1007000042EAC62141EA55514FEAC52040EA5E500F
:100710004FEACE2EB4F1FD0C88BFBCF5E06F1ED8B9
:10072000BEF1004F08BF5FEA500E50F1000041EBF0
:10073000045170BD06F0004646EA010140EA02009D
:1007400081EA0301B4EB5C04C2BFD4EB0C0541EABF
:10075000045170BD41F480114FF0000E013C00F3D4
:10076000AB8014F1360FDEBF002001F0004170BDF8
:10077000C4F10004203C35DA0C341BDC04F1140411
:10078000C4F1200500FA05F320FA04F001FA05F29D
:1007900040EA020001F0004221F0004110EBD3706A
:1007A00021FA04F642EB06015EEA430E08BF20EA96
:1007B000D37070BDC4F10C04C4F1200500FA04F339
:1007C00020FA05F001FA04F240EA020001F00041CB
:1007D00010EBD37041F100015EEA430E08BF20EA3E
:1007E000D37070BDC4F1200500FA05F24EEA020E86
:1007F00020FA04F301FA05F243EA020321FA04F0B5
:1008000001F0004121FA04F220EA020000EBD3706B
:100810005EEA430E08BF20EAD37070BD94F0000F6B
:100820000FD101F00046400041EB010111F4801F9F
:1008300008BF013CF7D041EA060195F0000F18BF50
:10084000704703F00046520043EB030313F4801F8C
:1008500008BF013DF7D043EA0603704794EA0C0F46
:100860000CEA135518BF95EA0C0F0CD050EA41065C
:1008700018BF52EA4306D1D181EA030101F00041D9
:100880004FF0000070BD50EA410606BF1046194601
:1008900052EA430619D094EA0C0F02D150EA01360D
:1008A00013D195EA0C0F05D152EA03361CBF10464E
:1008B00019460AD181EA030101F0004141F0FE41ED
:1008C00041F470014FF0000070BD41F0FE4141F471
:1008D000780170BD70B54FF0FF0C4CF4E06C1CEA71
:1008E00011541DBF1CEA135594EA0C0F95EA0C0F26
:1008F00000F0A7F8A4EB050481EA030E52EA0335E1
:100900004FEA013100F088804FEA03334FF0805501
:1009100045EA131343EA12634FEA022245EA11152E
:1009200045EA10654FEA00260EF000419D4208BFDF
:10093000964244F1FD0404F5407402D25B084FEA8C
:100940003202B61A65EB03055B084FEA32024FF438
:1009500080104FF4002CB6EB020E75EB030E22BF95
:10096000B61A754640EA0C005B084FEA3202B6EB55
:10097000020E75EB030E22BFB61A754640EA5C0004
:100980005B084FEA3202B6EB020E75EB030E22BF94
:10099000B61A754640EA9C005B084FEA3202B6EB95
:1009A000020E75EB030E22BFB61A754640EADC0054
:1009B00055EA060E18D04FEA051545EA16754FEAB6
:1009C00006164FEAC30343EA52734FEAC2025FEAD4
:1009D0001C1CC0D111F4801F0BD141EA00014FF063
:1009E00000004FF0004CB6E711F4801F04BF014334
:1009F0000020B4F1FD0C88BFBCF5E06F3FF6AFAE50
:100A0000B5EB030C04BFB6EB020C5FEA500C50F1DF
:100A1000000041EB045170BD0EF0004E4EEA113162
:100A200014EB5C04C2BFD4EB0C0541EA045170BD69
:100A300041F480114FF0000E013C90E645EA060EAD
:100A40008DE60CEA135594EA0C0F08BF95EA0C0FDB
:100A50003FF43BAF94EA0C0F0AD150EA01347FF423
:100A600034AF95EA0C0F7FF425AF104619462CE7FA
:100A700095EA0C0F06D152EA03353FF4FDAE10465D
:100A8000194622E750EA410618BF52EA43067FF4AE
:100A9000C5AE50EA41047FF40DAF52EA43057FF43E
:100AA000EBAE12E7000000000000000000000000B4
:100AB0004FEA410212F5001215D211D56FF4787386
:100AC000B3EB625212D94FEAC12343F0004343EA29
:100AD000505311F0004F23FA02F018BF4042704704
:100AE0004FF00000704750EA013005D111F000408E
:100AF00008BF6FF0004070474FF00000704700BF24
:100B00004FEA4102B2F1E04324BFB3F5001CDCF12F
:100B1000FE5C0DD901F0004C4FEAC0024CEA507067
:100B2000B2F1004F40EB830008BF20F00100704796
:100B300011F0804F21D113F13872BCBF01F0004099
:100B4000704741F480114FEA5252C2F11802C2F1CB
:100B5000200C10FA0CF320FA02F018BF40F001004C
:100B60004FEAC1234FEAD32303FA0CFC40EA0C00FE
:100B700023FA02F34FEA4303CCE77FEA625307D13B
:100B800050EA01331EBF4FF0FE4040F44000704772
:100B900001F0004040F0FE4040F40000704700BF0C
:100BA00053B94AB9002908BF00281CBF4FF0FF31D4
:100BB0004FF0FF3000F074B9ADF1080C6DE904CED0
:100BC00000F006F8DDF804E0DDE9022304B0704728
:100BD0002DE9F047089E04468846002B4BD18A42F7
:100BE000154667D9B2FA82F24AB1C2F1200701FA7A
:100BF00002F320FA07F7954047EA030894404FEACA
:100C0000154E230CB8FBFEF71FFA85FC0EFB178868
:100C100043EA084307FB0CF1994209D9EB1807F1A5
:100C2000FF3080F01B81994240F21881023F2B4433
:100C30005B1AA4B2B3FBFEF00EFB103344EA03448C
:100C400000FB0CFCA44509D92C1900F1FF3380F0FE
:100C50000781A44540F2048102382C4440EA074051
:100C6000A4EB0C0400271EB1D4400023C6E90043C6
:100C70003946BDE8F0878B4209D9002E00F0EB80A1
:100C80000027C6E9000138463946BDE8F087B3FAC7
:100C900083F7002F47D18B4202D3824200F2FA80C1
:100CA000841A61EB030301209846002EE0D0C6E9C8
:100CB0000048DDE702B9FFDEB2FA82F2002A40F016
:100CC0008F80491B4FEA154E1FFA85F80127B1FBAB
:100CD000FEFC230C0EFB1C1143EA014308FB0CF144
:100CE000994207D9EB180CF1FF3002D2994200F279
:100CF000CD808446591AA3B2B1FBFEF00EFB10144E
:100D000043EA044408FB00F8A04507D92C1900F178
:100D1000FF3302D2A04500F2B6801846A4EB0804C7
:100D200040EA0C409FE7C7F1200CBB4022FA0CFEC2
:100D30004EEA030E01FA07F420FA0CF521FA0CF33F
:100D40004FEA1E482543B3FBF8F92C0C08FB193376
:100D50001FFA8EFA44EA034309FB0AF49C4202FAA2
:100D600007F200FA07F10BD91EEB030309F1FF307C
:100D700080F087809C4240F28480A9F1020973448C
:100D80001B1BADB2B3FBF8F008FB103345EA03447C
:100D900000FB0AFAA24508D91EEB040400F1FF3358
:100DA0006BD2A24569D90238744440EA0940A0FBDD
:100DB0000289A4EB0A044C45C2464B4654D351D099
:100DC000002E69D0B1EB0A0564EB030404FA0CFCB5
:100DD000FD40FC404CEA0505C6E90054002747E702
:100DE000C2F1200320FA03F7954001FA02F021FA3C
:100DF00003F34FEA154E3843010CB3FBFEF71FFA1D
:100E000085F80EFB173341EA034107FB08F38B42D9
:100E100004FA02F407D9691807F1FF3C2FD28B427C
:100E20002DD9023F2944CB1A81B2B3FBFEF00EFB51
:100E3000103341EA034100FB08F38B4207D96918DC
:100E400000F1FF3C17D28B4215D902382944C91A48
:100E500040EA07473BE73746304609E70746E7E6FB
:100E60001846FBE64145ABD2B8EB020A69EB0E022D
:100E700001381346A4E76046E9E7184695E7674658
:100E8000D1E781467CE702382C4447E7ACF1020CFD
:100E90002B442FE7384608E73746E9E60000000014
:100EA000704700BF000000000000000000000000CC
:100EB000844641EA000313F003036DD1403A41D365
:100EC00051F8043B40F8043B51F8043B40F8043B24
:100ED00051F8043B40F8043B51F8043B40F8043B14
:100EE00051F8043B40F8043B51F8043B40F8043B04
:100EF00051F8043B40F8043B51F8043B40F8043BF4
:100F000051F8043B40F8043B51F8043B40F8043BE3
:100F100051F8043B40F8043B51F8043B40F8043BD3
:100F200051F8043B40F8043B51F8043B40F8043BC3
:100F300051F8043B40F8043B51F8043B40F8043BB3
:100F4000403ABDD2303211D351F8043B40F8043B53
:100F500051F8043B40F8043B51F8043B40F8043B93
:100F600051F8043B40F8043B103AEDD20C3205D363
:100F700051F8043B40F8043B043AF9D2043208D05B
:100F8000D2071CBF11F8013B00F8013B01D30B88CD
:100F900003806046704700BF082A13D38B078DD0AB
:100FA00010F003038AD0C3F10403D21ADB071CBF7D
:100FB00011F8013B00F8013B80D331F8023B20F8E7
:100FC000023B7BE7043AD9D3013A11F8013B00F820
:100FD000013BF9D20B7803704B7843708B788370A8
:100FE00060467047000000000000000000000000A4
:100FF00090F800F06DE9024520F007016FF0000C59
:1010000010F0070491F820F040F049804FF0000400
:101010006FF00700D1E9002391F840F000F10800DB
:1010200082FA4CF2A4FA8CF283FA4CF3A2FA8CF313
:101030004BBBD1E9022382FA4CF200F10800A4FA7A
:101040008CF283FA4CF3A2FA8CF3E3B9D1E90423CE
:1010500082FA4CF200F10800A4FA8CF283FA4CF305
:10106000A2FA8CF37BB9D1E9062301F1200182FABF
:101070004CF200F10800A4FA8CF283FA4CF3A2FAC5
:101080008CF3002BC6D0002A04BF04301A4612BAD3
:10109000B2FA82F2FDE8024500EBD2007047D1E9D6
:1010A000002304F00305C4F100004FEAC50514F065
:1010B000040F91F840F00CFA05F562EA05021CBF36
:1010C00063EA050362464FF00004A9E70000000050
:1010D00001F0FF01102A2BDB10F0070F08D010F8E9
:1010E000013B013A8B422DD010F0070F42B3F6D1ED
:1010F000F0B441EA012141EA014122F007047FF006
:1011000000070023F0E80256083C85EA010586EA5C
:10111000010685FA47F5A3FA87F586FA47F6A5FA98
:1011200087F68EB9EED1F0BC01F0FF0102F00702A4
:1011300032B110F8013B013A83EA010313B1F8D14F
:101140000020704701387047002D06BF3546033830
:10115000073815F0010F07D1013015F4807F02BF69
:10116000013015F4C03F0130F0BC0138704700BFBA
:101170004FF0FF3C06E000BF4FF0010C02E000BF63
:101180004FF0010C4DF804CD4FEA410C7FEA6C5C46
:101190004FEA430C18BF7FEA6C5C1BD001B050EAE9
:1011A000410C0CBF52EA430C91EA030F02BF90EAD4
:1011B000020F0020704710F1000F91EA030F58BF93
:1011C000994208BF90422CBFD8176FEAE37040F0F5
:1011D000010070474FEA410C7FEA6C5C02D150EA93
:1011E000013C07D14FEA430C7FEA6C5CD6D152EA4E
:1011F000033CD3D05DF8040B704700BF8446104613
:1012000062468C461946634600E000BF01B5FFF711
:10121000B7FF002848BF10F1000F01BD4DF808EDE1
:10122000FFF7F4FF0CBF012000205DF808FB00BFB2
:101230004DF808EDFFF7EAFF34BF012000205DF80C
:1012400008FB00BF4DF808EDFFF7E0FF94BF012059
:1012500000205DF808FB00BF4DF808EDFFF7CEFF5A
:1012600094BF012000205DF808FB00BF4DF808ED99
:10127000FFF7C4FF34BF012000205DF808FB00BF6A
:101280004FEA410C7FEA6C5C02D150EA013C0AD182
:101290004FEA430C7FEA6C5C02D152EA033C02D174
:1012A0004FF0000070474FF0010070470000000051
:1012B0000EB410B583B005AA094C52F8041B23687C
:1012C0000848009201930EF0A3FA019A23689A420B
:1012D00004D103B0BDE8104003B0704700F080F8BF
:1012E00000080020AC6D002000000000000000009D
:1012F00030B50B4D83B02B680193002002F090FABB
:101300000446072002F08CFA019A2B6820449A4286
:1013100000EBD07002D1401003B030BD00F060F897
:101320000008002000000000000000000000000095
:1013300080B5204B204C1B68DFF894801F4F84B091
:10134000039308F0C5F906F0F3F81D4A1D491E483D
:1013500006F00EF802F0E4FA02F022F805F0E0FFE1
:101360001A49204609F0D4FC02F00AFA00F0A0FF66
:1013700001F076FB00F04CFB00F0BAFB00F070FBD4
:10138000414602462046FFF793FF00F0F9FA054672
:1013900000F026FB064600F00BFB334600902A4681
:1013A00039462046FFF784FF00F05AF9642006F022
:1013B000FFFEE1E700080020AC6D00206038010866
:1013C000040800200C080020E01400202008002061
:1013D000503801080000000000000000000000007C
:1013E00000B5084B83B01A680192019A1B689A42B3
:1013F00005D1054803B05DF804EB06F001B9FFF72D
:10140000EFFF00BF00080020303801080000000096
:1014100030B5094C83B023680193054601F048FFBD
:10142000019A23689A4205D1284603B0BDE83040AE
:1014300001F026BFFFF7D4FF0008002000000000E5
:1014400070B52DED028B1A4E9FED1A8A336882B06B
:1014500004460020019301F08BFF0020654201F05B
:101460006FFF10E001F054FF07EE900AF8EEE77A04
:10147000F4EEC87AF1EE10FA10D5284601F018FF04
:10148000204601F0FDFE01F02BFF07EE900AF8EE7A
:10149000E77AF4EEC87AF1EE10FAE3D4019A3368F1
:1014A0009A4203D102B0BDEC028B70BDFFF798FFEA
:1014B0000008002092DFA3430000000000000000AD
:1014C00070B52DED028B1A4E9FED1A8A336882B0EB
:1014D00004460020019301F04BFF0020654201F01B
:1014E0002FFF10E001F014FF07EE900AF8EEE77A04
:1014F000F4EEC87AF1EE10FA10D5204601F0D8FECD
:10150000284601F0BDFE01F0EBFE07EE900AF8EE72
:10151000E77AF4EEC87AF1EE10FAE3D4019A336870
:101520009A4203D102B0BDEC028B70BDFFF758FFA9
:101530000008002092DFA34300000000000000002C
:1015400070B52DED028B1A4E9FED1A8A336882B06A
:1015500004460020019301F00BFF0020654201F0DA
:10156000EFFE10E001F0D4FE07EE900AF8EEE77A05
:10157000F4EEC87AF1EE10FA10D5204601F098FE8C
:10158000284601F07DFE01F0ABFE07EE900AF8EE72
:10159000E77AF4EEC87AF1EE10FAE3D4019A3368F0
:1015A0009A4203D102B0BDEC028B70BDFFF718FF69
:1015B0000008002092DF234400000000000000002B
:1015C00010B5094C82B023680193002001F058FE49
:1015D000019A23689A4205D1002002B0BDE810406C
:1015E00001F066BEFFF7FCFE0008002000000000CE
:1015F00030B50A4C83B0236801930546084601F0D4
:101600003FFE019A23689A4205D1284603B0BDE8FF
:10161000304001F04DBEFFF7E3FE00BF00080020A0
:101620000EB410B583B005AA094C52F8041B236808
:101630000848009201930EF0EBF8019A23689A4251
:1016400004D103B0BDE8104003B07047FFF7C8FEF7
:1016500000080020AC6D0020000000000000000029
:101660002DE9F043DFF854914F49D9F800304F4845
:10167000DFF84C814D4C83B001220193C825FFF760
:10168000CFFF18E0012002F0CBF80746062002F059
:10169000C7F8B7F5967F064678DCB6F5967F6ADC24
:1016A000FFF78EFF4FF4FA70FFF7B2FE642006F0EA
:1016B0007FFD013D4BD0002002F0D2F80646042009
:1016C00002F0CEF83246034641462046FFF7A8FF17
:1016D00000F0C6F9364902462046FFF7A1FF002276
:1016E0001E231146104601F04BFBFFF701FE064694
:1016F000FFF7FEFD2F4902462046FFF791FF02202B
:1017000002F08EF80746052002F08AF83A460346B2
:1017100029492046FFF784FFB6F5C87FB2DBFFF703
:101720004FFF022002F07CF80646052002F078F810
:10173000952E19DD95284FF4967010DCFFF7C0FE4A
:10174000FFF73EFF642006F033FD013DB3D1019A5F
:10175000D9F800309A4224D103B0BDE8F083FFF7F6
:10176000EFFEFFF72DFFA1E74FF49670FFF768FE3D
:10177000FFF726FF9AE7C8216420FFF739FF6420AE
:1017800006F016FD062002F04BF889E76421FA20E6
:10179000FFF72EFF642006F00BFD012002F040F859
:1017A0007BE7FFF71DFE00BF80380108AC6D00200D
:1017B00050380108C8380108DC380108000800204A
:1017C000A438010800000000000000000000000034
:1017D0002DE9F04F2D4A2E4B92692E4F2E4E2F4D54
:1017E0002F491B68DFF8D8B0916183B007F2DF1A88
:1017F000019306F2DF1905F2DF182A4807F038F8DE
:1018000000F02EFE0022014600F5A06C835CC2F3BE
:101810004E04DB083B554B7803F01F033355835CC4
:1018200091F801E0DB0003F03803023143EA5E1374
:101830008C4502F102022B55E8D11B4B002213F814
:10184000011F9A450A44FAD1ABFB02321749184BE3
:10185000C2F307220A60002213F8011F99450A44C7
:10186000FAD1ABFB02321349134BC2F307220A60D1
:10187000002213F8011F98450A44FAD1ABFB02235A
:101880000E4AC3F307231360B7E700BF885F002049
:1018900000080020F0190020F0140020701700202C
:1018A00000390108300800208F1A0020701C002029
:1018B0008F150020EC1400200F1800202C080020A9
:1018C000CDCCCCCC000000000000000000000000E7
:1018D00080B5244C244AA3692449996186B0022327
:1018E0002025166800930A224FF420730021CDE9C9
:1018F00001553020059600F05BFE1D4E1D4F002067
:1019000001F0DEF800F05CFD002000F091FDB04633
:1019100000F0F6FC13E006F00BFB05F031FF06F0DB
:101920001FFF2368A34207D0A2699B6892689A426E
:1019300002D2384605F064FE002383F3118800F0DC
:10194000B7FD00F01DFD85F3118806F0F1FE05F0EE
:10195000F7FE05F0C5FFB368002BDCDC404606F05F
:10196000BFFFD8E7885F002000080020F03801089A
:1019700030080020103901080000000000000000BD
:1019800000B5074B07491A68086883B00192019AAD
:101990001B689A4202D103B05DF804FBFFF720FDFB
:1019A00000080020701C0020000000000000000063
:1019B00000B5074B07491A68086883B00192019A7D
:1019C0001B689A4202D103B05DF804FBFFF708FDE3
:1019D00000080020EC1400200000000000000000BF
:1019E00000B5074B07491A68086883B00192019A4D
:1019F0001B689A4202D103B05DF804FBFFF7F0FCCC
:101A0000000800202C08002000000000000000005A
:101A100030B50E4C0E4B22680E4885B0002503925F
:101A200041F278114022009506F06AFB0A4B0095BE
:101A300040220A484FF41E7106F062FB039A2368A5
:101A40009A4201D105B030BDFFF7CAFC0008002062
:101A5000D1170008F01E0020D1180008781C0020C3
:101A600070B51C4B1C4A1B681C4C11681C4A206832
:101A7000126882B003F10905122D0190A1F10A0646
:101A800006D802F10900122802D8481E12281CD9D3
:101A900002F10A00984208DA8B4206DD0120019A21
:101AA00023689A4213D102B070BD0A33934201DA1F
:101AB000914208DBB34204DAB042B4BF03200020F5
:101AC000EDE70020EBE70220E9E70420E7E7FFF776
:101AD00087FC00BF701C00202C080020000800209C
:101AE000EC140020000000000000000000000000D6
:101AF00010B5214C82B023680193FFF7B1FF042891
:101B0000019A23681CD0012820D0022829D003285C
:101B10000BD09A4208BF002316D11A46194600205E
:101B200002B0BDE8104001F02BB99A420CD100235D
:101B3000194618460A2202B0BDE8104001F020B94B
:101B40009A4208BF0A23E8D0FFF74AFC9A42FBD129
:101B500000231A4618460A2102B0BDE8104001F0E1
:101B60000FB99A42F0D10022114610460A2302B062
:101B7000BDE8104001F004B900080020000000009A
:101B800030B5104D81682B680F4A83B001930B6804
:101B900023F001030B608168946A03E0936A1B1BC6
:101BA000C72B09D8086810F00100F7D1019A2B68FB
:101BB0009A4204D103B030BD4FF0FF30F6E7FFF793
:101BC0000FFC00BF00080020885F0020000000001C
:101BD00030B5184D83B02B68019311F00C0F0446FB
:101BE0000AD00378032B13D00622636822709A6808
:101BF0001AB100212046904763685B688BB1019958
:101C00002A68914213D1204603B0BDE830401847FE
:101C1000FFF7B6FF0622636822709A68002AE8D1AF
:101C2000EBE7019A2B689A4201D103B030BDFFF770
:101C3000D7FB00BF000800200000000000000000EB
:101C4000F0B5284D83B02B68019306F039FD05F0FF
:101C5000F7FD254B1E69F20715D55A69234C42F052
:101C600001025A612778BB1F012B2AD9052263681C
:101C700022701B680BB120469847042F27D0022FF3
:101C800025D003232370B30710D5174A174C536987
:101C900043F0020353612378032B1DD063689B68D4
:101CA0000622227013B101211048984705F0F0FD7B
:101CB000019A2B689A4213D103B0BDE8F04007F0B7
:101CC000C7BC019A2B689A420AD103B0F0BD022327
:101CD0002370B307EAD5D8E72046FFF751FFDDE7C9
:101CE000FFF77EFB00080020000005506830002050
:101CF00030B50B4D0B4C2B6883B02046019300F0A0
:101D00002FF9019A2B680848084D094921619A4228
:101D1000C4E9025001D103B030BDFFF761FB00BF41
:101D20000008002068300020BC4301080000055076
:101D30001655020200000000000000000000000034
:101D40002DE9F0412F4C0578266882B0012D0196CF
:101D500006D0019A23689A4252D102B0BDE8F081C0
:101D6000294DA842F5D10E4690461F46274AE868FD
:101D70002B460C210AF044F8002839D1D5E902326B
:101D8000126828339360EB681A68042151611B685C
:101D9000C3F80C80EB681A6817611B68B6085E60B0
:101DA0002B694FB343F480232B61E968184A096813
:101DB0000B60EB6819680B6843F001030B60536B11
:101DC00043F0010353630B214E2009F0F9FCD5E9E0
:101DD0000113DA6842F00102DA60DA6842F00202C6
:101DE000DA60CA6822F4804222F001021A60B0E789
:101DF000084805F005FCC1E723F480232B61D4E7F4
:101E0000FFF7EEFA0008002068300020D11B000820
:101E100000380240203901080000000000000000E6
:101E200030B5184C0378226883B0022B019205D09C
:101E3000019A23689A4223D103B030BD124B9842D5
:101E40000546F5D18168114A0B6823F4804323F0DD
:101E500001030B608168CB6823F00F03CB60536BE9
:101E600023F0010353634E2009F0D2FC019A23684A
:101E70009A4205D1E86803B0BDE830400AF028B8BE
:101E8000FFF7AEFA0008002068300020003802405A
:101E900000B50F4B0278196883B0022A01910ED168
:101EA00081680A6842F002020A6081680A6842F4A6
:101EB00080420A6081680A6842F001020A60019A61
:101EC0001B689A4202D103B05DF804FBFFF788FA61
:101ED00000080020000000000000000000000000DA
:101EE00000B50F4B0278196883B0022A01910ED118
:101EF00081680A6822F002020A6081680A6842F476
:101F000080420A6081680A6842F001020A60019A10
:101F10001B689A4202D103B05DF804FBFFF760FA38
:101F20000008002000000000000000000000000089
:101F300000B5074B83B01A680192019A1B689A4258
:101F400004D103B05DF804EBFFF7D2BEFFF748FA07
:101F50000008002000000000000000000000000059
:101F600000B5084B83B01A68019201220270019AF1
:101F70001B6800219A42416002D103B05DF804FB66
:101F8000FFF72EFA0008002000000000000000000B
:101F90002DE9F043254D83B02C680194DDF828909D
:101FA0000F4616469846044618B111B1204B9A4286
:101FB0002FD9204805F024FB202383F3118806F055
:101FC000B7FB05F0BDFB2378012B02D0194805F0C3
:101FD00017FB4246314620464B466760FFF7B0FE8E
:101FE0000223237005F0CCFB06F0BAFB124B1A68F3
:101FF0009A4204D0996993688A689A420FD3002361
:1020000083F31188019A2B689A420CD103B0BDE882
:10201000F0839307CDD1B8F1000FCDD1C9E70748C0
:1020200005F0EEFAEBE7FFF7DBF900BF0008002050
:10203000FCFF030050390108885F00204039010887
:1020400030B51C4D83B02B680193044658B3202350
:1020500083F3118806F06CFB05F072FB2378022BEA
:1020600002D0154805F0CCFA2046FFF7D9FE01232F
:10207000237005F085FB06F073FB104B1A689A423B
:1020800004D0996993688A689A4208D3002383F33D
:102090001188019A2B689A4209D103B030BD0848D3
:1020A00005F0AEFAF2E7044805F0AAFACFE7FFF729
:1020B00097F900BF0008002060390108885F002000
:1020C000403901080000000000000000000000008E
:1020D00030B51C4D83B02B680193044658B32023C0
:1020E00083F3118806F024FB05F02AFB2378022BEA
:1020F00002D0154805F084FA2046FFF7C9FE0423F4
:10210000237005F03DFB06F02BFB104B1A689A423A
:1021100004D0996993688A689A4208D3002383F3AC
:102120001188019A2B689A4209D103B030BD084842
:1021300005F066FAF2E7044805F062FACFE7FFF728
:102140004FF900BF0008002070390108885F0020A7
:1021500040390108000000000000000000000000FD
:1021600030B51C4D83B02B680193044658B320232F
:1021700083F3118806F0DCFA05F0E2FA2378022BEB
:1021800002D0154805F03CFA2046FFF7A9FE0323CC
:10219000237005F0F5FA06F0E3FA104B1A689A423C
:1021A00004D0996993688A689A4208D3002383F31C
:1021B0001188019A2B689A4209D103B030BD0848B2
:1021C00005F01EFAF2E7044805F01AFACFE7FFF728
:1021D00007F900BF0008002090390108885F00203F
:1021E000403901080000000000000000000000006D
:1021F00000B5074B07491A68087083B00192019A2D
:102200001B689A4202D103B05DF804FBFFF7E8F8BF
:10221000000800207C3000200000000000000000CA
:1022200000B5064B83B01A680192019A1B689A4266
:1022300002D103B05DF804FBFFF7D2F800080020DC
:1022400000B5064B83B01A680192019A1B689A4246
:1022500002D103B05DF804FBFFF7C2F800080020CC
:1022600010B5104C104B226882B0019201221A70F6
:10227000202383F3118806F08BFA05F0A1FA0B48AE
:1022800006F08EFD05F0BCFA06F09AFA002383F3FF
:102290001188019A23689A4201D102B010BDFFF75C
:1022A0009FF800BF00080020883000203C08002074
:1022B00030B50E4D0E4C2B6883B00193FFF738FEFE
:1022C000206808B10DF084FD4FF496400DF078FDC4
:1022D00001992A682060B0FA80F35B099142C3F14A
:1022E000000001D103B030BDFFF77AF800080020EC
:1022F000803000200000000000000000000000000E
:1023000030B5174D174C2B78226885B0012B0392FE
:1023100020D000F005FC144B1B78ABB9B0F5964FFC
:1023200015D8124A124B12681B68124900920246D5
:102330001148FFF72DFE01232B700020039A23681C
:102340009A420BD105B030BDB0F5165FE9D94FF018
:10235000FF30F3E70848FFF773FEDAE7FFF740F8CE
:102360007E300020000800207F30002084300020D4
:1023700080300020A03901086830002000000000F3
:1023800010B50B4C0B48236882B0019306F0D0FBCC
:10239000094806F0ADFD019A23689A4205D1054827
:1023A00002B0BDE8104006F0FBBBFFF719F800BF14
:1023B00000080020440800203C0800200000000025
:1023C00030B5154D154C164B2268286883B0019224
:1023D00001221A7008B10DF0FBFC4FF416500DF0FD
:1023E000EFFC286098B10F4D286808B10DF0F0FCA3
:1023F0004FF416500DF0E4FCB0FA80F35B0928604E
:102400005842019A23689A4204D103B030BD4FF07C
:10241000FF30F6E7FEF7E4FF8030002000080020E0
:102420007F30002084300020000000000000000009
:1024300000B5074B07491A68087083B00192019AEA
:102440001B689A4202D103B05DF804FBFEF7C8FF97
:10245000000800207D300020000000000000000087
:1024600000B50D4A0D4B1278196883B0019142B145
:102470000B4AD26812681268120302D4094A106823
:1024800001E0094A1068019A1B689A4202D103B020
:102490005DF804FBFEF7A4FF7F3000200008002059
:1024A00068300020843000208030002000000000D0
:1024B00000B50E4A0E4B1278196883B001914AB1EB
:1024C000019A1B689A420FD10A4803B05DF804EBE9
:1024D000FFF746BE019A1B689A4205D1054803B032
:1024E0005DF804EBFFF7F4BDFEF77AFF7D300020C6
:1024F00000080020683000200000000000000000FC
:1025000070B5274D82B02B68019306460122032146
:102510006E2000F0E5FB044630B1019A2B689A4228
:1025200020463AD102B070BD32464E216E2000F0F6
:10253000D7FB04460028F0D1442E07D00246B7212D
:102540006E2000F0CDFBB8B10446E6E70122B721CA
:102550006E2000F0C5FB0028F6D1224603216E2034
:1025600000F0BEFB0028EFD1032211216E2000F005
:10257000B7FB78B10446D0E7224603216E2000F075
:10258000AFFB0028E0D10A2211216E2000F0A8FB49
:102590000028D9D1034B1E71BFE7FEF721FF00BF12
:1025A000000800208C300020000000000000000027
:1025B0002DE9F04F8FB0DFF80084DDF860C0D8F867
:1025C00000400D940CF1FF355C1EB3F5207F9DF8A3
:1025D00064909DF868B00C44154400F21282BCF57A
:1025E000F07F00F20E82B1F5207F0E4600F21282DB
:1025F000B2F5F07F174600F21082A14280F004820B
:10260000B4F5207F00F20082AA4280F00082B5F586
:10261000F07F00F2FC81B9F1400F824600F0B081FA
:10262000B9F1800F23D0B9F1200F00F09C81002375
:10263000CDE90033BBF1400F2FD0BBF1800F00F08C
:10264000CB81BBF1200F00F0B9810023CDE902332B
:10265000002203216E2000F043FBA0B30D9AD8F8AE
:1026600000309A4240F0E2810FB0BDE8F08F9A0747
:1026700040F0D681CC4A8C085900661CA2FB0101AF
:10268000A2FB030204EB930406EBD2030093BBF11D
:10269000400F06EBD1030193CFD11CF0010F40F0A6
:1026A000C281C14B7D084FEA4C026F1CA3FB021292
:1026B000A3FB0C1307EB9303029307EB920305EBC9
:1026C0005C050393C4E702465B216E2000F008FB23
:1026D0000028C3D15046FFF713FF0028BED10246A1
:1026E00003216E2000F0FCFA0028B7D1C6F30723BF
:1026F0001A4608216E20049300F0F2FA0028ADD1AA
:10270000F3B21A4609216E20059300F0E9FA002879
:10271000A4D1C7F307231A460A216E20069300F0BE
:10272000DFFA00289AD1FBB21A460B216E200793DC
:1027300000F0D6FA002891D1C4F307231A460C21E1
:102740006E20089300F0CCFA002887D1E3B21A4635
:102750000D216E20099300F0C3FA00287FF47EAFAC
:10276000C5F307231A460E216E200A9300F0B8FA2B
:1027700000287FF473AFEBB21A460F216E200B9343
:1027800000F0AEFA00287FF469AF049A35216E207C
:1027900000F0A6FA00287FF461AF059A36216E207A
:1027A00000F09EFA00287FF459AF089A37216E2076
:1027B00000F096FA00287FF451AF099A38216E2074
:1027C00000F08EFA00287FF449AF069A39216E2076
:1027D00000F086FA00287FF441AF079A3A216E2074
:1027E00000F07EFA00287FF439AF0A9A3B216E2070
:1027F00000F076FA00287FF431AF0B9A3C216E206E
:1028000000F06EFA00287FF429AF009B3D21C3F34E
:1028100007226E2000F064FA00287FF41FAF9DF8B5
:1028200000203E216E2000F05BFA00287FF416AFF6
:10283000019B3F21C3F307226E2000F051FA0028CC
:102840007FF40CAF9DF8042040216E2000F048FA80
:1028500000287FF403AF029B4121C3F307226E20BF
:1028600000F03EFA00287FF4F9AE9DF808204221DE
:102870006E2000F035FA00287FF4F0AE039B432170
:10288000C3F307226E2000F02BFA00287FF4E6AE97
:102890009DF80C2044216E2000F022FA00287FF4DD
:1028A000DDAE012203216E2000F01AFA00287FF429
:1028B000D5AE4A4693216E2000F012FA00287FF42C
:1028C000CDAE5A4694216E2000F00AFA00287FF41B
:1028D000C5AE012203216E2000F002FA00287FF429
:1028E000BDAE0134A31B07EE103ADFED307AB8EE2F
:1028F000477ABAF1440F77EEC77A00F09980B0EECC
:10290000006AF2EE006AE7EE066A77EEA77AB0EEAA
:10291000667A67EE877ADFED266A87EEA67AFCEEA6
:10292000C77ACDED007A009B9521C3F307226E2074
:1029300000F0D6F900287FF491AE9DF80020962192
:102940006E2000F0CDF900287FF488AE194B0135D8
:10295000EF1BA41B5F801C8083F804A083F8059004
:1029600083F806B07AE610495A00A1FB030306EB90
:102970005303A1FB0212009306EB5203019359E6A5
:10298000D9074DD4084A74085900661CA2FB0101FE
:10299000A2FB030204EB530406EB9203009306EB45
:1029A0009103019346E600BFABAAAAAA0000224405
:1029B0000000A3448C30002000080020244A4FEA85
:1029C0004C03A2FB0C1CA2FB032307EB530307EBF6
:1029D0005C02029203933BE61CF0030F23D11C4BD5
:1029E000BD084FEA4C026F1CA3FB0212A3FB0C13A1
:1029F00007EBD303029307EBD20305EB9C0503938C
:102A000026E66FF0070029E66FF0030026E66FF078
:102A1000040023E66FF0010020E66FF002001DE6DF
:102A20006FF005001AE66FF0060017E6FEF7D8FC17
:102A3000F2EE006A37EE267ADFED066A67EE277A55
:102A400087EEA67AFCEEC77ACDED007A6BE700BF81
:102A5000ABAAAAAA00002444000000000000000065
:102A600010B5114C86B02368059300F0B1F80F49FA
:102A70000F4807F0E5FA012200210D4807F078FB26
:102A800020237822CDE901330092A023B422F02143
:102A90000220FFF78DFD059A23689A4201D106B006
:102AA00010BDFEF79DFC00BF00080020B0390108F2
:102AB000906D0020000000000000000000000000F9
:102AC00030B5164C83B023680193054600230222DB
:102AD00003216E208DF8033000F002F928B1019A2D
:102AE00023689A4218D103B030BD0DF103020421CE
:102AF0006E2000F0A5F80028F1D19DF80320012DEB
:102B00000CBF02F0FB0242F0040204216E208DF89B
:102B1000032000F0E5F8E2E7FEF762FC0008002081
:102B200010B50A4B0A4A1988146858881B7982B074
:102B3000442B019400FB01F00199136818BF400079
:102B4000994201D102B010BDFEF74AFC8C30002042
:102B5000000800200000000000000000000000004D
:102B600070B5164E16483368154D82B005224FF4E5
:102B7000807101930AF06CFF20246B6983F48073E9
:102B80006B61012005F014FB631E13F0FF04F4D108
:102B90004FF4807140F20622298309480AF058FF59
:102BA000019A33689A4206D10649074802B0BDE847
:102BB000704007F08DB8FEF713FC00BF000800203E
:102BC00000040240F0390108086A002000000000FB
:102BD00000B50C4A0C4B1278196883B0012A019198
:102BE000019A1B6804D09A4209D103B05DF804FB36
:102BF0009A4204D103B05DF804EBFFF7B1BFFEF7D2
:102C0000EFFB00BF086A0020000800200000000061
:102C100000B5084B83B01A680192019A1B689A426A
:102C200005D1054803B05DF804EB07F099B8FEF74D
:102C3000D7FB00BF00080020086A00200000000049
:102C40002DE9F041224C234E88B0002335688DF8E1
:102C50001830804620468DF814101746079507F067
:102C60004FF92378012B0CD00420012306AACDE9CB
:102C700001300092414605AA204607F0D1F80546EA
:102C800068B9134807F05CF99DF818303B700020D4
:102C9000079A33689A4218D108B0BDE8F0812046FF
:102CA00007F0A6F823780C4A052B106004D00848DA
:102CB00007F046F968B2EBE7204607F051F82378B1
:102CC000012BF4D1FFF74CFFF1E7FEF789FB00BFC2
:102CD000086A002000080020943000200000000056
:102CE000F0B5214C214E89B0336807930746002583
:102CF00020468DF818108DF819208DF8145007F023
:102D0000FFF82378012B0CD0042205AB0195029229
:102D100000933946022306AA204607F081F80546AB
:102D200048B9114807F00CF90020079A33689A4215
:102D300017D109B0F0BD204607F05AF823780C4AA5
:102D4000052B106004D0084807F0FAF868B2ECE7E9
:102D5000204607F005F82378012BF4D1FFF700FF98
:102D6000F1E7FEF73DFB00BF086A002000080020E5
:102D7000943000200000000000000000000000006F
:102D800070B5094D094E2C6882B000EB40000194EB
:102D9000315434180198296862708842A37001D1B7
:102DA00002B070BDFEF71CFB000800209830002028
:102DB00030B5094B094D044607CB83B02B6801930E
:102DC000206001982B6861609842A26001D103B035
:102DD00030BDFEF705FB00BF983000200008002042
:102DE00070B51A4D1A4C1B4E0FCD0FC49EB02A68F9
:102DF000336822801D93EFF30981682203A8FEF750
:102E000057F8154B9D6AAA0714D4EB0708D5124B47
:102E100008995B6B114A00910D4880210DF0F0FA82
:102E20001D9A33689A420FD109481EB0BDE8704020
:102E300004F0E6BB099A5B6B0092A4F11000084A0B
:102E400080210DF0DDFAE0E7FEF7CAFA443A010806
:102E5000A43000200008002000ED00E0203A010826
:102E6000003A01080000000000000000000000001F
:102E700000B51F4B0278196883B00191E2B11D4A79
:102E80004FF4005111834278EAB11A4A4FF480514D
:102E900011838278F2B1174A4FF480411183C278CE
:102EA000FAB9144A4FF400415183019A1B689A42BF
:102EB0001CD103B05DF804FB0E4A4FF4005151835E
:102EC0004278002AE1D10B4A4FF480515183827835
:102ED000002AE0D1074A4FF480415183C278002A8A
:102EE000DFD0044A4FF400411183DEE7FEF778FAA1
:102EF0000008002000100240000000000000000058
:102F000000B51F4B0278196883B00191E2B11D4AE8
:102F10004FF4007111834278EAB11A4A4FF480717C
:102F200011838278F2B1174A4FF400611183C2789D
:102F3000FAB9144A4FF480615183019A1B689A428E
:102F40001CD103B05DF804FB0E4A4FF400715183AD
:102F50004278002AE1D10B4A4FF480715183827884
:102F6000002AE0D1074A4FF400615183C278002A59
:102F7000DFD0044A4FF480611183DEE7FEF730FAB8
:102F800000080020001002400000000000000000C7
:102F900030B50C4A0C4B116883B04FF400550191C9
:102FA0004FF480544FF400414FF480405D835C83C4
:102FB0005883598301991368994201D103B030BDF8
:102FC000FEF70EFA0008002000100240000000008A
:102FD00030B50C4A0C4B116883B04FF40075019169
:102FE0004FF480744FF480614FF400605D835C8324
:102FF0005883598301991368994201D103B030BDB8
:10300000FEF7EEF90008002000100240000000006A
:1030100010B50B4C0B48236882B099220021019314
:1030200007F0A6F8019A23689A4206D105480021C4
:1030300002B0BDE8104007F083B9FEF7D1F900BF38
:1030400000080020586D0020000000000000000073
:1030500010B50B4C0B48236882B0992200210193D4
:1030600007F086F8019A23689A4206D105480021A4
:1030700002B0BDE8104007F063B9FEF7B1F900BF38
:1030800000080020746D0020000000000000000017
:1030900000B5084B83B01A680192019A1B689A42E6
:1030A00006D10548002103B05DF804EB07F0B0B885
:1030B000FEF796F900080020586D0020000000007F
:1030C00000B5084B83B01A680192019A1B689A42B6
:1030D00006D10548002103B05DF804EB07F098B86D
:1030E000FEF77EF900080020746D0020000000004B
:1030F00070B51A4C1A4E2378326882B0022B0192B6
:10310000A26811D165781748013505F0070500EB75
:103110008500904763686570013B6360019A33687E
:103120009A4219D102B070BD012B08D001993368C1
:10313000994211D10C4802B0BDE870401047657843
:103140000848013D05F0070500EB850090476368DE
:10315000657001336360E1E7FEF742F93C3100201E
:1031600000080020F03A0108E03A010800000000E1
:1031700070B51A4C1A4E2378326882B0012B019236
:10318000A26811D165781748013505F0070500EBF5
:10319000850090476368657001336360019A336806
:1031A0009A4219D102B070BD022B08D00199336840
:1031B000994211D10C4802B0BDE8704010476578C3
:1031C0000848013D05F0070500EB8500904763685E
:1031D0006570013B6360E1E7FEF702F924310020EE
:1031E00000080020F03A0108E03A01080000000061
:1031F00030B51F4D85B02B68039340F24C43994284
:10320000044626DCA3F69803994211DB4B00002B01
:1032100029D10370036998474FF47A71039A2B6898
:103220009A421ED1606905B0BDE8304006F058BF33
:10323000104B02225B42227040F2892293420E49D7
:1032400091FBF3F189B207DC0191E368984701999A
:10325000E4E7012303702D21019123699847019927
:10326000DCE7FEF7BDF8E4DD01220270E4E700BF11
:103270000008002068F7FFFFA086010000000000A2
:1032800000B5084B83B01A680192019A1B689A42F4
:1032900006D10146044803B05DF804EBFFF7A8BF70
:1032A000FEF79EF8000800202431002000000000F6
:1032B00000B5084B83B01A680192019A1B689A42C4
:1032C00006D10146044803B05DF804EBFFF790BF58
:1032D000FEF786F8000800203C31002000000000C6
:1032E00000B5094B094A1968506883B000EBD070EB
:1032F0000191019A1B689A4203D1401003B05DF816
:1033000004FBFEF76DF800BF000800202431002008
:1033100000B5094B094A1968506883B000EBD070BA
:103320000191019A1B689A4203D1401003B05DF8E5
:1033300004FBFEF755F800BF000800203C310020D8
:1033400000B5084B08491A6883B040000192019A01
:103350001B6848609A4202D103B05DF804FBFEF797
:103360003FF800BF000800202431002000000000CA
:1033700000B5084B08491A6883B040000192019AD1
:103380001B6848609A4202D103B05DF804FBFEF767
:1033900027F800BF000800203C310020000000009A
:1033A00070B51D4E1D4A1E4B30681E491E4C916063
:1033B00082B00021D46001901C4C1D481D4D9D60C1
:1033C000117051705160106154611B481B4A1C4DB3
:1033D000D8601C48197059705960C3E90425FFF77B
:1033E00047FD1848FFF78CFD1749204606F028FED8
:1033F000204606F05DFF2846144906F021FE019A9A
:1034000033689A4205D1284602B0BDE8704006F004
:103410004FBFFDF7E5FF00BF000800203C31002052
:1034200024310020712E000811300008586D002052
:1034300091300008012F000851300008C130000809
:10344000746D0020E03A0108A03A0108603A0108D2
:103450000A490B4B09680B4A82B020200191402198
:1034600058834FF4806559834FF400644FF48040D3
:1034700004215D835C8358835183FEE700080020AC
:10348000000C0240000402400000000000000000A8
:1034900010B51E491E4A0B78106882B0013B01909E
:1034A000072B0AD8DFE803F012151C1F26290F048A
:1034B00018480824012304830B700199136899426A
:1034C00021D102B010BD08230B70F6E702230B7068
:1034D000F3E711484FF48054032304830B70ECE7A7
:1034E00004230B70E9E70C484FF480440523048360
:1034F0000B70E2E706230B70DFE70648042407237E
:1035000004830B70D9E7FDF76BFF00BFD0340020B8
:1035100000080020001002400004024000000000EB
:1035200030B50C4B0C4918680C4A83B04FF48045F9
:1035300001904FF480504883042408204D83548325
:103540005083019A1B689A4201D103B030BDFDF748
:1035500047FF00BF000800200004024000100240A6
:103560002DE9F04F4E4B4F4A9B694F499961A5B0E9
:1035700007AE05AD80231768009331462A46002424
:103580000CA84A4B2397CDE90766CDE90555CDE94F
:1035900009440B9403F004FF0CA9454A4548434CE9
:1035A000454DDFF83481DFF834B1DFF834A103F0A2
:1035B0001FFF04F11C0604F16007A146504605F008
:1035C00057F92A682B69226063602A6A2B6BA26014
:1035D000E3606A686B69226163616A6A6B6BA2610E
:1035E000E361AA68AB6922626362AA6AAB6BA262FA
:1035F000E362EA68EB6922636363EA6AEB6B2F4973
:10360000A263E36351F8043F0A6AB142A3EB0203E9
:103610000B64F7D1802249460CA803F019FF98F8F3
:103620000030002BCAD09BF8003033B3012BC5D13A
:10363000DFF8B0C02248614650F8042B51F8043F2F
:10364000B84213440B60F7D11E4A13780133DBB242
:10365000642B1370B2D11C495CF8043F1B4A82FBF7
:103660000302DB17C3EB621341F8043B184B9C4584
:10367000F2D1002388F80030A0E719462022124832
:1036800003930CF06DFE039B1248194620220CF0A8
:1036900067FE0C49039B0B7001228BF800208DE71D
:1036A000885F002000080020103B0108D83100206E
:1036B000503B0108E014002074310020D431002078
:1036C00018320020B5310020383200201F85EB5120
:1036D000D4310020B8310020B4310020B6310020B0
:1036E00058080020B4310020000000000000000055
:1036F00070B502691E4D52882B6882B006460C4692
:103700001C480193920000210CF02AFE33695B886B
:103710005BB1184AA11E002331F8020F42F8040BD6
:103720003069408801339842F6D8202383F311880A
:1037300005F02EF804F044F804F0D2F80E4883683F
:10374000002B0FDD04F05CF805F03AF8002383F35A
:103750001188019A2B68094901209A42087004D106
:1037600002B070BD05F0BCF8ECE7FDF739FE00BF14
:10377000000800207431002058080020D0340020B8
:1037800070B51F4D1F4C2E78236884B0012E039313
:1037900005D0039A23689A422FD104B070BD00214E
:1037A000284606F0ADF8284606F06AF93346284662
:1037B000154A164906F024F91549164806F040FC4A
:1037C0004FF496720021134806F0D2FC00211148F4
:1037D00006F0B6FD0F4806F06BFD31464FF48272DD
:1037E0000C4806F0C5FC0023009340220A4B0B480E
:1037F0004FF41E7104F084FCCBE7FDF7F1FD00BF30
:10380000E46600200008002054310020203B01081D
:10381000603B01083C6D00206135000858320020F3
:1038200000B50A4B83B01A68019207289BBF084A6B
:103830001030002052F82000019A1B689A4202D1F1
:1038400003B05DF804FBFDF7CBFD00BF00080020CE
:10385000D83100200000000000000000000000003F
:1038600000B50A4B83B01A68019207289CBF084A2A
:1038700052F82000019A1B6888BF00209A4202D1AA
:1038800003B05DF804FBFDF7ABFD00BF00080020AE
:10389000D8310020000000000000000000000000FF
:1038A00080B5164A164B9269164E17491B68DFF809
:1038B0006480164D164C916182B0374601932846BC
:1038C000FFF776FA204607F02BFB3B462A460C21F1
:1038D000204607F0A5FB204607F062FB3078FEF794
:1038E00087FC98F80030033B012B4FF0140002D9FD
:1038F00004F05EFCE3E7FEF743FDE0E7885F0020AD
:1039000000080020D4340020B03B0108484A0020C1
:10391000E46C00206830002000000000000000007F
:1039200010B50C4C0C4923680C4884B0039307F085
:10393000AFFA002300934122094B0A484FF4AF61CC
:1039400004F0DEFB039A23689A4201D104B010BD53
:10395000FDF746FD00080020A03B0108E46C0020B4
:10396000A1380008D0440020000000000000000042
:1039700000B5084B83B01A680192019A1B689A42FD
:1039800005D1054803B05DF804EB05F0D1B8FDF7AB
:1039900027FD00BF00080020640800200000000090
:1039A00000B5084B83B01A680192019A1B689A42CD
:1039B00005D1054803B05DF804EB05F0F1B8FDF75B
:1039C0000FFD00BF00080020640800200000000078
:1039D00070B50D4C82B0236801930D1E06460DDDB7
:1039E000284605F0ADFD18B90C2333604FF0FF30C9
:1039F000019A23689A4205D102B070BD034803F0D2
:103A0000FFFDEDE7FDF7ECFC00080020C03B0108DE
:103A100000B5064B83B01A680192019A1B689A425E
:103A200002D103B05DF804FBFDF7DAFC00080020CA
:103A300000B5074B83B01A680192019A1B689A423D
:103A400004D103B05DF804EB05F072B8FDF7C8FCD3
:103A5000000800200000000000000000000000003E
:103A600000B5074B83B01A680192019A1B689A420D
:103A700004D103B05DF804EB05F092B8FDF7B0FC9B
:103A8000000800200000000000000000000000000E
:103A900000B5074B83B01A680192019A1B689A42DD
:103AA00004D103B05DF804EB05F0A2B9FDF798FC72
:103AB00000080020000000000000000000000000DE
:103AC00000B5074B83B01A680192019A1B689A42AD
:103AD00004D103B05DF804EB03F03AB8FDF780FCC5
:103AE00000080020000000000000000000000000AE
:103AF00010B50C4C82B02368019315290CD8012213
:103B0000094B8A4013403BB101740020019A23689D
:103B10009A4204D102B010BD6FF00700F6E7FDF73E
:103B20005FFC00BF000800200B0030000000000018
:103B300000B5074B83B01A680192019A1B689A423C
:103B400004D103B05DF804EB02F0CABAFDF748FCFB
:103B5000000800200000000000000000000000003D
:103B600010B5074B82B01C680194019C1B689C42F5
:103B700004D102B0BDE8104002F072B9FDF730FC8C
:103B8000000800200000000000000000000000000D
:103B900010B5074B82B01C680194019C1B689C42C5
:103BA00004D102B0BDE8104002F072BAFDF718FC73
:103BB00000080020000000000000000000000000DD
:103BC0002DE9F04182B002AB0024364D03F8054DDB
:103BD00090462A6801920F461A460121064603F0D4
:103BE000DFF90446E0B9B8F1010F9DF803301FD0AA
:103BF000042F53D8DFE807F0322D0328230003F009
:103C0000FB07BB420CD03A460121304603F068F96D
:103C1000044628B986F830717169304602F060FABE
:103C2000019A2B689A42204636D102B0BDE8F08155
:103C3000042F33D8DFE807F02B26211C170003F0F0
:103C40007F07BB42DFD1EBE703F0BF07BB42DAD10E
:103C5000E6E703F0D707BB42D5D1E1E703F0EF0772
:103C6000BB42D0D1DCE743F08007BB42CBD1D7E7E2
:103C700043F04007BB42C6D1D2E743F00407BB4242
:103C8000C1D1CDE743F02807BB42BCD1C8E743F020
:103C90001007BB42B7D1C3E7FDF7A2FB6FF00304E7
:103CA000BEE700BF00080020000000000000000088
:103CB00030B583B002AA114D002302F8053D0C4631
:103CC0002B680193012103F06BF978B99DF803305B
:103CD000C3F30011C3F3C0022170A270C3F38001CB
:103CE000C3F38012DB096170E2702371019A2B68C3
:103CF0009A4201D103B030BDFDF772FB00080020ED
:103D000070B5134C84B00E46236803930DF1060280
:103D1000F821054603F05CF928B1039A23689A421A
:103D200013D104B070BD02AA0421284603F068F93B
:103D30000028F2D1BDF8062012B93368AB61ECE778
:103D4000029BB3FBF2F33360F8E7FDF749FB00BFDA
:103D5000000800200000000000000000000000003B
:103D600000B5084B027F18680A7083B00190019A71
:103D70001B689A4203D1002003B05DF804FBFDF7F5
:103D80002FFB00BF00080020000000000000000022
:103D900070B5104C82B00E46236801930DF10202FB
:103DA0002021054603F014F938B9BDF8023053B1AB
:103DB000DB00012233602B622A77019A23689A4242
:103DC00005D102B070BD2B6A33602877F5E7FDF7A7
:103DD00007FB00BF000800200000000000000000FA
:103DE000F0B5294F83B03B680193052947D80E46AB
:103DF0000446154662B100EB81020023526B01209C
:103E0000711E04292FD8DFE801F0252213063100A6
:103E100010460123F4E75B00FE226021204603F0F8
:103E20008FF870B9344445B9284684F8285008E022
:103E300084F82B003444002DF6D0012384F8283078
:103E40000020019A3B689A421CD103B0F0BD84F86F
:103E50002A00EFE7C2F34F224421204603F058F82E
:103E60000028DFD0EDE784F82800E3E71B01EF220C
:103E70006021204603F064F80028D3D0E1E76FF01A
:103E80000300DEE7FDF7ACFA0008002000000000A8
:103E900010B50C4B82B01C68019405290AD8014466
:103EA000002091F828101170019A1B689A4206D1DF
:103EB00002B010BD002111706FF00300F4E7FDF7B0
:103EC0008FFA00BF00080020000000000000000082
:103ED000F0B543181C4E83B0044693F828003368AD
:103EE00001930D46174630B105292AD8DFE801F0C5
:103EF000141E1A1C0C0C04EB81046263019A3368D3
:103F00009A421CD103B0F0BDC2F34F226421204677
:103F100002F0FEFF08B1F1E7626304EB85040020C4
:103F20006763EBE7E263F8E72264F6E7C2F34F2248
:103F30004421204602F0ECFF0028EED0DEE7FDF73A
:103F40004FFA6FF00300D9E70008002000000000DE
:103F500070B5204C82B023680193054616460529AA
:103F600034D8DFE801F0030E0C1E2020436B3360D1
:103F70000020019A23689A4226D102B070BDC36B1B
:103F8000F5E70DF10202442103F022F80028F0D1F8
:103F9000BDF802305A028BB9AB6B336085F829004B
:103FA000E7E7036CE3E70DF10202642103F010F888
:103FB0000028DED1BDF802305B02D8E70123326071
:103FC000AA6385F82930D4E7FDF70AFA6FF00300F9
:103FD000CFE700BF00080020000000000000000044
:103FE00070B5104C82B00E46236801930DF10302A8
:103FF0000121054602F0D4FF58B99DF8033085F839
:1040000030311B064BBF012303463370307085F8F7
:104010004C30019A23689A4201D102B070BDFDF77D
:10402000DFF900BF000800200000000000000000D1
:104030002DE9F047DFF898A0027CDAF8003082B072
:104040000F4601F8082B06460193FFF759FEA0BB67
:10405000387307F110013046FFF79AFE68BB07F18D
:104060001401304600F064FD38BB044607F1240516
:1040700006F1280907F118082A46A1B23046FFF7D1
:1040800067FFD0B9013419F8013B08F8013B062C51
:1040900005F10405F0D107F13C013046FFF7A0FF20
:1040A00058B9019ADAF800309A420ED1391D3046DB
:1040B00002B0BDE8F04702F08BB8019ADAF80030A0
:1040C0009A4202D102B0BDE8F087FDF789F900BF3E
:1040D00000080020000000000000000000000000B8
:1040E0002DE9F041614F92B005463B6811930022E3
:1040F000882102F0F5FE4FF47A724FF4C8735C49E0
:10410000A5F85221A5F854315A4AC5F85811002390
:10411000C5F8D42085F8F0302B62284601A9FFF7B6
:1041200087FF044688B9ADF8040001AE0FCE05F153
:10413000100CACE80F000FCEACE80F000FCEACE8CF
:104140000F0096E80F008CE80F004B4BC5F8343198
:1041500001264FF420634FF4FA72A5F83C31A5F81C
:1041600038218021324685F85061284602F0B8FE99
:1041700032468046FF21284602F0B2FE002248EA7D
:10418000000011460443284602F0AAFE64B20DF175
:10419000030204439121284602F002FF64B29DF815
:1041A000033085F83A31044332460021284602F0B4
:1041B00097FE64B200220443FF21284602F090FEDD
:1041C00064B2044300228021284602F089FE64B2D2
:1041D000204340B278B90146324628463446FFF7BC
:1041E000FFFD40B90122A1B228461444FFF7F8FDB3
:1041F000062CF6D130B1119A3B689A4233D112B0F5
:10420000BDE8F0816885024604212846FFF7E8FDF5
:104210000028F0D1024605212846FFF7E1FD0028DD
:10422000E9D14FF490136B634FF48042012128468B
:10423000FFF74EFE0028DED14FF40C13EB6395F828
:104240002B3003B10023FF222B6485F8302101219C
:10425000284602F045FE012385F832310028CAD1F4
:1042600085F81501C7E7FDF7BBF800BF000800207F
:10427000856B0100A4700900640084030000000045
:1042800010B5084B82B01C680194019C1B689C42CD
:1042900005D1012302B0BDE8104000F039BFFDF7A1
:1042A0009FF800BF00080020000000000000000090
:1042B00030B5184C90F8DA30226883B0042B0192A4
:1042C0000D460DF1030211D0142102F069FE20B950
:1042D0009DF80330DB0706D42870019A23689A42C0
:1042E00015D103B030BD01232B70F6E7132102F086
:1042F00057FE9DF8033013F0180F03F0070318BFA3
:104300006FF00500042BEED000232B70E5E7FDF7DE
:1043100067F800BF00080020000000000000000057
:104320002DE9F047564F8EB03B680D930C460C2399
:104330000AAA1421054602F0B3FD8646002840F083
:104340008B809DF82EE09DF830C09DF82F209DF8C1
:1043500031109DF82A609DF82B30A07502EB0E22DB
:1043600001EB0C2192B289B249025202C4E9032145
:1043700003EB0623C4E900009BB2A3829DF83280C0
:104380009DF83360B5F852E195F831C19DF82810D9
:1043900006EB0826BEF57A7FB6B21FD006FB0EF6F6
:1043A000DFF8E09095F81C80D5F820E006F5FA7665
:1043B000A9FB0696B609B8F1000F0ED01FFA8EFEC3
:1043C00003FB0EFE4FEA2E2E72454DD0B6B202FB15
:1043D00006F6A2EB0E0EB6FBFEF6B6B2BCF1000F6F
:1043E00047D0B001C0B2B608E0750DF10B002681D0
:1043F000CDE90040284602F043FA864660BB9DF8AE
:104400000B8084F8188005F150060FCE0DF10C0CCE
:10441000ACE80F002389ADF8143096E807006389F3
:10442000ADF81630E36894F817A0B4F8149006932A
:104430002369646804948CE8070003AC8DF8248039
:104440008DF823A00793ADF820900FCC50350FC501
:104450009CE8070086E807000D9A3B689A42704680
:104460000CD10EB0BDE8F087BCF1000F03D148F6C7
:10447000E0260020B8E740F6AE06B5E7FCF7B0FF4F
:1044800000080020D34D6210000000000000000072
:104490002DE9F041134D144C296882B01646019164
:1044A0000DF102020E211F46804602F091FDBDF87B
:1044B000023004EA4343336050B90DF10202404632
:1044C0000C2102F085FDBDF8023004EA43443C6053
:1044D000019A2B689A4202D102B0BDE8F081FCF744
:1044E0007FFF00BF000800200000FE1F000000004A
:1044F000F0B590F8DA30254C85B0013B2268039284
:10450000022B07D90025039A23689A4228463AD1FC
:1045100005B0F0BD02AB0F4601AA01210646FFF728
:10452000B7FF019BB3F57F0F05461FD9002DEAD1D8
:104530001FBB0422FF21304602F0D2FC2A46074668
:104540007021304602F0CCFC2A460743FF2130465A
:1045500002F0C6FC7FB22A46802147EA00053046B9
:1045600002F0BEFC6DB205436DB2CCE7029BB3F521
:104570007F0FC8D9002DDBD0C5E73046044901F0D4
:104580009FFE0546BFE7FCF72BFF00BF0008002099
:104590006C09002000000000000000000000000086
:1045A000F0B53F4F057C3B6883B004460122802173
:1045B000019302F095FC0122FF21204602F090FCBD
:1045C00000221146204602F08BFC94F83A219121FA
:1045D000204602F085FC01220021204602F080FCEA
:1045E0000022FF21204602F07BFC20460022802191
:1045F00002F076FC012D37D017D3032D08D06FF0D1
:104600000706019A3B689A42304647D103B0F0BD95
:1046100068B304220021204602F062FC064600280E
:10462000EFD1042384F83231EBE701220021204648
:1046300002F056FC012306468DF803300028E0D135
:1046400005462DB301350DF103020021204602F08D
:10465000A7FC9DF80330DB0713D590B9B5F5FA6FC9
:10466000EFD16FF00606CCE730B10222D2E701218C
:104670002046FFF73DFFCCE729462046FFF738FFED
:10468000F3E7B5F5FA6F14BF06466FF00606B8E714
:104690009DF80330DA07B4D50225D4E7FCF7A0FE75
:1046A00000080020000000000000000000000000E2
:1046B00030B5114C037C226883B0019283B9054662
:1046C000FFF76EFF30B9284600F072FF10B90323E0
:1046D00085F83231019A23689A420AD103B030BD7D
:1046E000019A23689A4204D103B0BDE8304000F03B
:1046F0005FBFFCF775FE00BF00080020000000004F
:10470000F0B51A4F83B03B6801930646002501229D
:104710000B21304602F0E4FB002204460B21304618
:1047200002F0DEFB0DF1030204431321304602F0D8
:1047300037FC9DF8033064B2204301355B0740B27B
:10474000EDB20CD0032D07D00028E0D0019A3B68D1
:104750009A4209D103B0F0BD6FF00B00F6E7032DCC
:1047600008BF6FF00B00F1E7FCF73AFE00080020ED
:1047700070B5124C82B000222368027405460E46C2
:104780000193FFF795FF28B1019A23689A4212D14D
:1047900002B070BD31462846FFF7C2FD0028F3D1B4
:1047A000019A23689A4206D10146284602B0BDE824
:1047B0007040FFF7A5BFFCF713FE00BF0008002004
:1047C000F0B5574D83B02C680194152906463AD0B0
:1047D00014461F46042A00F2A080DFE802F02132CE
:1047E0002E30030004220A21304602F079FBF0B992
:1047F000002F14BF10230023EF228421304602F043
:104800009FFBA0B9019A2B6886F8DA409A4240F0E3
:1048100082800146304603B0BDE8F040FFF770BF2C
:1048200000220A21304602F05BFB0028E0D0019A0A
:104830002B689A426FD103B0F0BD0222D3E7032266
:10484000D1E70122CFE70122FF2102F049FB00223C
:1048500011460446304602F043FB00220443FF2188
:10486000304602F03DFB64B2012204438021304611
:1048700002F036FB64B2022204438521304602F086
:104880002FFB64B204220443FF21304602F028FBD0
:1048900064B200220443CD21304602F021FB64B211
:1048A00011220443CC21304602F01AFB64B20722E5
:1048B0000443FF21304602F013FB64B2002204439C
:1048C000BE21304602F00CFB64B206220443FF21F5
:1048D000304602F005FB64B209220443CC21304685
:1048E00002F0FEFA64B200220443FF21304602F0D7
:1048F000F7FA64B201220443FF21304602F0F0FAD5
:1049000064B2002204431146304602F0E9FA64B270
:10491000204340B28BE7FCF763FD6FF00A0086E7A7
:10492000000800200000000000000000000000005F
:10493000F0B5704F97B004463B68159340220021B4
:1049400005A80BF00DFD002320460121ADF80A302B
:104950008DF807308DF80830039300F091FE94F83D
:104960001421012A06D894F8131100F0B9800C29FB
:1049700040F2B98002AA03A9204600F0F9FB0546DF
:10498000002D40F0A38094F85031002B00F0A5805A
:104990005949204601F094FC0546002840F09680D5
:1049A0002B46294604222046FFF70AFF0546002829
:1049B00040F08C800122FF21204602F091FA0DF197
:1049C0000A0206468421204602F002FB2A46FF2105
:1049D00046EA0005204602F083FA6DB205436DB247
:1049E000002D73D1BDF80A301B01C4F8D43005A9DD
:1049F0002046FFF71DFB0546002867D10DF1070291
:104A00000921204602F0CCFA054600285ED105AE09
:104A10000FCE9DF807C004F110050CF0010C84F8CE
:104A200031C10FC50FCE0FC50FCE0FC596E80F00D1
:104A30008DF807C085E80F000DF10702012120461F
:104A400002F0AEFA0546002840D19DF8073084F800
:104A50003031024601462046FFF7B2F80546A8BBB2
:104A6000024602212046FFF7ABF8054670BB032340
:104A7000014684F832310DF10902204601F008FBAD
:104A8000054618BB9DF8093084F8E8300DF109029D
:104A90000121204601F0FCFA0546B8B99DF809301D
:104AA00084F8E03004AA0321204601F0C9F8054645
:104AB00060B9049BC4F8E43004AA0421204601F044
:104AC000BFF8054610B9049BC4F8DC30159A3B6862
:104AD0009A4228460CD117B0F0BDD4F84C1158E7D3
:104AE00020293FF647AF204600F042F9054647E748
:104AF000FCF776FC00080020780800200000000089
:104B000010B5074B82B01C680194019C1B689C4245
:104B100004D102B0BDE8104000F02ABBFCF760FCF5
:104B2000000800200000000000000000000000005D
:104B300030B5134C83B00D46236801930DF102028A
:104B4000282102F045FA50B9BDF80230C3F30B0337
:104B5000B3F5006F09D2FA2202FB03F32B60019A2E
:104B600023689A420AD103B030BDA3F58053C3EB4A
:104B7000431203EB82035B002B60F0E7FCF730FC91
:104B800000080020000000000000000000000000FD
:104B9000F0B5DFF860C083B0DCF800400194D708BE
:104BA0004FF0FF348F421C6017D23C1902F007020D
:104BB00020443E4610F8015FBE4203BF1541EDB2EE
:104BC0001446002415F0010F0ED10134082C4FEAD1
:104BD0005505F7D10136B142ECD1019ADCF800302D
:104BE0009A4205D103B0F0BD04EBC6041C60F4E7A3
:104BF000FCF7F6FB000800200000000000000000A9
:104C00002DE9F04F87B0354CDDF84C802468129EBA
:104C100005941F46149B01900296DDE9105B0093FA
:104C2000B8F1000F33D08A46914600241AE003EB16
:104C30000B0292092A4951F82220003218BF0122A2
:104C4000524518D1DA08954207D9B85C03F007013C
:104C5000012606FA01F10143B9540134A04503F1DC
:104C6000010614D002AB324629464846FFF790FFB2
:104C7000029B5A1CDBD1009B6FF031001E60174B6A
:104C8000059A1B689A4227D107B0BDE8F08F009BB8
:104C900001981E603A460623B02102F0E1F8002890
:104CA000EDD1019803AA0623B02102F0F9F8002DF6
:104CB000E5D09DF80C203B789A420AD13D4403ABE5
:104CC0000137AF42DBD017F8012B13F8011F9142D7
:104CD000F7D06FF03100D2E7FCF782FB000800202C
:104CE000240B002000000000000000000000000075
:104CF000F0B51D4D90F830612B6889B00F46C02289
:104D000001210446079302F0EBF828B1079A2B68BB
:104D10009A4226D109B0F0BD69462046FFF728FD2A
:104D20000028F3D10122FF21204602F0D9F8002803
:104D3000ECD13A46B621204602F04AF90028E5D1E6
:104D40000246FF21204602F0CBF80028DED1324691
:104D50000121204602F0C4F80028D7D184F8306140
:104D6000D4E7FCF73DFB00BF000800200000000076
:104D7000F0B52F4E89B00F461546336807930122D0
:104D8000FF21044602F0ACF8A8B30021C4F82411B6
:104D9000A4F828116DB327488368012203B306A83D
:104DA000B4220623CDE90032CDE90217049004F5C0
:104DB000927304F5957229462046FFF721FF30B91A
:104DC000012384F8137184F8145184F81531079A7B
:104DD00033689A422AD109B0F0BD2C290A46DED0A8
:104DE00002F1B5039B09511C50F82330002BF4D07D
:104DF000D5E72946D3E702464F21204602F070F856
:104E00000028C2D12C224E21204602F069F8024629
:104E10000028BAD1FF21204602F062F80028B4D160
:104E2000B422B621204602F05BF8AEE7FCF7D8FAD0
:104E300000080020240B00200000000000000000FB
:104E400030B5164C83B041F0010223680193002174
:104E5000054602F045F8024630B1019923689942AF
:104E6000104619D103B030BD284600F0A1FB024620
:104E70000028F2D101462846FFF742FC02460028EE
:104E8000EBD101992368994206D12846114603B017
:104E9000BDE8304002F024B8FCF7A2FA0008002078
:104EA0002DE9F04F87B03F4F109C039400263C68DB
:104EB00002928A460122FF210546019305948DF84E
:104EC0001360DDF844809DF848B09DF84C9002F0E6
:104ED00007F8324604463146284602F001F83246C9
:104EE0000443FF21284601F0FBFF64B2044364B28F
:104EF000BAF1000F27D0BBF1000F33D1B9F1000F89
:104F00003AD10122FF21284601F0EAFF01220443A1
:104F10000021284601F0E4FF64B200220443FF218F
:104F2000284601F0DDFF9DF81330059A23F01003A9
:104F300088F800303B6864B220439A4240B22FD1D7
:104F400007B0BDE8F08FBBF1000F1ED1B9F1000F23
:104F5000D7D0019B8022EE21284601F0F1FF0443C7
:104F600064B2CEE7039ACB21284602F019F8044335
:104F700064B2B9F1000FC4D00DF11302EE2128463E
:104F800002F00EF8044364B2BBE7029ACB21284634
:104F900001F0A6FF044364B2B9F1000FB1D0D8E725
:104FA000FCF71EFA000800200000000000000000CE
:104FB0002DE9F0472A4F86B03C6805940024054649
:104FC000884691468DF813401E469BB1012290F809
:104FD00030A11146284601F083FF044698B1002312
:104FE00088F80030059A3B689A42204635D106B0D1
:104FF000BDE8F0870122114628469A4601F070FF6D
:1050000004460028EBD140212846FFF719FF04464B
:105010000028E4D1B9F1010F0ED088F80000002E6D
:10502000E0D052460121284601F05AFF04460028EC
:10503000D8D185F830A1D5E70DF11303CDE9029061
:10504000019302460346CDF8008049462846FFF703
:1050500027FF0028E3D00446C4E7FCF7C1F900BFEE
:105060000008002000000000000000000000000018
:105070002DE9F047254F86B03C68059405468846E3
:1050800091461E469BB190F830A10222012128468C
:1050900001F026FF044660B1002388F80030059A2D
:1050A0003B689A4220462ED106B0BDE8F0879A466A
:1050B000EBE701462846FFF7C3FE04460028EBD184
:1050C000B9F1010F0ED088F80000002EE7D052464B
:1050D0000121284601F004FF04460028DFD185F8AD
:1050E00030A1DCE70DF11303CDE90209009302467C
:1050F0000346CDF8048049462846FFF7D1FE002834
:10510000E3D00446CBE7FCF76BF900BF00080020B2
:105110002DE9F041144C90F8307182B01E4623689E
:1051200001939046002332460546FFF741FF30B118
:10513000019A23689A4214D102B0BDE8F081034677
:10514000324641462846FFF793FF0028F0D13A4601
:105150000121284601F0C4FE0028E9D185F830710C
:10516000E6E7FCF73DF900BF000800200000000062
:105170002DE9F04FDFF8B0A2B0F83C71DAF800404A
:1051800095B00023CDE90912C0F82431A0F82831E8
:105190000122FF2106461394CDE90F338DF83830F4
:1051A0008DF8393001F09CFE054648B1139ADAF8C3
:1051B00000309A42284640F0318115B0BDE8F08FAA
:1051C00002464F21304601F08BFE05460028EDD106
:1051D0002C224E21304601F083FE05460028E5D101
:1051E0000246FF21304601F07BFE05460028DDD156
:1051F000B422B621304601F073FE05460028D5D111
:1052000002468021304601F06BFE05460028CDD1D4
:1052100003460DF139020EA93046FFF779FF054626
:105220000028C3D10DF1500B06F595734BF8140D02
:105230000320039006F592780620B4240D9302957E
:1052400029461A46CDE90004CDF810B04346304651
:10525000FFF7D6FC05460028A8D10DF13A013046EB
:105260000F9CFFF745FD054600289FD1BDF83A3059
:10527000BB4230D904F1B4039B096A4951F8232099
:105280000023C6F82431A6F82831002A40F0BF8058
:105290002B2C03D9BBE02C2A144607D004F1B5030C
:1052A0009B09621C51F82330002BF4D0B421062353
:1052B0004FF00309CDE90031CDE90229CDF810B056
:1052C00043460D9A01213046FFF79AFC002800F072
:1052D0008D8005466AE700220C9291460792BB42F8
:1052E00066D2DB1B002BB8BF5B42B8F80420D8F8AD
:1052F000000008930B959DF81C300D9DADF84820DB
:1053000011900C934FF0030B224610AB0621284658
:10531000FFF73EFC109C631C10D004F1B403414A1B
:105320009B0952F82330079A003318BF0123934298
:1053300059D1E308052B0BF1010902D96FF03105B2
:1053400034E718F8031004F00702012000FA02F213
:105350000A4308F80320B0210623424630460134B0
:1053600001F07EFD0028B4D10DF13A013046FFF77F
:10537000BFFC0028ADD1BDF83A20D31B002BB8BF2D
:105380005B42BA4225D9089A0B9D934210D9062355
:1053900011AAB021304601F063FDBDF84820034654
:1053A0001198C6F82401D946A8F80420002B37D15B
:1053B000099A0A999DF83040C2F8009001230C70B8
:1053C00086F81531136886F813310B7886F8143196
:1053D000ECE6D8F80000B8F8042011900893CB460A
:1053E000ADF8482090E70B9DD946E1E70DF13A0171
:1053F00030460F9CFFF77CFC00287FF46AAFBDF8B5
:105400003A30BB4205D901220C92079267E7224647
:105410004CE701220C908146079260E7FBF7E0FF22
:105420001D46C3E6240B00200008002000000000F9
:1054300010B50E4982B00B680193013830F0FF03BC
:1054400009D000234008013320F0FF029BB2002A5C
:10545000F8D11B029BB2019C0A681844944280B2A6
:1054600001D102B010BDFBF7BBFF00BF0008002058
:105470002DE9F0434B4E85B033680393032917465B
:10548000054657D0042940F0878001A9FEF710FC9B
:105490009DF8070078BB80460DF101094A460121BD
:1054A0002846FEF775FB0446E8B99DF801203E4BFF
:1054B0003E4803FB02F303F5FA73A0FB0323DA096A
:1054C0004FF47A709B0900FB0720B0FBF3F010EB60
:1054D00008005DD102467121284601F019FD0446FD
:1054E00008B9C5F8DC70039A33689A42204656D151
:1054F00005B0BDE8F0830DF101094A4600212846B8
:10550000FEF746FB04460028EDD10DF102025121C1
:10551000284601F05DFDBDF802305FFA83F81B0AF2
:1055200008FA03F808F101081FFA88F80446002871
:10553000B4D0D8E70DF101020021FEF729FB9DF858
:105540000120194B044603FB02F3184803F5FA73D4
:10555000A0FB0323DA094FF47A709B0900FB0720B4
:10556000B0FBF3F080B280B9ADF80200A5F8D80026
:10557000002CB8D102465121284601F0C9FC04464E
:105580000028B0D1C5F8E470ADE7FFF751FFEBE7B5
:10559000FFF74EFF02469EE76FF00304A3E7FBF719
:1055A0001FFF00BF00080020002F3A00D34D6210FB
:1055B000F0B5134F83B002AE00223B6806F8052D0C
:1055C000054601934FF4FA6408E09DF80330012B7F
:1055D0000AD0013C0ED0284601F02AFD314628466B
:1055E000FEF766FE0028F0D0019A3B689A4204D18B
:1055F00003B0F0BD6FF00600F6E7FBF7F1FE00BF69
:105600000008002000000000000000000000000072
:10561000F0B5174F83B03B68019300228321064603
:1056200001F05EFC044680B94FF4FA6502E060B90F
:10563000013D17D00DF103028321304601F0B0FC8B
:105640009DF803300446002BF1D00122304683211F
:1056500001F046FC019A3B6820439A4240B204D1D3
:1056600003B0F0BD6FF00604EFE7FBF7B9FE00BF33
:105670000008002000000000000000000000000002
:105680002DE9F04FDFF8B48590F8F060D8F80030DD
:1056900091B04FF0000B072E0F93CDE906BB0AD156
:1056A0005C460F9AD8F800309A42204640F0C482F7
:1056B00011B0BDE8F08F0F4601228021054601F0B0
:1056C0000FFC01228146FF21284601F009FC5A46C1
:1056D00049EA00095946284601F002FC4FFA89F9C7
:1056E000062249EA0009FF21284601F0F9FB4FFA9A
:1056F00089F949EA00090DF111028321284601F0D8
:105700004FFC9DF811204FFA89F949EA000942F04F
:1057100004028321284601F0E3FB4FFA89F90722AE
:1057200049EA0009FF21284601F0DAFB4FFA89F91E
:105730000122812149EA0009284601F0D1FB4FFAF4
:1057400089F949EA0009284601F072FC4FFA89F903
:1057500049EA000901228021284601F0C1FB4FFAE5
:1057600089F949EA000017F0010A44B213D0F3079F
:1057700040F1FE8117F00203CDE901BB009310D187
:1057800017F0040B00F0EA80700740F16B810023F2
:1057900003939946E5E0CDE901AA17F002030093CF
:1057A000EED016F00209EBD102229421284601F036
:1057B00097FB83462846FFF72BFF4BEA0000044384
:1057C0000DF112029021284601F0EAFB64B27B221F
:1057D00094210443284601F083FB64B20443284625
:1057E000FFF716FF64B20DF113020443902128461F
:1057F00001F0D6FB64B2772294210443284601F0DD
:105800006FFB64B204432846FFF702FF64B204430F
:1058100005AA9021284601F0F3FB059B64B2DA004B
:10582000C3F38641044302F07802C3F3C6204FEA73
:10583000536C8DF81120C3F3061378228DF82910CC
:105840008DF82A00942128468DF828C08DF82B3039
:1058500001F046FB64B204432846FFF7D9FE64B268
:1058600005AA04439021284601F0CAFB059B9DF838
:1058700011C0990101F0400164B2C3F386520443A0
:105880008DF81110C3F30620C3F3C6310CEB537C23
:105890008DF82D20C3F3460379228DF82E108DF854
:1058A0002F00942128468DF82CC08DF8303001F05F
:1058B00017FB64B204432846FFF7AAFE64B205AAA8
:1058C00004439021284601F09BFB059B9DF8112085
:1058D00064B202EB9362C3F3C6414FEA830C044304
:1058E000C3F306300CF07C0CC3F346138DF8312063
:1058F0008DF832107A2294218DF8330028468DF8E5
:1059000011C08DF8343001F0EBFA64B2044328463C
:10591000FFF77EFE64B205AA04439021284601F0F9
:105920006FFB059B9DF811208DF83A9064B202EB55
:105930009372C3F3C65EC3F3064CC3F3462104431C
:10594000C3F3860364B28DF835208DF836E08DF808
:1059500037C08DF838108DF8393011E7CDF80CB01C
:10596000D94600228121284601F0BAFA06220443D2
:10597000FF21284601F0B4FA64B20DF1110204438C
:105980008321284601F00CFB9DF8112064B20443EA
:1059900002F0FB028321284601F0A2FA64B2012240
:1059A0000443FF21284601F09BFA64B2012204431C
:1059B0000021284601F094FA64B200220443FF213A
:1059C000284601F08DFA64B2044300228021284663
:1059D00001F086FA64B2044364B2002C7FF461AE35
:1059E000BAF1000F14D0F10712D49DF8043085F8F5
:1059F00013319DF8083085F8143108A905F5957222
:105A000005F5987C11F8013B02F8013B6245F9D19C
:105A1000009B73B1B2070CD49DF812109DF81320AF
:105A200085F8F11085F8F2200AA905F1F3000AF0D3
:105A30002FFDBBF1000F11D073070FD4039B069A03
:105A4000C5F818215B02C5F82031079BC5F81C3149
:105A5000B9F1000F40F0E3804B46EB603E4385F820
:105A6000F0601EE67B229421284601F039FA814637
:105A70002846FFF7CDFD49EA0000044306AA90211D
:105A8000284601F0BDFA64B27C22942104432846E2
:105A900001F026FA64B204432846FFF7B9FD64B268
:105AA00007AA04439021284601F0AAFA64B273229F
:105AB00094210443284601F013FA64B204432846B3
:105AC000FFF7A6FD64B2044305AA9021284601F021
:105AD00097FA059A64B2130294217422044328466B
