:020000040800F2
:1000000000040020C1010008C1810008C18100086E
:1000100021350008C1810008C1810008C1810008A4
:10002000C1810008C1810008C181000881A30008C6
:10003000C1810008C1810008C181000821FA0008BF
:10004000C181000841D00008D1D1000821D20008A8
:10005000C1810008C181000881CD0008D1CD000810
:1000600021CE000871CE0008C1CE0008C1C2000830
:1000700011C3000861C30008B1C3000801C400082F
:1000800051C40008A1C40008F1CB0008C1D3000886
:1000900031D40008E1D4000891D5000811CF000840
:1000A000C1810008C181000881F40008C1810008F5
:1000B000E1F5000821F6000861F6000851E30008A8
:1000C00091E40008C1810008C1810008C1810008D5
:1000D000C1810008C1810008C1810008E1FA00085F
:1000E000A1CF000891D00008E1D00008C18100082C
:1000F000C1810008C1F40008C1810008F1C40008F2
:10010000C181000821D70008A1F60008C1810008BC
:10011000C1810008C181000841F40008C1810008C4
:1001200041C5000891C50008E1C5000831C60008B6
:1001300081C60008C181000831D10008C1810008D2
:10014000C1810008C1810008C181000881F0000858
:10015000D1C6000821C7000871C70008C181000886
:10016000C1810008C1810008C1810008C181000867
:1001700081D10008C181000831190008C18100083F
:10018000C1810008C1810008C1810008C181000847
:10019000C1810008C1810008C1810008C181000837
:1001A000C1810008C1810008C1810008C181000827
:1001B000C1810008C1810008C1810008C181000817
:1001C00072B62E4880F3098840F20000CCF200009D
:1001D0004EF63471CEF20001086040F20000C0F229
:1001E000F0004EF68851CEF2000108604FF000009A
:1001F000E1EE100A4EF63C71CEF2000108600620D6
:1002000080F31488BFF36F8F0FF0B2FD4FF05530BD
:100210001B491C4A91423CBF41F8040BFAE71A49BA
:10022000164A91423CBF41F8040BFAE71749184AB5
:10023000184B9A423EBF51F8040B42F8040BF8E702
:1002400000201549154A91423CBF41F8040BFAE7DA
:1002500007F09EFF124C134DAC4203DA54F8041B16
:100260008847F9E701F06CF80F4C104DAC4203DA07
:1002700054F8041B8847F9E707F09ABF00080020EC
:10028000000000200004002000040020784D010838
:1002900000080020CC140020D01400208831002059
:1002A000C0010008C0010008C0010008C00100082A
:1002B0002DE9F04F2DED108AC1F80CD0D0F80CD0FC
:1002C000BDEC108ABDE8F08F08F0BAF809F0F0F83C
:1002D000002383F311882846A047002008F088FEF9
:1002E00009F0CEF808F08CF808F0AAFC08F0A8F89D
:1002F00009F0DEF800DFFEE700000000000000006B
:1003000081F0004102E000BF83F0004330B54FEAC6
:1003100041044FEA430594EA050F08BF90EA020F33
:100320001FBF54EA000C55EA020C7FEA645C7FEAC6
:10033000655C00F0E2804FEA5454D4EB5555B8BFE9
:100340006D420CDD2C4480EA020281EA030382EA5A
:10035000000083EA010180EA020281EA0303362DEC
:1003600088BF30BD11F0004F4FEA01314FF4801CBF
:100370004CEA113102D0404261EB410113F0004FD1
:100380004FEA03334CEA133302D0524263EB430388
:1003900094EA050F00F0A780A4F10104D5F1200E26
:1003A0000DDB02FA0EFC22FA05F2801841F1000181
:1003B00003FA0EF2801843FA05F359410EE0A5F155
:1003C00020050EF1200E012A03FA0EFC28BF4CF086
:1003D000020C43FA05F3C01851EBE37101F000453C
:1003E00007D54FF0000EDCF1000C7EEB00006EEB49
:1003F0000101B1F5801F1BD3B1F5001F0CD34908D3
:100400005FEA30004FEA3C0C04F101044FEA445229
:1004100012F5800F80F09A80BCF1004F08BF5FEAB0
:10042000500C50F1000041EB045141EA050130BD90
:100430005FEA4C0C404141EB010111F4801FA4F133
:100440000104E9D191F0000F04BF01460020B1FA88
:1004500081F308BF2033A3F10B03B3F120020CDAC0
:100460000C3208DD02F1140CC2F10C0201FA0CF09E
:1004700021FA02F10CE002F11402D8BFC2F1200C03
:1004800001FA02F120FA0CFCDCBF41EA0C019040B9
:10049000E41AA2BF01EB0451294330BD6FEA040402
:1004A0001F3C1CDA0C340EDC04F11404C4F12002ED
:1004B00020FA04F001FA02F340EA030021FA04F3FF
:1004C00045EA030130BDC4F10C04C4F1200220FA56
:1004D00002F001FA04F340EA0300294630BD21FA94
:1004E00004F0294630BD94F0000F83F4801306BF5A
:1004F00081F480110134013D4EE77FEA645C18BF4E
:100500007FEA655C29D094EA050F08BF90EA020FE4
:1005100005D054EA000C04BF1946104630BD91EADC
:10052000030F1EBF0021002030BD5FEA545C05D1DF
:100530004000494128BF41F0004130BD14F580041E
:100540003CBF01F5801130BD01F0004545F0FE4192
:1005500041F470014FF0000030BD7FEA645C1ABFC7
:10056000194610467FEA655C1CBF0B46024650EAFE
:10057000013406BF52EA033591EA030F41F400212A
:1005800030BD00BF90F0000F04BF0021704730B5B0
:100590004FF4806404F132044FF000054FF0000185
:1005A00050E700BF90F0000F04BF0021704730B546
:1005B0004FF4806404F1320410F0004548BF40421B
:1005C0004FF000013EE700BF42004FEAE2014FEA70
:1005D00031014FEA02701FBF12F07F4393F07F4F4B
:1005E00081F06051704732F07F4208BF704793F04E
:1005F0007F4F04BF41F40021704730B54FF4607461
:1006000001F0004521F000411CE700BF50EA010263
:1006100008BF704730B54FF000050AE050EA01020C
:1006200008BF704730B511F0004502D5404261EB7C
:1006300041014FF4806404F132045FEA915C3FF4BD
:10064000D8AE4FF003025FEADC0C18BF03325FEA5A
:10065000DC0C18BF033202EBDC02C2F1200300FA0B
:1006600003FC20FA02F001FA03FE40EA0E0021FA30
:1006700002F11444BDE600BF0000000000000000CD
:1006800070B54FF0FF0C4CF4E06C1CEA11541DBF28
:100690001CEA135594EA0C0F95EA0C0F00F0DEF8F3
:1006A0002C4481EA030621EA4C5123EA4C5350EAD8
:1006B000013518BF52EA033541F4801143F4801329
:1006C00038D0A0FB02CE4FF00005E1FB02E506F0BA
:1006D0000042E0FB03E54FF00006E1FB03569CF00F
:1006E000000F18BF4EF0010EA4F1FF04B6F5007F15
:1006F00064F5407404D25FEA4E0E6D4146EB060687
:1007000042EAC62141EA55514FEAC52040EA5E500F
:100710004FEACE2EB4F1FD0C88BFBCF5E06F1ED8B9
:10072000BEF1004F08BF5FEA500E50F1000041EBF0
:10073000045170BD06F0004646EA010140EA02009D
:1007400081EA0301B4EB5C04C2BFD4EB0C0541EABF
:10075000045170BD41F480114FF0000E013C00F3D4
:10076000AB8014F1360FDEBF002001F0004170BDF8
:10077000C4F10004203C35DA0C341BDC04F1140411
:10078000C4F1200500FA05F320FA04F001FA05F29D
:1007900040EA020001F0004221F0004110EBD3706A
:1007A00021FA04F642EB06015EEA430E08BF20EA96
:1007B000D37070BDC4F10C04C4F1200500FA04F339
:1007C00020FA05F001FA04F240EA020001F00041CB
:1007D00010EBD37041F100015EEA430E08BF20EA3E
:1007E000D37070BDC4F1200500FA05F24EEA020E86
:1007F00020FA04F301FA05F243EA020321FA04F0B5
:1008000001F0004121FA04F220EA020000EBD3706B
:100810005EEA430E08BF20EAD37070BD94F0000F6B
:100820000FD101F00046400041EB010111F4801F9F
:1008300008BF013CF7D041EA060195F0000F18BF50
:10084000704703F00046520043EB030313F4801F8C
:1008500008BF013DF7D043EA0603704794EA0C0F46
:100860000CEA135518BF95EA0C0F0CD050EA41065C
:1008700018BF52EA4306D1D181EA030101F00041D9
:100880004FF0000070BD50EA410606BF1046194601
:1008900052EA430619D094EA0C0F02D150EA01360D
:1008A00013D195EA0C0F05D152EA03361CBF10464E
:1008B00019460AD181EA030101F0004141F0FE41ED
:1008C00041F470014FF0000070BD41F0FE4141F471
:1008D000780170BD70B54FF0FF0C4CF4E06C1CEA71
:1008E00011541DBF1CEA135594EA0C0F95EA0C0F26
:1008F00000F0A7F8A4EB050481EA030E52EA0335E1
:100900004FEA013100F088804FEA03334FF0805501
:1009100045EA131343EA12634FEA022245EA11152E
:1009200045EA10654FEA00260EF000419D4208BFDF
:10093000964244F1FD0404F5407402D25B084FEA8C
:100940003202B61A65EB03055B084FEA32024FF438
:1009500080104FF4002CB6EB020E75EB030E22BF95
:10096000B61A754640EA0C005B084FEA3202B6EB55
:10097000020E75EB030E22BFB61A754640EA5C0004
:100980005B084FEA3202B6EB020E75EB030E22BF94
:10099000B61A754640EA9C005B084FEA3202B6EB95
:1009A000020E75EB030E22BFB61A754640EADC0054
:1009B00055EA060E18D04FEA051545EA16754FEAB6
:1009C00006164FEAC30343EA52734FEAC2025FEAD4
:1009D0001C1CC0D111F4801F0BD141EA00014FF063
:1009E00000004FF0004CB6E711F4801F04BF014334
:1009F0000020B4F1FD0C88BFBCF5E06F3FF6AFAE50
:100A0000B5EB030C04BFB6EB020C5FEA500C50F1DF
:100A1000000041EB045170BD0EF0004E4EEA113162
:100A200014EB5C04C2BFD4EB0C0541EA045170BD69
:100A300041F480114FF0000E013C90E645EA060EAD
:100A40008DE60CEA135594EA0C0F08BF95EA0C0FDB
:100A50003FF43BAF94EA0C0F0AD150EA01347FF423
:100A600034AF95EA0C0F7FF425AF104619462CE7FA
:100A700095EA0C0F06D152EA03353FF4FDAE10465D
:100A8000194622E750EA410618BF52EA43067FF4AE
:100A9000C5AE50EA41047FF40DAF52EA43057FF43E
:100AA000EBAE12E7000000000000000000000000B4
:100AB0004FEA410212F5001215D211D56FF4787386
:100AC000B3EB625212D94FEAC12343F0004343EA29
:100AD000505311F0004F23FA02F018BF4042704704
:100AE0004FF00000704750EA013005D111F000408E
:100AF00008BF6FF0004070474FF00000704700BF24
:100B00004FEA4102B2F1E04324BFB3F5001CDCF12F
:100B1000FE5C0DD901F0004C4FEAC0024CEA507067
:100B2000B2F1004F40EB830008BF20F00100704796
:100B300011F0804F21D113F13872BCBF01F0004099
:100B4000704741F480114FEA5252C2F11802C2F1CB
:100B5000200C10FA0CF320FA02F018BF40F001004C
:100B60004FEAC1234FEAD32303FA0CFC40EA0C00FE
:100B700023FA02F34FEA4303CCE77FEA625307D13B
:100B800050EA01331EBF4FF0FE4040F44000704772
:100B900001F0004040F0FE4040F40000704700BF0C
:100BA00053B94AB9002908BF00281CBF4FF0FF31D4
:100BB0004FF0FF3000F074B9ADF1080C6DE904CED0
:100BC00000F006F8DDF804E0DDE9022304B0704728
:100BD0002DE9F047089E04468846002B4BD18A42F7
:100BE000154667D9B2FA82F24AB1C2F1200701FA7A
:100BF00002F320FA07F7954047EA030894404FEACA
:100C0000154E230CB8FBFEF71FFA85FC0EFB178868
:100C100043EA084307FB0CF1994209D9EB1807F1A5
:100C2000FF3080F01B81994240F21881023F2B4433
:100C30005B1AA4B2B3FBFEF00EFB103344EA03448C
:100C400000FB0CFCA44509D92C1900F1FF3380F0FE
:100C50000781A44540F2048102382C4440EA074051
:100C6000A4EB0C0400271EB1D4400023C6E90043C6
:100C70003946BDE8F0878B4209D9002E00F0EB80A1
:100C80000027C6E9000138463946BDE8F087B3FAC7
:100C900083F7002F47D18B4202D3824200F2FA80C1
:100CA000841A61EB030301209846002EE0D0C6E9C8
:100CB0000048DDE702B9FFDEB2FA82F2002A40F016
:100CC0008F80491B4FEA154E1FFA85F80127B1FBAB
:100CD000FEFC230C0EFB1C1143EA014308FB0CF144
:100CE000994207D9EB180CF1FF3002D2994200F279
:100CF000CD808446591AA3B2B1FBFEF00EFB10144E
:100D000043EA044408FB00F8A04507D92C1900F178
:100D1000FF3302D2A04500F2B6801846A4EB0804C7
:100D200040EA0C409FE7C7F1200CBB4022FA0CFEC2
:100D30004EEA030E01FA07F420FA0CF521FA0CF33F
:100D40004FEA1E482543B3FBF8F92C0C08FB193376
:100D50001FFA8EFA44EA034309FB0AF49C4202FAA2
:100D600007F200FA07F10BD91EEB030309F1FF307C
:100D700080F087809C4240F28480A9F1020973448C
:100D80001B1BADB2B3FBF8F008FB103345EA03447C
:100D900000FB0AFAA24508D91EEB040400F1FF3358
:100DA0006BD2A24569D90238744440EA0940A0FBDD
:100DB0000289A4EB0A044C45C2464B4654D351D099
:100DC000002E69D0B1EB0A0564EB030404FA0CFCB5
:100DD000FD40FC404CEA0505C6E90054002747E702
:100DE000C2F1200320FA03F7954001FA02F021FA3C
:100DF00003F34FEA154E3843010CB3FBFEF71FFA1D
:100E000085F80EFB173341EA034107FB08F38B42D9
:100E100004FA02F407D9691807F1FF3C2FD28B427C
:100E20002DD9023F2944CB1A81B2B3FBFEF00EFB51
:100E3000103341EA034100FB08F38B4207D96918DC
:100E400000F1FF3C17D28B4215D902382944C91A48
:100E500040EA07473BE73746304609E70746E7E6FB
:100E60001846FBE64145ABD2B8EB020A69EB0E022D
:100E700001381346A4E76046E9E7184695E7674658
:100E8000D1E781467CE702382C4447E7ACF1020CFD
:100E90002B442FE7384608E73746E9E60000000014
:100EA000704700BF000000000000000000000000CC
:100EB000844641EA000313F003036DD1403A41D365
:100EC00051F8043B40F8043B51F8043B40F8043B24
:100ED00051F8043B40F8043B51F8043B40F8043B14
:100EE00051F8043B40F8043B51F8043B40F8043B04
:100EF00051F8043B40F8043B51F8043B40F8043BF4
:100F000051F8043B40F8043B51F8043B40F8043BE3
:100F100051F8043B40F8043B51F8043B40F8043BD3
:100F200051F8043B40F8043B51F8043B40F8043BC3
:100F300051F8043B40F8043B51F8043B40F8043BB3
:100F4000403ABDD2303211D351F8043B40F8043B53
:100F500051F8043B40F8043B51F8043B40F8043B93
:100F600051F8043B40F8043B103AEDD20C3205D363
:100F700051F8043B40F8043B043AF9D2043208D05B
:100F8000D2071CBF11F8013B00F8013B01D30B88CD
:100F900003806046704700BF082A13D38B078DD0AB
:100FA00010F003038AD0C3F10403D21ADB071CBF7D
:100FB00011F8013B00F8013B80D331F8023B20F8E7
:100FC000023B7BE7043AD9D3013A11F8013B00F820
:100FD000013BF9D20B7803704B7843708B788370A8
:100FE00060467047000000000000000000000000A4
:100FF00090F800F06DE9024520F007016FF0000C59
:1010000010F0070491F820F040F049804FF0000400
:101010006FF00700D1E9002391F840F000F10800DB
:1010200082FA4CF2A4FA8CF283FA4CF3A2FA8CF313
:101030004BBBD1E9022382FA4CF200F10800A4FA7A
:101040008CF283FA4CF3A2FA8CF3E3B9D1E90423CE
:1010500082FA4CF200F10800A4FA8CF283FA4CF305
:10106000A2FA8CF37BB9D1E9062301F1200182FABF
:101070004CF200F10800A4FA8CF283FA4CF3A2FAC5
:101080008CF3002BC6D0002A04BF04301A4612BAD3
:10109000B2FA82F2FDE8024500EBD2007047D1E9D6
:1010A000002304F00305C4F100004FEAC50514F065
:1010B000040F91F840F00CFA05F562EA05021CBF36
:1010C00063EA050362464FF00004A9E70000000050
:1010D00001F0FF01102A2BDB10F0070F08D010F8E9
:1010E000013B013A8B422DD010F0070F42B3F6D1ED
:1010F000F0B441EA012141EA014122F007047FF006
:1011000000070023F0E80256083C85EA010586EA5C
:10111000010685FA47F5A3FA87F586FA47F6A5FA98
:1011200087F68EB9EED1F0BC01F0FF0102F00702A4
:1011300032B110F8013B013A83EA010313B1F8D14F
:101140000020704701387047002D06BF3546033830
:10115000073815F0010F07D1013015F4807F02BF69
:10116000013015F4C03F0130F0BC0138704700BFBA
:101170004FF0FF3C06E000BF4FF0010C02E000BF63
:101180004FF0010C4DF804CD4FEA410C7FEA6C5C46
:101190004FEA430C18BF7FEA6C5C1BD001B050EAE9
:1011A000410C0CBF52EA430C91EA030F02BF90EAD4
:1011B000020F0020704710F1000F91EA030F58BF93
:1011C000994208BF90422CBFD8176FEAE37040F0F5
:1011D000010070474FEA410C7FEA6C5C02D150EA93
:1011E000013C07D14FEA430C7FEA6C5CD6D152EA4E
:1011F000033CD3D05DF8040B704700BF8446104613
:1012000062468C461946634600E000BF01B5FFF711
:10121000B7FF002848BF10F1000F01BD4DF808EDE1
:10122000FFF7F4FF0CBF012000205DF808FB00BFB2
:101230004DF808EDFFF7EAFF34BF012000205DF80C
:1012400008FB00BF4DF808EDFFF7E0FF94BF012059
:1012500000205DF808FB00BF4DF808EDFFF7CEFF5A
:1012600094BF012000205DF808FB00BF4DF808ED99
:10127000FFF7C4FF34BF012000205DF808FB00BF6A
:101280004FEA410C7FEA6C5C02D150EA013C0AD182
:101290004FEA430C7FEA6C5C02D152EA033C02D174
:1012A0004FF0000070474FF0010070470000000051
:1012B000F0B5204F83B006463B68019302F008F971
:1012C000002E28DB002500240121E0B202F060F8A6
:1012D0000134C82007F0CCFD02F0FAF8042CF3D159
:1012E00001356DB2B542EEDD0024012002F0A8F810
:1012F000002002F0C5F8C82007F0BAFD002002F077
:101300009FF80134012002F0BBF864B2C82007F056
:10131000AFFDB442E9DD002002F0B2F8019A3B686B
:101320009A4204D103B0BDE8F04002F0D1B800F019
:1013300037F800BF00080020000000000000000097
:1013400000B5114B83B01B68019309F079F806F0E2
:101350004FFF0E4A0E490F4806F06AFE02F0C0FB2E
:1013600003F0F6F806F024FE02F0A2FE02F0D8FE2A
:1013700000F036FB0120FFF79BFF40F624100FF032
:1013800037FB00F085FAFCE7000800200408002085
:101390000C080020D0140020000000000000000015
:1013A00000B5084B83B01A680192019A1B689A42F3
:1013B00005D1054803B05DF804EB06F081BFFFF7E7
:1013C000EFFF00BF00080020303E010800000000D1
:1013D00030B5094C83B023680193054602F008FB41
:1013E000019A23689A4205D1284603B0BDE83040EF
:1013F00002F0E6BAFFF7D4FF00080020000000006A
:1014000070B52DED028B1A4E9FED1A8A336882B0AB
:1014100004460020019302F04BFB0020654202F0DD
:101420002FFB10E002F014FB07EE900AF8EEE77ACB
:10143000F4EEC87AF1EE10FA10D5284602F0D8FA88
:10144000204602F0BDFA02F0EBFA07EE900AF8EE41
:10145000E77AF4EEC87AF1EE10FAE3D4019A336831
:101460009A4203D102B0BDEC028B70BDFFF798FF2A
:101470000008002092DFA3430000000000000000ED
:1014800070B52DED028B1A4E9FED1A8A336882B02B
:1014900004460020019302F00BFB0020654202F09D
:1014A000EFFA10E002F0D4FA07EE900AF8EEE77ACD
:1014B000F4EEC87AF1EE10FA10D5204602F098FA50
:1014C000284602F07DFA02F0ABFA07EE900AF8EE39
:1014D000E77AF4EEC87AF1EE10FAE3D4019A3368B1
:1014E0009A4203D102B0BDEC028B70BDFFF758FFEA
:1014F0000008002092DFA34300000000000000006D
:1015000070B52DED028B1A4E9FED1A8A336882B0AA
:1015100004460020019302F0CBFA0020654202F05D
:10152000AFFA10E002F094FA07EE900AF8EEE77ACC
:10153000F4EEC87AF1EE10FA10D5204602F058FA0F
:10154000284602F03DFA02F06BFA07EE900AF8EE38
:10155000E77AF4EEC87AF1EE10FAE3D4019A336830
:101560009A4203D102B0BDEC028B70BDFFF718FFA9
:101570000008002092DF234400000000000000006B
:1015800010B5094C82B023680193002002F018FACC
:10159000019A23689A4205D1002002B0BDE81040AC
:1015A00002F026BAFFF7FCFE000800200000000051
:1015B0000EB410B583B005AA094C52F8041B236879
:1015C0000848009201930EF02BFC019A23689A427E
:1015D00004D103B0BDE8104003B07047FFF7E0FE50
:1015E00000080020FC2F0020000000000000000088
:1015F000F0B5244C24492368244885B06422039321
:10160000FFF7D6FF00F0BCFA064600F041FA0546A7
:1016100000F03EFA1E4902461C48FFF7C9FF1D486C
:1016200080FB0530A0EBE57C45B3002318461F4640
:10163000F118F25C4978033302F03E0201F03E01FA
:101640009D4208441744F3D8B7FBFCF5B0FBFCF00F
:10165000002300902A4610490C48FFF7A9FF642296
:101660000E490A48FFF7A4FF039A23689A4207D15C
:101670000A2005B0BDE8F04007F0FABB2846E7E7CE
:10168000FFF78EFE00080020503E0108FC2F0020CE
:10169000683E010856555555803E0108983E0108A0
:1016A00030B5144C83B023680193054601F010FF58
:1016B0000121084601F06CFE0121022001F068FEC4
:1016C0000121032001F064FE019A23689A420ED1A1
:1016D0004FF47A7000FB05F0074B00F2E730A3FBF4
:1016E0000030800903B0BDE8304007F0C1BBFFF710
:1016F00057FE00BF00080020D34D6210000000001C
:1017000070B5154D82B02B680193064601F0E0FEDE
:1017100000240121E0B20C4401F03AFE042CF8D17F
:101720004FF47A740D4B04FB06F404F2E734A3FB88
:101730000434A409204607F09BFB01F0C9FE019A7E
:101740002B689A4205D1204602B0BDE8704007F0F0
:101750008FBBFFF725FE00BF00080020D34D6210AD
:101760000EB410B50A4C0B4923680B4883B00193A3
:1017700006AB1A4600930EF053FB019A23689A4277
:1017800004D103B0BDE8104003B07047FFF708FE76
:1017900000080020B03E0108FC2F002000000000DF
:1017A00070B5374D82B02B68019306F029FC35499E
:1017B000044602463448FFF7D3FF962C39DC333C0D
:1017C000622C26D9FFF7DCFE4FF4FA70FFF768FFB2
:1017D0004FF4B770FFF754FE322007F049FB06F0D4
:1017E0000FFC04464FF4B770FFF78AFE322007F073
:1017F0003FFB06F005FC064601F06AFE632C1DDC8B
:10180000632E2CDDFFF7BCFE4FF4FA7007F030FBBF
:1018100003E040F22620FFF7DBFD01F059FE019ABC
:101820002B689A422AD1C82002B0BDE8704007F068
:101830001FBB40F24C40FFF7CBFDEEE7B442E1DDC9
:101840000121032001F0A4FD4FF4B770FFF758FE0B
:10185000FFF796FE4FF4FA7007F00AFBDDE701216F
:10186000084601F095FD4FF4B770FFF7C9FDFFF78B
:1018700087FE4FF4FA7007F0FBFACEE7FFF790FD12
:1018800000080020B03E0108FC2F002000000000EE
:1018900010B5104C82B02368019302F099F9032827
:1018A00003D8DFE800F0110E0505C820FFF728FF78
:1018B000019A23689A420AD102B0BDE81040FFF7AE
:1018C0005FBEFFF795FEF3E7FFF76AFFF0E7FFF76C
:1018D00067FD00BF000800200000000000000000BD
:1018E00030B5104D81682B680F4A83B001930B68A7
:1018F00023F001030B608168946A03E0936A1B1B69
:10190000C72B09D8086810F00100F7D1019A2B689D
:101910009A4204D103B030BD4FF0FF30F6E7FFF735
:101920003FFD00BF00080020C8210020000000008B
:10193000F0B5284D83B02B68019307F069FD06F0E0
:10194000DFFD254B1E69F20715D55A69234C42F07D
:1019500001025A612778BB1F012B2AD9052263682F
:1019600022701B680BB120469847042F27D0022F06
:1019700025D003232370B30710D5174A174C53699A
:1019800043F0020353612378032B1DD06368DB68A7
:101990000622227013B101211048984706F0D8FDA5
:1019A000019A2B689A4213D103B0BDE8F04008F0C9
:1019B00007BD019A2B689A420AD103B0F0BD0223F9
:1019C0002370B307EAD5D8E72046FFF789FFDDE7A4
:1019D000FFF7E6FC0008002000000550DC140020A2
:1019E00030B5274C83B02368019301F099FB25495A
:1019F000254809F065F901220021234809F0F8F98A
:101A00004FF47A7007F034FA01F032FB01281DD050
:101A100000F056FF0128054609D000F0F9FB012827
:101A200020D0019A23689A4228D103B030BD174BC9
:101A3000187000F0D5FE019A23689A421ED12946FB
:101A4000284603B0BDE8304000F0EABE019A2368A2
:101A50000E4900209A42087010D103B0BDE8304012
:101A600001F0BEBA019A2368084902209A42087020
:101A700004D103B0BDE8304000F06ABBFFF790FC32
:101A800000080020D03E0108E02F0020F0140020C4
:101A900000B5174B174A93F90030116883B00191D4
:101AA00001995BB1012B18D0022B13680ED099421B
:101AB0004FF0000019D103B05DF804FB13689942A0
:101AC00013D103B05DF804EB01F0B2BA99420CD126
:101AD00003B05DF804EB00F07BBB1368994204D1BE
:101AE00003B05DF804EB00F0CBBEFFF759FC00BF7C
:101AF000F01400200008002000000000000000009A
:101B000010B51B4B1B4C93F90030226882B0019238
:101B1000B3B1012B21D0022B06D00020019A2368FB
:101B20009A4223D102B010BD134B1B788BB1019A9E
:101B300023689A421AD102B0BDE8104000F048BBB9
:101B4000019A23689A4211D102B0BDE8104001F019
:101B50006FBA00F03DFB4000E0E7019A23689A422B
:101B600004D102B0BDE8104000F08ABEFFF718FCB7
:101B7000F0140020000800202008002000000000D1
:101B8000F0B5124F83B03B68019300F051F8104B51
:101B900093F90030022B064606D0019A3B689A4220
:101BA000304610D103B0F0BD0A4B1C7824B1F4E7E5
:101BB000735D33550134A4B2FFF7A2FF6500ADB2E7
:101BC0008542F5D3E9E7FFF7EBFB00BF00080020F3
:101BD000F014002020080020000000000000000099
:101BE00010B50F4C0F48236882B0019307F090FDA9
:101BF0000D4807F06DFF0D4B0A481B7843B107F005
:101C0000BFFD0020019A23689A4206D102B010BDA0
:101C100007F0B6FD4FF0FF30F4E7FFF7C1FB00BF60
:101C2000000800202C08002024080020FC140020BC
:101C300070B5294B294C1878294D236882B001933F
:101C40002B7858B9012B03D0264A012310682B703A
:101C5000019A23689A423DD102B070BD012B37D062
:101C6000214E3378012B33D0204B1B78FBB9204B0E
:101C70001C4ADB6811681B681A68100307D5DA680C
:101C80008A424FF0010221D03270D868E0E71A6929
:101C90008A424FF0010208D032701869D8E71A69F9
:101CA000096891424FF00102F6D12A70F5E7FFF77B
:101CB00097FF0F4B0B49DB681B681A681203EED5C0
:101CC000DA68096891424FF00102DDD12A70DCE741
:101CD0000020BDE7FFF764FBF3140020000800209C
:101CE000F1140020F8140020F2140020F414002055
:101CF000DC140020000000000000000000000000D4
:101D000070B51C4C1C4E86B03368059305462046C2
:101D10008DF810108DF8112008F032FF2378012B78
:101D20000CD000233222CDE901322946009304AAC7
:101D30000223204608F04CFE054648B90D4808F03D
:101D40003FFF0020059A33689A4210D106B070BD5B
:101D500001F01EFA2378052B04D0064808F030FF66
:101D600028B2EFE701F0FCF901F0DAF9F5E7FFF747
:101D700017FB00BF482C00200008002000000000D6
:101D80002DE9F043224C234F87B03B68059306466C
:101D900020468DF81010904608F0F2FE2378012BB3
:101DA00023D00023B6B24FF03209CDE901390093B8
:101DB0003146012304AA204608F00AFE054648B130
:101DC00001F0E6F92378052B1AD0114808F0F8FE47
:101DD00068B20EE0CDF8009042463146012320461D
:101DE00008F066FE05460028EAD1094808F0E8FE3A
:101DF0000020059A3B689A4207D107B0BDE8F083FE
:101E000001F0AEF901F08CF9DFE7FFF7C9FA00BF86
:101E1000482C002000080020000000000000000006
:101E200030B583B002AA124C002322F8083D0546C3
:101E3000236801930A212120FFF7A2FF28B1019A0C
:101E400023689A4211D103B030BD0DF101020B217C
:101E50002120FFF795FF0028F1D19DF800209DF883
:101E6000013043EA02232B80E9E7FFF799FA00BF2C
:101E7000000800200000000000000000000000003A
:101E80002DE9F04F01F1B70505EB030BAB4F85B022
:101E9000BBF5447F3C6803944FF0000128BFABF5CD
:101EA000447BB3F5207FDDF8389001901C4602F1A9
:101EB0000A0A8DF80A10ADF808109DF83C609DF8EC
:101EC000408000F20F81B9F5F07F00F20B81B5F58B
:101ED000207F00F20D81BAF5F07F00F20C81B04551
:101EE00000F2038102AA72212120FFF749FF10BBF3
:101EF0009DF80820402E02F0CC028DF8082000F05A
:101F0000D980802E00F0CC80202E00F0B180B8F176
:101F1000400F00F0B380B8F1800F00F0D580B8F129
:101F2000200F00F0B980C5F3C70217212120FFF769
:101F3000E7FE40B238B1039A3B689A4240F0E48031
:101F400005B0BDE8F08FCBF3C70218212120FFF7C1
:101F5000D7FE40B20028EED14FEACB0303F038029F
:101F600005F007052A4332212120FFF7C9FE40B2C0
:101F70000028E0D1CAF3870219212120FFF7C0FE13
:101F800040B20028D7D1D144C9F387021A212120B9
:101F9000FFF7B6FE40B20028CDD14FEA890909F01B
:101FA0000C090AF0030249EA020203212120FFF78B
:101FB000A7FE40B20028BED10DF109023E2121202A
:101FC000FFF7DEFE0028B6D19DF8093023F00703A5
:101FD00043F008030DF10A02732121208DF8093026
:101FE000FFF7CEFE0028A6D19DF80A3003F0F803D3
:101FF00063F00F02402E8DF80A2000F09280802EB0
:1020000000F08480202E03D1B8F1200F00F09480DE
:1020100004220C212120FFF773FE40B200288AD150
:102020009DF809203E2142F010022120FFF768FEB2
:1020300040B200287FF47FAF9DF808207221212054
:10204000FFF75EFE40B200287FF475AF9DF80A20CE
:1020500073212120FFF754FE40B200287FF46BAFBC
:10206000374B9DF804201A715E7183F8068062E791
:10207000334AB8F1400F14807FF44DAF19F0010FCF
:102080003CD19DF808102E4841F010014FEA59024A
:102090008DF80810428046E7294AA2F8029042E7EC
:1020A000A3072ED1264942F00202A4088DF8082089
:1020B0000C802CE7E10724D4214942F00102640896
:1020C0008DF808200C8022E719F0030F16D19DF837
:1020D00008101B4841F020014FEA99028DF80810C2
:1020E000428020E76FF0070025E76FF0030022E74A
:1020F0006FF001001FE76FF002001CE76FF00600B1
:1021000019E76FF0050016E7FFF74AF99DF8092077
:1021100063F00D0342F002028DF80A308DF80920B9
:1021200076E79DF8092063F00E0342F001028DF876
:102130000A308DF809206BE700226AE700080020CA
:10214000001500200000000000000000000000005A
:1021500010B51E4C86B023680593802212212120E1
:10216000FFF7CEFD0A2006F083FE802211212120F8
:10217000FFF7C6FD04223A212120FFF7C1FD04220A
:1021800012212120FFF7BCFDD02240212120FFF7A2
:10219000B7FD022215212120FFF7B2FD8422B021D4
:1021A0002120FFF7ADFD20237822CDE901330092F5
:1021B000A023B422F0210120FFF762FE059A2368D4
:1021C0009A4201D106B010BDFFF7EAF800080020DE
:1021D00010B50A4B0A4A1988146858881B7982B0CE
:1021E000022B019400FB01F00199136818BF400015
:1021F000994201D102B010BDFFF7D2F800150020BE
:1022000000080020000000000000000000000000A6
:1022100030B583B002A80D4D00242B6820F8064D80
:102220000193FFF7FDFD68B9BDF8020047F2736442
:10223000001BB0FA80F04009019A2B689A4203D142
:1022400003B030BD2046F7E7FFF7AAF800080020EA
:1022500030B583B002AA114C00210546236822F84C
:10226000081D6E20019300F0ABFF28B1019A23688E
:102270009A4211D103B030BD0DF1010201216E204F
:1022800000F09EFF0028F1D19DF800209DF801305C
:1022900043EA02232B80E9E7FFF782F800080020D9
:1022A00030B50E4C83B0054623680193012203210B
:1022B0006E2000F0D5FF28B1019A23689A420BD115
:1022C00003B030BD2A4638216E2000F0C9FF002837
:1022D000F2D1034B1D71EFE7FFF762F80008002011
:1022E00008150020000000000000000000000000B1
:1022F0002DE9F04F8DB0DFF80494DDF858C0D9F81F
:1023000000400B9401F10806171D5C1E0CF1FF350F
:10231000B3F5207F9DF85CA0009034443D449DF8C7
:1023200060B000F21082BCF5F07F00F20C82B6F5CE
:10233000227F00F21182B7F5F27F00F21082A642EE
:1023400080F00482B4F5227F00F20082AF4280F078
:102350000082B5F5F27F00F2FC81BAF1400F00F087
:10236000B581BAF1800F23D0BAF1200F00F0A1811E
:102370004FF00008CDF80480BBF1400F2ED0BBF128
:10238000800F00F0CB81BBF1200F00F0B98100235A
:10239000CDE902330098FFF783FF002838D00B9A6D
:1023A000D9F800309A4240F0E3810DB0BDE8F08FDB
:1023B0009A0740F0D781CF4AB4084FEA4308661C19
:1023C000A2FB0818A2FB031204EB9304BBF1400F1D
:1023D00006EBD203019306EBD808D0D11CF0010F15
:1023E00040F0C381C34B00987D084FEA4C026F1C3C
:1023F000A3FB0212A3FB0C1307EB9303029307EB5F
:10240000920305EB5C050393FFF74AFF0028C6D152
:10241000012203216E2000F023FF0028BFD1C6F364
:1024200007231A4650216E20049300F019FF00285C
:10243000B5D1F3B21A4651216E20059300F010FF7A
:102440000028ACD1C7F307231A4652216E20069309
:1024500000F006FF0028A2D1FBB21A4653216E20DD
:10246000079300F0FDFE002899D1C4F30722542100
:102470006E2000F0F5FE002891D1E3B21A465521F6
:102480006E20089300F0ECFE002888D1C5F30722E7
:1024900056216E2000F0E4FE002880D1EBB21A46EF
:1024A00057216E20099300F0DBFE00287FF477AF00
:1024B000524680216E2000F0D3FE00287FF46FAFDB
:1024C0005A4681216E2000F0CBFE00287FF467AFD2
:1024D000024660216E2000F0C3FE00287FF45FAF4B
:1024E0000C2261216E2000F0BBFE00287FF457AF64
:1024F000012262216E2000F0B3FE00287FF44FAF6E
:10250000EC2263216E2000F0ABFE00287FF447AF81
:10251000009B0D2B00F04081BAF1400F00F0468186
:10252000BAF1800F00F02F81BAF1200F00F0228164
:10253000012282216E2000F093FE00287FF42FAF4D
:10254000022203216E2000F08BFE00287FF427AFCB
:10255000049A10216E2000F083FE00287FF41FAF44
:10256000059A11216E2000F07BFE00287FF417AF42
:10257000069A12216E2000F073FE00287FF40FAF40
:10258000079A13216E2000F06BFE00287FF407AF3E
:10259000A21BC2F3072214216E2000F061FE002866
:1025A0007FF4FDAE089B059A9A1AD2B215216E20CF
:1025B00000F056FE00287FF4F2AEEA1BC2F30722B9
:1025C00016216E2000F04CFE00287FF4E8AE099B37
:1025D000079A9A1AD2B217216E2000F041FE002805
:1025E0007FF4DDAE019B1821C3F307226E2000F0BB
:1025F00037FE00287FF4D3AE9DF8043004931A46CA
:1026000019216E2000F02CFE00287FF4C8AE029B3A
:102610001A21C3F307226E2000F022FE00287FF467
:10262000BEAE9DF8083005931A461B216E2000F0BF
:1026300017FE00287FF4B3AE019BA8EB0302C2F3A0
:1026400007221C216E2000F00BFE00287FF4A7AEAD
:10265000049BA8EB0302D2B21D216E2000F000FE05
:1026600000287FF49CAEDDE902239A1AC2F3072208
:102670001E216E2000F0F4FD00287FF490AE039B35
:10268000059A9A1AD2B21F216E2000F0E9FD0028A7
:102690007FF485AE184B9DF800201A710134013586
:1026A000A61BEF1B1E805F8083F805A083F806B091
:1026B00075E6104A4FEA4308A2FB031306EB5303E7
:1026C000A2FB0828019306EB580855E6D90749D420
:1026D000084A74084FEA4308661CA2FB0818A2FBCC
:1026E000031204EB530406EB9203019306EB9808E4
:1026F00042E600BFABAAAAAA0815002000080020E5
:10270000334A4FEA4C03A2FB0C1CA2FB032307EB4A
:10271000530307EB5C02029203933BE61CF0030FAA
:1027200023D12B4BBD084FEA4C026F1CA3FB0212B6
:10273000A3FB0C1307EBD303029307EBD20305EBC8
:102740009C05039326E66FF0070028E66FF0030070
:1027500025E66FF0040022E66FF001001FE66FF03F
:1027600002001CE66FF0050019E66FF0060016E6A1
:10277000FEF716FE002268216E2000F071FD002891
:102780003FF4D6AE0BE6032268216E2000F068FD10
:1027900000283FF4CDAE02E6BAF1400FF3D0BAF113
:1027A000800F0CD0BAF1200F7FF4C2AE0122682155
:1027B0006E2000F055FD00283FF4BAAEEFE5072289
:1027C00068216E2000F04CFD00283FF4B1AEE6E534
:1027D000ABAAAAAA00000000000000000000000050
:1027E00030B50B4C87B02023782225680092CDE9C4
:1027F0000133B422A023F02102200595FFF778FDD4
:10280000059A23689A4201D107B030BDFEF7C8FD92
:102810000008002000000000000000000000000090
:1028200070B5134C82B006460D4623680193002212
:1028300003216E2000F014FD90B9012E0199236848
:102840000CBFB5223522012D08BF42F0400299424B
:102850000CD190216E2002B0BDE8704000F000BDA8
:10286000019A23689A4201D102B070BDFEF798FD2B
:102870000008002000000000000000000000000030
:1028800010B50A4B0A4A1988146858881B7982B017
:102890000D2B019400FB01F00199136818BF400053
:1028A000994201D102B010BDFEF77AFD0815002053
:1028B00000080020000000000000000000000000F0
:1028C00030B583B002A80D4D00242B6820F8064DCA
:1028D0000193FFF7BDFC68B9BDF8020046F2300471
:1028E000001BB0FA80F04009019A2B689A4203D18C
:1028F00003B030BD2046F7E7FEF752FD0008002088
:1029000030B583B002AA114C00210546236822F895
:10291000081D6E20019300F053FC28B1019A236832
:102920009A4211D103B030BD0DF1010201216E2098
:1029300000F046FC0028F1D19DF800209DF8013000
:1029400043EA02232B80E9E7FEF72AFD0008002076
:1029500070B5274D82B02B680193064601220321F2
:102960006E2000F07DFC044630B1019A2B689A423B
:1029700020463AD102B070BD32464E216E2000F0A2
:102980006FFC04460028F0D1442E07D00246B72140
:102990006E2000F065FCB8B10446E6E70122B721DD
:1029A0006E2000F05DFC0028F6D1224603216E2047
:1029B00000F056FC0028EFD1032211216E2000F018
:1029C0004FFC78B10446D0E7224603216E2000F088
:1029D00047FC0028E0D10A2211216E2000F040FCC3
:1029E0000028D9D1034B1E71BFE7FEF7D9FC00BF09
:1029F000000800201015002000000000000000006A
:102A00002DE9F04F8FB0DFF80084DDF860C0D8F812
:102A100000400D940CF1FF355C1EB3F5207F9DF84E
:102A200064909DF868B00C44154400F21282BCF525
:102A3000F07F00F20E82B1F5207F0E4600F2128286
:102A4000B2F5F07F174600F21082A14280F00482B6
:102A5000B4F5207F00F20082AA4280F00082B5F532
:102A6000F07F00F2FC81B9F1400F824600F0B081A6
:102A7000B9F1800F23D0B9F1200F00F09C81002321
:102A8000CDE90033BBF1400F2FD0BBF1800F00F038
:102A9000CB81BBF1200F00F0B9810023CDE90233D7
:102AA000002203216E2000F0DBFBA0B30D9AD8F8C2
:102AB00000309A4240F0E2810FB0BDE8F08F9A07F3
:102AC00040F0D681CC4A8C085900661CA2FB01015B
:102AD000A2FB030204EB930406EBD2030093BBF1C9
:102AE000400F06EBD1030193CFD11CF0010F40F052
:102AF000C281C14B7D084FEA4C026F1CA3FB02123E
:102B0000A3FB0C1307EB9303029307EB920305EB74
:102B10005C050393C4E702465B216E2000F0A0FB36
:102B20000028C3D15046FFF713FF0028BED102464C
:102B300003216E2000F094FB0028B7D1C6F30723D1
:102B40001A4608216E20049300F08AFB0028ADD1BC
:102B5000F3B21A4609216E20059300F081FB00288C
:102B6000A4D1C7F307231A460A216E20069300F06A
:102B700077FB00289AD1FBB21A460B216E200793EF
:102B800000F06EFB002891D1C4F307231A460C21F4
:102B90006E20089300F064FB002887D1E3B21A4648
:102BA0000D216E20099300F05BFB00287FF47EAFBF
:102BB000C5F307231A460E216E200A9300F050FB3E
:102BC00000287FF473AFEBB21A460F216E200B93EF
:102BD00000F046FB00287FF469AF049A35216E208F
:102BE00000F03EFB00287FF461AF059A36216E208D
:102BF00000F036FB00287FF459AF089A37216E2089
:102C000000F02EFB00287FF451AF099A38216E2086
:102C100000F026FB00287FF449AF069A39216E2088
:102C200000F01EFB00287FF441AF079A3A216E2086
:102C300000F016FB00287FF439AF0A9A3B216E2082
:102C400000F00EFB00287FF431AF0B9A3C216E2080
:102C500000F006FB00287FF429AF009B3D21C3F361
:102C600007226E2000F0FCFA00287FF41FAF9DF8C9
:102C700000203E216E2000F0F3FA00287FF416AF0A
:102C8000019B3F21C3F307226E2000F0E9FA0028E0
:102C90007FF40CAF9DF8042040216E2000F0E0FA94
:102CA00000287FF403AF029B4121C3F307226E206B
:102CB00000F0D6FA00287FF4F9AE9DF808204221F2
:102CC0006E2000F0CDFA00287FF4F0AE039B432184
:102CD000C3F307226E2000F0C3FA00287FF4E6AEAB
:102CE0009DF80C2044216E2000F0BAFA00287FF4F1
:102CF000DDAE012203216E2000F0B2FA00287FF43D
:102D0000D5AE4A4693216E2000F0AAFA00287FF43F
:102D1000CDAE5A4694216E2000F0A2FA00287FF42E
:102D2000C5AE012203216E2000F09AFA00287FF43C
:102D3000BDAE0134A31B07EE103ADFED307AB8EEDA
:102D4000477ABAF1440F77EEC77A00F09980B0EE77
:102D5000006AF2EE006AE7EE066A77EEA77AB0EE56
:102D6000667A67EE877ADFED266A87EEA67AFCEE52
:102D7000C77ACDED007A009B9521C3F307226E2020
:102D800000F06EFA00287FF491AE9DF800209621A5
:102D90006E2000F065FA00287FF488AE194B0135EB
:102DA000EF1BA41B5F801C8083F804A083F80590B0
:102DB00083F806B07AE610495A00A1FB030306EB3C
:102DC0005303A1FB0212009306EB5203019359E651
:102DD000D9074DD4084A74085900661CA2FB0101AA
:102DE000A2FB030204EB530406EB9203009306EBF1
:102DF0009103019346E600BFABAAAAAA00002244B1
:102E00000000A3441015002000080020244A4FEAC7
:102E10004C03A2FB0C1CA2FB032307EB530307EBA1
:102E20005C02029203933BE61CF0030F23D11C4B80
:102E3000BD084FEA4C026F1CA3FB0212A3FB0C134C
:102E400007EBD303029307EBD20305EB9C05039337
:102E500026E66FF0070029E66FF0030026E66FF024
:102E6000040023E66FF0010020E66FF002001DE68B
:102E70006FF005001AE66FF0060017E6FEF790FA0D
:102E8000F2EE006A37EE267ADFED066A67EE277A01
:102E900087EEA67AFCEEC77ACDED007A6BE700BF2D
:102EA000ABAAAAAA00002444000000000000000011
:102EB00030B5164C83B023680193054600230222E7
:102EC00003216E208DF8033000F0CAF928B1019A71
:102ED00023689A4218D103B030BD0DF103020421DA
:102EE0006E2000F06DF90028F1D19DF80320012D2E
:102EF0000CBF02F0FB0242F0040204216E208DF8A8
:102F0000032000F0ADF9E2E7FEF74AFA00080020DE
:102F1000F0B51A4C83B005462368019300200E4695
:102F20001746FFF7C5FF28B1019A23689A4222D1BC
:102F300003B0F0BD024603216E2000F091F9002895
:102F4000F2D12A4623216E2000F08AF90028EBD125
:102F5000324624216E2000F083F90028E4D1019A42
:102F600023689A4207D13A4625216E2003B0BDE876
:102F7000F04000F075B9FEF713FA00BF000800201A
:102F800030B5164C83B02368019305460023022216
:102F900003216E208DF8033000F062F928B1019A08
:102FA00023689A4218D103B030BD0DF10302042109
:102FB0006E2000F005F90028F1D19DF80320012DC5
:102FC0000CBF02F0FC0242F0030204216E208DF8D7
:102FD000032000F045F9E2E7FEF7E2F900080020DF
:102FE00030B5114C87B020237822F021256800925B
:102FF000CDE90133B422A02302200595FFF700FD9F
:103000000020FFF755FF502240214620FFF780FFA8
:10301000059A23689A4205D1012007B0BDE83040E7
:10302000FFF7AEBFFEF7BCF900080020000000006B
:1030300010B50A4B0A4A1988146858881B7982B05F
:10304000442B019400FB01F00199136818BF400064
:10305000994201D102B010BDFEF7A2F9101500206F
:103060000008002000000000000000000000000038
:1030700030B583B002A80D4D00242B6820F8064D12
:103080000193FFF73DFC68B9BDF8020048F2300437
:10309000001BB0FA80F04009019A2B689A4203D1D4
:1030A00003B030BD2046F7E7FEF77AF900080020AC
:1030B00070B5164E16483368154D82B005224FF490
:1030C000807101930BF064F820246B6983F48073A2
:1030D0006B61012005F0CCFE631E13F0FF04F4D1F8
:1030E0004FF4807140F20622298309480BF050F812
:1030F000019A33689A4206D10649074802B0BDE8F2
:10310000704007F0BDBBFEF74BF900BF0008002080
:1031100000040240103F0108482C0020000000007D
:1031200000B50C4A0C4B1278196883B0012A019142
:10313000019A1B6804D09A4209D103B05DF804FBE0
:103140009A4204D103B05DF804EBFFF7B1BFFEF77C
:1031500027F900BF482C00200008002000000000D4
:1031600000B5084B83B01A680192019A1B689A4215
:1031700005D1054803B05DF804EB07F0C9BBFEF7C5
:103180000FF900BF00080020482C002000000000BC
:1031900010B5084C0848236882B0019307F000FC82
:1031A000019A236805499A42086001D102B010BD16
:1031B000FEF7F6F800080020482C00201815002023
:1031C0002DE9F041224C234E88B0002335688DF85C
:1031D0001830804620468DF814101746079507F0E2
:1031E000CFFC2378012B0CD00420012306AACDE9C3
:1031F00001300092414605AA204607F0E9FB05464A
:1032000068B9134807F0DCFC9DF818303B700020CB
:10321000079A33689A4218D108B0BDE8F081204679
:1032200007F0BEFB23780C4A052B106004D0084839
:1032300007F0C6FC68B2EBE7204607F069FB23788D
:10324000012BF4D1FFF734FFF1E7FEF7A9F800BF37
:10325000482C002000080020181500200000000065
:10326000F0B5214C214E89B03368079307460025FD
:1032700020468DF818108DF819208DF8145007F09D
:103280007FFC2378012B0CD0042205AB0195029220
:1032900000933946022306AA204607F099FB05460B
:1032A00048B9114807F08CFC0020079A33689A420D
:1032B00017D109B0F0BD204607F072FB23780C4A05
:1032C000052B106004D0084807F07AFC68B2ECE7E0
:1032D000204607F01DFB2378012BF4D1FFF7E8FE11
:1032E000F1E7FEF75DF800BF482C00200008002041
:1032F0001815002000000000000000000000000081
:103300002DE9F0431F4C204E89B035688DF8171019
:103310000746204690469946079507F031FC2178EC
:1033200001290CD004230293CDE9008939460123F9
:103330000DF11702204607F04BFB054650B9114826
:1033400007F03EFC0020079A33689A4218D109B072
:10335000BDE8F083204607F023FB23780B4A052BBA
:10336000106004D0074807F02BFC68B2EBE720465A
:1033700007F0CEFA2378012BF4D1FFF799FEF1E79D
:10338000FEF70EF8482C0020000800201815002039
:1033900070B5294D82B02B6801930E46032841D8A1
:1033A000DFE800F01A120A02012922D9234A5369E0
:1033B00083F40063536116E0012926D91F4A53693B
:1033C00083F4806353610EE0012918D91B4A5369C5
:1033D00083F04003536106E001291CD9174A536961
:1033E00083F020035361019A2B689A4218D102B0EE
:1033F00070BD124B4FF4006229B15A83F3E70F4BB3
:1034000040220029F9D11A83EDE70C4B4FF480627A
:103410000029F8D0F1E7094B20220029F3D0ECE78E
:10342000FDF7BEFF0024E0B231460134FFF7B0FFE4
:10343000042CF8D1D7E700BF00080020000C0240A0
:1034400000B50D4B83B01A68019201280BD90B49C6
:103450004A6982F004024A61019A1B689A4209D1C2
:1034600003B05DF804FB054A042108B95183F3E772
:103470001183F1E7FDF794FF0008002000040240EB
:1034800000B50E4B83B01A68019201280BD90C4984
:103490004A6982F480424A61019A1B689A420AD1C1
:1034A00003B05DF804FB064A4FF4804108B951832C
:1034B000F2E71183F0E7FDF773FF00BF000800207B
:1034C000000C0240000000000000000000000000AE
:1034D000F0B5104F104C3B6883B0002501932E4689
:1034E0000021E8B2FFF754FF01F072F868B101352E
:1034F000042D26706670A67004F10304F0D1019AC1
:103500003B689A4204D103B0F0BD01F049F8EEE700
:10351000FDF746FF000800201C15002000000000F9
:1035200070B51A4D1A4C1B4E0FCD0FC49EB02A68B1
:10353000336822801D93EFF30981682203A8FDF709
:10354000B7FC154B9D6AAA0714D4EB0708D5124B9C
:1035500008995B6B114A00910D4880210DF050FADB
:103560001D9A33689A420FD109481EB0BDE87040D9
:1035700004F0A6BE099A5B6B0092A4F11000084A01
:1035800080210DF03DFAE0E7FDF70AFF643F0108F6
:10359000281500200008002000ED00E0403F010851
:1035A000203F0108000000000000000000000000B3
:1035B00000B51F4B0278196883B00191E2B11D4A32
:1035C0004FF4005111834278EAB11A4A4FF4805106
:1035D00011838278F2B1174A4FF480411183C27887
:1035E000FAB9144A4FF400415183019A1B689A4278
:1035F0001CD103B05DF804FB0E4A4FF40051518317
:103600004278002AE1D10B4A4FF4805151838278ED
:10361000002AE0D1074A4FF480415183C278002A42
:10362000DFD0044A4FF400411183DEE7FDF7B8FE16
:103630000008002000100240000000000000000010
:1036400000B51F4B0278196883B00191E2B11D4AA1
:103650004FF4007111834278EAB11A4A4FF4807135
:1036600011838278F2B1174A4FF400611183C27856
:10367000FAB9144A4FF480615183019A1B689A4247
:103680001CD103B05DF804FB0E4A4FF40071518366
:103690004278002AE1D10B4A4FF48071518382783D
:1036A000002AE0D1074A4FF400615183C278002A12
:1036B000DFD0044A4FF480611183DEE7FDF770FE2E
:1036C0000008002000100240000000000000000080
:1036D00030B50C4A0C4B116883B04FF40055019182
:1036E0004FF480544FF400414FF480405D835C837D
:1036F0005883598301991368994201D103B030BDB1
:10370000FDF74EFE000800200010024000000000FF
:1037100030B50C4A0C4B116883B04FF40075019121
:103720004FF480744FF480614FF400605D835C83DC
:103730005883598301991368994201D103B030BD70
:10374000FDF72EFE000800200010024000000000DF
:1037500010B50B4C0B48236882B0992200210193CD
:1037600007F046FB019A23689A4206D105480021DA
:1037700002B0BDE8104007F023BCFDF711FE00BF0A
:1037800000080020A82F002000000000000000001A
:1037900010B50B4C0B48236882B09922002101938D
:1037A00007F026FB019A23689A4206D105480021BA
:1037B00002B0BDE8104007F003BCFDF7F1FD00BF0B
:1037C00000080020C42F00200000000000000000BE
:1037D00000B5084B83B01A680192019A1B689A429F
:1037E00006D10548002103B05DF804EB07F050BB9B
:1037F000FDF7D6FD00080020A82F002000000000E3
:1038000000B5084B83B01A680192019A1B689A426E
:1038100006D10548002103B05DF804EB07F038BB82
:10382000FDF7BEFD00080020C42F002000000000AE
:1038300070B51A4C1A4E2378326882B0022B01926E
:10384000A26811D165781748013505F0070500EB2E
:103850008500904763686570013B6360019A336837
:103860009A4219D102B070BD012B08D0019933687A
:10387000994211D10C4802B0BDE8704010476578FC
:103880000848013D05F0070500EB85009047636897
:10389000657001336360E1E7FDF782FDC415002028
:1038A000000800201040010800400108000000004E
:1038B00070B51A4C1A4E2378326882B0012B0192EF
:1038C000A26811D165781748013505F0070500EBAE
:1038D000850090476368657001336360019A3368BF
:1038E0009A4219D102B070BD022B08D001993368F9
:1038F000994211D10C4802B0BDE87040104765787C
:103900000848013D05F0070500EB85009047636816
:103910006570013B6360E1E7FDF742FDA8150020FB
:1039200000080020104001080040010800000000CD
:1039300030B5204D85B02B68039340F24C4399423B
:10394000044628DCA3F69803994212DB4B00002BB7
:1039500081612BD10370036998474FF47A71039A00
:103960002B689A4220D1606905B0BDE8304007F06D
:10397000F7B98361104B02225B42227040F2892228
:1039800093420E4991FBF3F189B208DC0191E3689F
:1039900098470199E3E70122836102702D2101918B
:1039A000236998470199DAE7FDF7FAFCE3DD012284
:1039B0000270E3E70008002068F7FFFFA08601001F
:1039C00000B5084B83B01A680192019A1B689A42AD
:1039D00006D10146044803B05DF804EBFFF7A8BF29
:1039E000FDF7DEFC00080020A81500200000000004
:1039F00000B5084B83B01A680192019A1B689A427D
:103A000006D10146044803B05DF804EBFFF790BF10
:103A1000FDF7C6FC00080020C415002000000000CF
:103A200000B5094B094A1968506883B000EBD070A3
:103A30000191019A1B689A4203D1401003B05DF8CE
:103A400004FBFDF7ADFC00BF00080020A815002016
:103A500000B5094B094A1968506883B000EBD07073
:103A60000191019A1B689A4203D1401003B05DF89E
:103A700004FBFDF795FC00BF00080020C4150020E2
:103A800000B5084B08491A6883B040000192019ABA
:103A90001B6848609A4202D103B05DF804FBFDF751
:103AA0007FFC00BF00080020A815002000000000D7
:103AB00000B5084B08491A6883B040000192019A8A
:103AC0001B6848609A4202D103B05DF804FBFDF721
:103AD00067FC00BF00080020C415002000000000A3
:103AE00070B51D4E1D4A1E4B30681E491E4C91601C
:103AF00082B00021D46001901C4C1D481D4D9D607A
:103B0000117051705160106154611B481B4A1C4D6B
:103B1000D8601C48197059705960C3E90425FFF733
:103B200047FD1848FFF78CFD1749204607F0C8F8F5
:103B3000204607F0FDF92846144907F0C1F8019A1C
:103B400033689A4205D1284602B0BDE8704007F0BC
:103B5000EFB9FDF725FC00BF00080020C4150020C8
:103B6000A8150020B135000851370008A82F002003
:103B7000D1370008413600089137000801380008A5
:103B8000C42F002000400108C03F0108803F010809
:103B90000A490B4B09680B4A82B020200191402151
:103BA00058834FF4806559834FF400644FF480408C
:103BB00004215D835C8358835183FEE70008002065
:103BC000000C024000040240000000000000000061
:103BD00030B5104C104B2268104983B0019218691F
:103BE0001A6909691B69019D2468C2F3C032C1F3D7
:103BF000001102EB4102C3F38033C0F3403003EB0A
:103C00004203A54200EB430001D103B030BDFDF7F4
:103C1000C7FB00BF0008002000080240000C024063
:103C20002DE9F04FB94CBA4AA369BA4D2DED088B76
:103C30009A61B94AADB010682B900FAF0DAE7423E6
:103C400039463246009314A82B46CDE90F7700275A
:103C5000CDE90D66CDE91177139704F001FA14A9A7
:103C6000AE4AAF48AF4FB04E04F022FAAF49B04A67
:103C7000B04B29656A65AF65EB65AF4FAF48B0499A
:103C8000B04AA3692F666E66A866E9662A6793F84C
:103C9000217017F0040740F002819FEDAB8ADFF836
:103CA000D0B2DFF8D092DFF8D082DFF8D0A206974A
:103CB000CDE90977CDE9077705F13403B0EE48BACD
:103CC000F0EE48AAB0EE48AAF0EE489AB0EE489A54
:103CD000F0EE488A0B93202383F3118805F0D0FB84
:103CE00004F08EFBA66A04F0ABFB05F0E1FB236851
:103CF000A34207D0A2699B6892689A4202D2934875
:103D000004F0DEFA002383F311889BF80030002BC7
:103D100040F0D08074227F4914A804F0F9F999F892
:103D20000030C3B18A4A1378002B00F0DA80012BEF
:103D300011D1884B06981B78874A03F11401127839
:103D400035F911C007990130C0B261448242069032
:103D5000079100F04D8198F80030C3B17F4A137885
:103D6000002B00F0C880012B11D17D4B08981B78E7
:103D70007C4A05EB43011278B1F92EC00999013054
:103D8000C0B2614482420890099100F01A819AF809
:103D90000030002B79D0744A1378002B00F0F480A7
:103DA000012B72D10137FFB2222F6ED9D5ED076AF0
:103DB00095ED087AD5ED097A0A9BF4EE696AF1EE81
:103DC00010FAF4EE6A6A48BFF0EE669AF1EE10FA65
:103DD000B4EE4A7AC8BFF0EE66AAF1EE10FAB4EE7D
:103DE0004B7A48BFB0EE47AAF1EE10FAF4EE497AEA
:103DF00003F10103C8BFB0EE47BAF1EE10FAF4EEDA
:103E0000487ADBB248BFB0EE679AF1EE10FAC8BF4D
:103E1000B0EE678A312B0A9340F203813AEEE96AE9
:103E20007BEE4A6AF6EE007A26EE276A66EEA76A0D
:103E300038EE497A76EE265A27EE277AB0EE084A0F
:103E400075EE875A39EEAA5AC5EE844A00278AF8D9
:103E500000707AEE0B5A84EE863AC4EEA63A84EEEF
:103E6000874A39EE087A25EE276A65EEA76A67EE7B
:103E7000277A85ED1A3AC5ED1B3A85ED1C4A85ED8A
:103E8000176AC5ED186AC5ED197A311D304605F07F
:103E90002FF8A36993F821305B077FF51CAF1E4B09
:103EA0002B9A1B689A4240F0BE802DB0BDEC088B67
:103EB000BDE8F08F2D480B9900F11203A0F112021A
:103EC0000493A0F10C03CDE90201CDE90032A0F189
:103ED0003A01A0F11E03A0F122022E3800F0F8F9F9
:103EE00018E71C4907930978069305EB4101012067
:103EF0008B8610702FE71A4909930978089305EB10
:103F0000410101204B87107041E700BFC82100200C
:103F100030400108701900200008002050400108BE
:103F2000D0140020C3F5B83F00003B43AAF1923FF4
:103F30007F6A8C3F00001442000060C03D0AB73F1A
:103F4000A4707D3FB81E453F0000000040400108BE
:103F5000E1150020E2150020E4150020E615002000
:103F6000E7150020E9150020E5190020AA19002016
:103F7000F0150020E0150020E5150020E4190020D0
:103F8000008099C5008099451FED038A1FED039AB3
:103F9000C5ED198A0121C5ED188AC5ED178AC5ED51
:103FA0001C8AC5ED1B8AC5ED1A8A0A93B0EE48BA81
:103FB000F0EE48AAB0EE49AAF0EE499A1170232714
:103FC00063E70A4692FBF0F2184890F800E005EB30
:103FD000430112B24FF0000CBEF1010FA1F84620D0
:103FE00088F800C07FF4D3AE80F800C04A87CEE6E0
:103FF0000A4692FBF0F20E4890F800E003F120012F
:1040000012B24FF0000CBEF1010F25F8112089F813
:1040100000C07FF4A0AE05EB430380F800C09A8691
:1040200099E6002731E7FDF7BBF900BFE81500204E
:10403000E315002000000000000000000000000068
:1040400070B5124B124D1B782A6882B00646019259
:104050007BB11048104A114C114B067000201070B3
:10406000012222701970142004F002FF2378002B23
:10407000F9D10C48019A2B6800EB46009A42B0F93E
:10408000460001D102B070BDFDF78AF9F01500209D
:1040900000080020E7150020E6150020E5150020A7
:1040A000E915002070190020000000000000000049
:1040B00070B5154E154C3378226884B003923BB12D
:1040C0000025039A23689A4228461AD104B070BD8D
:1040D000642004F0CDFEFFF723F84FF4C84000F051
:1040E0004FF805460028ECD101220090084B3270B1
:1040F000084840224FF45E7104F062FE064B1860DF
:10410000DFE7FDF74DF900BFF015002000080020A3
:10411000213C0008F8150020EC15002000000000EC
:1041200070B5114B114C1B78226882B0019293B18B
:104130000F4D0126322100202E70FFF781FF322122
:1041400030462E70FFF77CFF322102202E70FFF7E1
:1041500077FF00232B70019A23689A4201D102B0A5
:1041600070BDFDF71DF900BFF0150020000800200C
:10417000E815002000000000000000000000000022
:10418000F0B5504D504C2B6883B007460193207812
:10419000002380226B218DF80330FFF761F858B1BE
:1041A0002378682B0CBF6920682080226B21207047
:1041B000FFF756F800287CD1012004F059FE68264C
:1041C00002E0012004F054FE0DF103026B2120787F
:1041D000FEF7F6FF78B12378682B0CBF69206820C2
:1041E0000DF103024FF06B010CBF20702670FEF73B
:1041F000E7FF00285DD19DF90330002BE1DB7E0055
:1042000006F0180632461B212078FFF729F858B12E
:104210002378682B0CBF6920682032461B21207050
:10422000FFF71EF8002844D1FE00012006F0180612
:1042300004F01EFE32461C212078FFF711F850B121
:104240002378682B0CBF6920682032461C2120701F
:10425000FFF706F868BB0120C7F3072704F008FE44
:104260003A4619212078FEF7FBFF50B12378682BDE
:104270000CBF692068203A4619212070FEF7F0FF34
:10428000B8B9012004F0F4FD012238212078FEF7AE
:10429000E7FF50B12378682B0CBF6920682001220A
:1042A00038212070FEF7DCFF18B9012004F0E0FD92
:1042B0000020019A2B689A4201D103B0F0BDFDF7AE
:1042C0006FF800BF00080020400800200000000038
:1042D0002DE9F04F87B01E46DDE912B3DFF82892D2
:1042E000DFF828A20393149BD9F8004002920746F6
:1042F000884601939AF800007C4A059416233A21D7
:10430000DDE91045FEF7FCFF78B19AF80030774AF6
:10431000682B0CBF6920682016233A218AF8000018
:10432000FEF7EEFF002840F0D480019B1BB16F4BDD
:10433000019A1B781370B8F1000F4AD06B4A9FEDB9
:104340006C6A92F901109378DFED6A6ADFED6A5AC0
:1043500043EA01235B421BB22B80117992F90300DF
:1043600041EA00214942698092F90510927942EAB6
:10437000012252420399AA80B1F900209B1A07EE4C
:10438000103AB8EEC77A27EE067A27EE267A88ED3D
:10439000007AB1F90220B5F902309B1A07EE103A03
:1043A000B8EEC77A27EE067A27EE267A88ED017AEC
:1043B000B5F90430B1F904209B1A07EE903AF8EEF3
:1043C000E77A77EEE57A67EE867A67EEA67AC8ED49
:1043D000027A0298A8B1454A9FED486A92F90710FF
:1043E000137A43EA012307EE903AF8EEE77AF3EE08
:1043F000056A77EEE67A87EE867A77EE267AC0ED62
:10440000007A002F39D0394ADFED3D6A92F9091060
:10441000937A43EA0123238092F90B00117B41EA4E
:104420000021618092F90D10927B42EA0122A28064
:10443000BBF900209B1A07EE903AF8EEE77A67EE98
:10444000A67AC7ED007ABBF90220B4F902309B1AB4
:1044500007EE103AB8EEC77A27EE267A87ED017A92
:10446000B4F90430BBF904209B1A07EE903AF8EE39
:10447000E77A67EEA67AC7ED027A96B31B4ADFEDBC
:10448000216A92F91010D37B43EA012307EE103A18
:10449000B8EEC77A002027EE267A86ED007A92F9E8
:1044A0001210537C43EA012307EE103AB8EEC77AA4
:1044B00027EE267A86ED017A92F91410D37C43EA2E
:1044C000012307EE903AF8EEE77A67EEA67AC6ED9A
:1044D000027A059AD9F800309A4204D107B0BDE8B3
:1044E000F08F3046F5E7FCF75BFF00BFE8190020CE
:1044F0000AE81C4100008038000080465CEFA643BB
:1045000058A00B399989193E000800204008002066
:1045100000B50A4B0A481B680A4C87B069460593E8
:1045200001224FF4F07305F00BFB012005F0F0FBC6
:10453000684605F04DFB2060F7E700BF000800204B
:1045400000300020001A00200000000000000000E1
:1045500010B50C4C0C4923680C4884B0039307F049
:1045600017FA002300934022094B0A484FF41E71AA
:1045700004F026FC039A23689A4201D104B010BDCE
:10458000FCF70EFF0008002044080020FC2F00204C
:1045900011450008081A002000000000000000007B
:1045A00000B5084B08491A6883B001200192019AAE
:1045B0001B6808709A4202D103B05DF804FBFCF757
:1045C000EFFE00BF00080020801C0020000000005B
:1045D00000B5074B07491A68087883B00192019A21
:1045E0001B689A4202D103B05DF804FBFCF7D8FEC9
:1045F00000080020801C00200000000000000000D7
:1046000000B5084B83B01A680192019A1B689A4260
:1046100005D1054803B05DF804EB05F079B8FCF767
:10462000BFFE00BF0008002050080020000000006E
:1046300000B5084B83B01A680192019A1B689A4230
:1046400005D1054803B05DF804EB05F099B8FCF717
:10465000A7FE00BF00080020500800200000000056
:1046600070B50D4C82B0236801930D1E06460DDD1A
:10467000284605F01DFE18B90C2333604FF0FF30BB
:10468000019A23689A4205D102B070BD034803F035
:1046900017FEEDE7FCF784FE0008002060400108EB
:1046A00000B5064B83B01A680192019A1B689A42C2
:1046B00002D103B05DF804FBFCF772FE0008002095
:1046C00000B5074B83B01A680192019A1B689A42A1
:1046D00004D103B05DF804EB05F01AB8FCF760FEF6
:1046E00000080020000000000000000000000000A2
:1046F00000B5074B83B01A680192019A1B689A4271
:1047000004D103B05DF804EB05F03AB8FCF748FEBD
:104710000008002000000000000000000000000071
:1047200000B5074B83B01A680192019A1B689A4240
:1047300004D103B05DF804EB05F04AB9FCF730FE94
:104740000008002000000000000000000000000041
:1047500000B5074B83B01A680192019A1B689A4210
:1047600004D103B05DF804EB03F03AB8FCF718FE8F
:104770000008002000000000000000000000000011
:1047800010B50C4C82B02368019315290CD8012276
:10479000094B8A4013403BB101740020019A236801
:1047A0009A4204D102B010BD6FF00700F6E7FCF7A3
:1047B000F7FD00BF000800200B00300000000000E3
:1047C00000B5074B83B01A680192019A1B689A42A0
:1047D00004D103B05DF804EB02F0CABAFCF7E0FDC7
:1047E00000080020000000000000000000000000A1
:1047F00010B5074B82B01C680194019C1B689C4259
:1048000004D102B0BDE8104002F072B9FCF7C8FD57
:104810000008002000000000000000000000000070
:1048200010B5074B82B01C680194019C1B689C4228
:1048300004D102B0BDE8104002F072BAFCF7B0FD3E
:104840000008002000000000000000000000000040
:104850002DE9F04182B002AB0024364D03F8054D3E
:1048600090462A6801920F461A460121064603F037
:10487000DFF90446E0B9B8F1010F9DF803301FD00D
:10488000042F53D8DFE807F0322D0328230003F06C
:10489000FB07BB420CD03A460121304603F068F9D1
:1048A000044628B986F830717169304602F060FA22
:1048B000019A2B689A42204636D102B0BDE8F081B9
:1048C000042F33D8DFE807F02B26211C170003F054
:1048D0007F07BB42DFD1EBE703F0BF07BB42DAD172
:1048E000E6E703F0D707BB42D5D1E1E703F0EF07D6
:1048F000BB42D0D1DCE743F08007BB42CBD1D7E746
:1049000043F04007BB42C6D1D2E743F00407BB42A5
:10491000C1D1CDE743F02807BB42BCD1C8E743F083
:104920001007BB42B7D1C3E7FCF73AFD6FF00304B1
:10493000BEE700BF000800200000000000000000EB
:1049400030B583B002AA114D002302F8053D0C4694
:104950002B680193012103F06BF978B99DF80330BE
:10496000C3F30011C3F3C0022170A270C3F380012E
:10497000C3F38012DB096170E2702371019A2B6826
:104980009A4201D103B030BDFCF70AFD00080020B7
:1049900070B5134C84B00E46236803930DF10602E4
:1049A000F821054603F05CF928B1039A23689A427E
:1049B00013D104B070BD02AA0421284603F068F99F
:1049C0000028F2D1BDF8062012B93368AB61ECE7DC
:1049D000029BB3FBF2F33360F8E7FCF7E1FC00BFA6
:1049E000000800200000000000000000000000009F
:1049F00000B5084B027F18680A7083B00190019AD5
:104A00001B689A4203D1002003B05DF804FBFCF759
:104A1000C7FC00BF000800200000000000000000EC
:104A200070B5104C82B00E46236801930DF102025E
:104A30002021054603F014F938B9BDF8023053B10E
:104A4000DB00012233602B622A77019A23689A42A5
:104A500005D102B070BD2B6A33602877F5E7FCF70B
:104A60009FFC00BF000800200000000000000000C4
:104A7000F0B5294F83B03B680193052947D80E460E
:104A80000446154662B100EB81020023526B0120FF
:104A9000711E04292FD8DFE801F02522130631000A
:104AA00010460123F4E75B00FE226021204603F05C
:104AB0008FF870B9344445B9284684F8285008E086
:104AC00084F82B003444002DF6D0012384F82830DC
:104AD0000020019A3B689A421CD103B0F0BD84F8D3
:104AE0002A00EFE7C2F34F224421204603F058F892
:104AF0000028DFD0EDE784F82800E3E71B01EF2270
:104B00006021204603F064F80028D3D0E1E76FF07D
:104B10000300DEE7FCF744FC000800200000000072
:104B200010B50C4B82B01C68019405290AD80144C9
:104B3000002091F828101170019A1B689A4206D142
:104B400002B010BD002111706FF00300F4E7FCF714
:104B500027FC00BF0008002000000000000000004B
:104B6000F0B543181C4E83B0044693F82800336810
:104B700001930D46174630B105292AD8DFE801F028
:104B8000141E1A1C0C0C04EB81046263019A336836
:104B90009A421CD103B0F0BDC2F34F2264212046DB
:104BA00002F0FEFF08B1F1E7626304EB8504002028
:104BB0006763EBE7E263F8E72264F6E7C2F34F22AC
:104BC0004421204602F0ECFF0028EED0DEE7FCF79F
:104BD000E7FB6FF00300D9E70008002000000000A9
:104BE00070B5204C82B0236801930546164605290E
:104BF00034D8DFE801F0030E0C1E2020436B336035
:104C00000020019A23689A4226D102B070BDC36B7E
:104C1000F5E70DF10202442103F022F80028F0D15B
:104C2000BDF802305A028BB9AB6B336085F82900AE
:104C3000E7E7036CE3E70DF10202642103F010F8EB
:104C40000028DED1BDF802305B02D8E701233260D4
:104C5000AA6385F82930D4E7FCF7A2FB6FF00300C4
:104C6000CFE700BF000800200000000000000000A7
:104C700070B5104C82B00E46236801930DF103020B
:104C80000121054602F0D4FF58B99DF8033085F89C
:104C900030311B064BBF012303463370307085F85B
:104CA0004C30019A23689A4201D102B070BDFCF7E2
:104CB00077FB00BF0008002000000000000000009B
:104CC0002DE9F047DFF898A0027CDAF8003082B0D6
:104CD0000F4601F8082B06460193FFF759FEA0BBCB
:104CE000387307F110013046FFF79AFE68BB07F1F1
:104CF0001401304600F064FD38BB044607F124057A
:104D000006F1280907F118082A46A1B23046FFF734
:104D100067FFD0B9013419F8013B08F8013B062CB4
:104D200005F10405F0D107F13C013046FFF7A0FF83
:104D300058B9019ADAF800309A420ED1391D30463E
:104D400002B0BDE8F04702F08BB8019ADAF8003003
:104D50009A4202D102B0BDE8F087FCF721FB00BF08
:104D6000000800200000000000000000000000001B
:104D70002DE9F041614F92B005463B681193002246
:104D8000882102F0F5FE4FF47A724FF4C8735C4943
:104D9000A5F85221A5F854315A4AC5F858110023F4
:104DA000C5F8D42085F8F0302B62284601A9FFF71A
:104DB00087FF044688B9ADF8040001AE0FCE05F1B7
:104DC000100CACE80F000FCEACE80F000FCEACE833
:104DD0000F0096E80F008CE80F004B4BC5F83431FC
:104DE00001264FF420634FF4FA72A5F83C31A5F880
:104DF00038218021324685F85061284602F0B8FEFD
:104E000032468046FF21284602F0B2FE002248EAE0
:104E1000000011460443284602F0AAFE64B20DF1D8
:104E2000030204439121284602F002FF64B29DF878
:104E3000033085F83A31044332460021284602F017
:104E400097FE64B200220443FF21284602F090FE40
:104E500064B2044300228021284602F089FE64B235
:104E6000204340B278B90146324628463446FFF71F
:104E7000FFFD40B90122A1B228461444FFF7F8FD16
:104E8000062CF6D130B1119A3B689A4233D112B058
:104E9000BDE8F0816885024604212846FFF7E8FD59
:104EA0000028F0D1024605212846FFF7E1FD002841
:104EB000E9D14FF490136B634FF4804201212846EF
:104EC000FFF74EFE0028DED14FF40C13EB6395F88C
:104ED0002B3003B10023FF222B6485F83021012100
:104EE000284602F045FE012385F832310028CAD158
:104EF00085F81501C7E7FCF753FA00BF000800204A
:104F0000856B0100A47009006400840300000000A8
:104F100010B5084B82B01C680194019C1B689C4230
:104F200005D1012302B0BDE8104000F039BFFCF705
:104F300037FA00BF00080020000000000000000059
:104F400030B5184C90F8DA30226883B0042B019207
:104F50000D460DF1030211D0142102F069FE20B9B3
:104F60009DF80330DB0706D42870019A23689A4223
:104F700015D103B030BD01232B70F6E7132102F0E9
:104F800057FE9DF8033013F0180F03F0070318BF06
:104F90006FF00500042BEED000232B70E5E7FCF743
:104FA000FFF900BF00080020000000000000000022
:104FB0002DE9F047564F8EB03B680D930C460C23FD
:104FC0000AAA1421054602F0B3FD8646002840F0E7
:104FD0008B809DF82EE09DF830C09DF82F209DF825
:104FE00031109DF82A609DF82B30A07502EB0E223F
:104FF00001EB0C2192B289B249025202C4E90321A9
:1050000003EB0623C4E900009BB2A3829DF8328023
:105010009DF83360B5F852E195F831C19DF828103C
:1050200006EB0826BEF57A7FB6B21FD006FB0EF659
:10503000DFF8E09095F81C80D5F820E006F5FA76C8
:10504000A9FB0696B609B8F1000F0ED01FFA8EFE26
:1050500003FB0EFE4FEA2E2E72454DD0B6B202FB78
:1050600006F6A2EB0E0EB6FBFEF6B6B2BCF1000FD2
:1050700047D0B001C0B2B608E0750DF10B00268133
:10508000CDE90040284602F043FA864660BB9DF811
:105090000B8084F8188005F150060FCE0DF10C0C32
:1050A000ACE80F002389ADF8143096E80700638957
:1050B000ADF81630E36894F817A0B4F8149006938E
:1050C0002369646804948CE8070003AC8DF824809D
:1050D0008DF823A00793ADF820900FCC50350FC565
:1050E0009CE8070086E807000D9A3B689A427046E4
:1050F0000CD10EB0BDE8F087BCF1000F03D148F62B
:10510000E0260020B8E740F6AE06B5E7FCF748F920
:1051100000080020D34D62100000000000000000D5
:105120002DE9F041134D144C296882B016460191C7
:105130000DF102020E211F46804602F091FDBDF8DE
:10514000023004EA4343336050B90DF10202404695
:105150000C2102F085FDBDF8023004EA43443C60B6
:10516000019A2B689A4202D102B0BDE8F081FCF7A7
:1051700017F900BF000800200000FE1F000000001B
:10518000F0B590F8DA30254C85B0013B22680392E7
:10519000022B07D90025039A23689A4228463AD160
:1051A00005B0F0BD02AB0F4601AA01210646FFF78C
:1051B000B7FF019BB3F57F0F05461FD9002DEAD13C
:1051C0001FBB0422FF21304602F0D2FC2A460746CC
:1051D0007021304602F0CCFC2A460743FF213046BE
:1051E00002F0C6FC7FB22A46802147EA000530461D
:1051F00002F0BEFC6DB205436DB2CCE7029BB3F585
:105200007F0FC8D9002DDBD0C5E73046044901F037
:105210009FFE0546BFE7FCF7C3F800BF000800206B
:1052200058090020000000000000000000000000FD
:10523000F0B53F4F057C3B6883B0044601228021D6
:10524000019302F095FC0122FF21204602F090FC20
:1052500000221146204602F08BFC94F83A2191215D
:10526000204602F085FC01220021204602F080FC4D
:105270000022FF21204602F07BFC204600228021F4
:1052800002F076FC012D37D017D3032D08D06FF034
:105290000706019A3B689A42304647D103B0F0BDF9
:1052A00068B304220021204602F062FC0646002872
:1052B000EFD1042384F83231EBE7012200212046AC
:1052C00002F056FC012306468DF803300028E0D199
:1052D00005462DB301350DF103020021204602F0F1
:1052E000A7FC9DF80330DB0713D590B9B5F5FA6F2D
:1052F000EFD16FF00606CCE730B10222D2E70121F0
:105300002046FFF73DFFCCE729462046FFF738FF50
:10531000F3E7B5F5FA6F14BF06466FF00606B8E777
:105320009DF80330DA07B4D50225D4E7FCF738F846
:105330000008002000000000000000000000000045
:1053400030B5114C037C226883B0019283B90546C5
:10535000FFF76EFF30B9284600F072FF10B9032343
:1053600085F83231019A23689A420AD103B030BDE0
:10537000019A23689A4204D103B0BDE8304000F09E
:105380005FBFFCF70DF800BF000800200000000020
:10539000F0B51A4F83B03B68019306460025012201
:1053A0000B21304602F0E4FB002204460B2130467C
:1053B00002F0DEFB0DF1030204431321304602F03C
:1053C00037FC9DF8033064B2204301355B0740B2DF
:1053D000EDB20CD0032D07D00028E0D0019A3B6835
:1053E0009A4209D103B0F0BD6FF00B00F6E7032D30
:1053F00008BF6FF00B00F1E7FBF7D2FF00080020B9
:1054000070B5124C82B000222368027405460E4625
:105410000193FFF795FF28B1019A23689A4212D1B0
:1054200002B070BD31462846FFF7C2FD0028F3D117
:10543000019A23689A4206D10146284602B0BDE887
:105440007040FFF7A5BFFBF7ABFF00BF00080020CF
:10545000F0B5574D83B02C680194152906463AD013
:1054600014461F46042A00F2A080DFE802F0213231
:105470002E30030004220A21304602F079FBF0B9F5
:10548000002F14BF10230023EF228421304602F0A6
:105490009FFBA0B9019A2B6886F8DA409A4240F047
:1054A00082800146304603B0BDE8F040FFF770BF90
:1054B00000220A21304602F05BFB0028E0D0019A6E
:1054C0002B689A426FD103B0F0BD0222D3E70322CA
:1054D000D1E70122CFE70122FF2102F049FB0022A0
:1054E00011460446304602F043FB00220443FF21EC
:1054F000304602F03DFB64B2012204438021304675
:1055000002F036FB64B2022204438521304602F0E9
:105510002FFB64B204220443FF21304602F028FB33
:1055200064B200220443CD21304602F021FB64B274
:1055300011220443CC21304602F01AFB64B2072248
:105540000443FF21304602F013FB64B200220443FF
:10555000BE21304602F00CFB64B206220443FF2158
:10556000304602F005FB64B209220443CC213046E8
:1055700002F0FEFA64B200220443FF21304602F03A
:10558000F7FA64B201220443FF21304602F0F0FA38
:1055900064B2002204431146304602F0E9FA64B2D4
:1055A000204340B28BE7FBF7FBFE6FF00A0086E773
:1055B00000080020000000000000000000000000C3
:1055C000F0B5704F97B004463B6815934022002118
:1055D00005A80BF0BDF9002320460121ADF80A30E3
:1055E0008DF807308DF80830039300F091FE94F8A1
:1055F0001421012A06D894F8131100F0B9800C295F
:1056000040F2B98002AA03A9204600F0F9FB054642
:10561000002D40F0A38094F85031002B00F0A580BD
:105620005949204601F094FC0546002840F0968038
:105630002B46294604222046FFF70AFF054600288C
:1056400040F08C800122FF21204602F091FA0DF1FA
:105650000A0206468421204602F002FB2A46FF2168
:1056600046EA0005204602F083FA6DB205436DB2AA
:10567000002D73D1BDF80A301B01C4F8D43005A940
:105680002046FFF71DFB0546002867D10DF10702F4
:105690000921204602F0CCFA054600285ED105AE6D
:1056A0000FCE9DF807C004F110050CF0010C84F832
:1056B00031C10FC50FCE0FC50FCE0FC596E80F0035
:1056C0008DF807C085E80F000DF107020121204683
:1056D00002F0AEFA0546002840D19DF8073084F864
:1056E0003031024601462046FFF7B2F80546A8BB16
:1056F000024602212046FFF7ABF8054670BB0323A4
:10570000014684F832310DF10902204601F008FB10
:10571000054618BB9DF8093084F8E8300DF1090200
:105720000121204601F0FCFA0546B8B99DF8093080
:1057300084F8E03004AA0321204601F0C9F80546A8
:1057400060B9049BC4F8E43004AA0421204601F0A7
:10575000BFF8054610B9049BC4F8DC30159A3B68C5
:105760009A4228460CD117B0F0BDD4F84C1158E736
:1057700020293FF647AF204600F042F9054647E7AB
:10578000FBF70EFE00080020640800200000000067
:1057900010B5074B82B01C680194019C1B689C42A9
:1057A00004D102B0BDE8104000F02ABBFBF7F8FDC1
:1057B00000080020000000000000000000000000C1
:1057C00030B5134C83B00D46236801930DF10202EE
:1057D000282102F045FA50B9BDF80230C3F30B039B
:1057E000B3F5006F09D2FA2202FB03F32B60019A92
:1057F00023689A420AD103B030BDA3F58053C3EBAE
:10580000431203EB82035B002B60F0E7FBF7C8FD5C
:105810000008002000000000000000000000000060
:10582000F0B5DFF860C083B0DCF800400194D70821
:105830004FF0FF348F421C6017D23C1902F0070270
:1058400020443E4610F8015FBE4203BF1541EDB251
:105850001446002415F0010F0ED10134082C4FEA34
:105860005505F7D10136B142ECD1019ADCF8003090
:105870009A4205D103B0F0BD04EBC6041C60F4E706
:10588000FBF78EFD00080020000000000000000073
:105890002DE9F04F87B0354CDDF84C802468129E1E
:1058A00005941F46149B01900296DDE9105B00935E
:1058B000B8F1000F33D08A46914600241AE003EB7A
:1058C0000B0292092A4951F82220003218BF012206
:1058D000524518D1DA08954207D9B85C03F00701A0
:1058E000012606FA01F10143B9540134A04503F140
:1058F000010614D002AB324629464846FFF790FF16
:10590000029B5A1CDBD1009B6FF031001E60174BCD
:10591000059A1B689A4227D107B0BDE8F08F009B1B
:1059200001981E603A460623B02102F0E1F80028F3
:10593000EDD1019803AA0623B02102F0F9F8002D59
:10594000E5D09DF80C203B789A420AD13D4403AB48
:105950000137AF42DBD017F8012B13F8011F91423A
:10596000F7D06FF03100D2E7FBF71AFD00080020F6
:10597000100B0020000000000000000000000000EC
:10598000F0B51D4D90F830612B6889B00F46C022EC
:1059900001210446079302F0EBF828B1079A2B681F
:1059A0009A4226D109B0F0BD69462046FFF728FD8E
:1059B0000028F3D10122FF21204602F0D9F8002867
:1059C000ECD13A46B621204602F04AF90028E5D14A
:1059D0000246FF21204602F0CBF80028DED13246F5
:1059E0000121204602F0C4F80028D7D184F83061A4
:1059F000D4E7FBF7D5FC00BF000800200000000042
:105A0000F0B52F4E89B00F46154633680793012233
:105A1000FF21044602F0ACF8A8B30021C4F8241119
:105A2000A4F828116DB327488368012203B306A8A0
:105A3000B4220623CDE90032CDE90217049004F523
:105A4000927304F5957229462046FFF721FF30B97D
:105A5000012384F8137184F8145184F81531079ADE
:105A600033689A422AD109B0F0BD2C290A46DED00B
:105A700002F1B5039B09511C50F82330002BF4D0E0
:105A8000D5E72946D3E702464F21204602F070F8B9
:105A90000028C2D12C224E21204602F069F802468D
:105AA0000028BAD1FF21204602F062F80028B4D1C4
:105AB000B422B621204602F05BF8AEE7FBF770FC9B
:105AC00000080020100B0020000000000000000073
:105AD00030B5164C83B041F00102236801930021D8
