:020000040800F2
:1000000000040020C1010008B1A10008B1A100084E
:1000100071540008B1A10008B1A10008B1A1000805
:10002000B1A10008B1A10008B1A10008D1C3000826
:10003000B1A10008B1A10008B1A10008412F010839
:10004000B1A10008C1FD000851FF0008A1FF000890
:10005000B1A10008B1A1000801FB000851FB000894
:10006000A1FB0008F1FB000841FC000851ED00086D
:10007000A1ED0008F1ED000841EE000891EE000846
:10008000E1EE000831EF000841F8000841010108E5
:10009000B1010108610201081103010891FC000887
:1000A000B1A10008B1A1000891280108B1A1000880
:1000B000012B0108412B0108812B01083114010893
:1000C00071150108B1A10008B1A10008B1A1000893
:1000D000B1A10008B1A10008B1A1000801300108D8
:1000E00021FD000811FE000861FE0008B1A1000812
:1000F000B1A10008B1A10008B1A1000881EF00087A
:10010000B1A10008A1040108C12B0108B1A1000898
:10011000B1A10008B1A1000851280108B1A100084F
:10012000D1EF000821F0000871F00008C1F00008CC
:1001300011F10008B1A10008B1FE0008B1A100084A
:10014000B1A10008B1A10008B1A100084120010837
:1001500061F10008B1F1000801F20008B1A1000846
:10016000B1A10008B1A10008B1A10008B1A1000827
:1001700001FF0008B1A10008B1330008B1A10008D7
:10018000B1A10008B1A10008B1A10008B1A1000807
:10019000B1A10008B1A10008B1A10008B1A10008F7
:1001A000B1A10008B1A10008B1A10008B1A10008E7
:1001B000B1A10008B1A10008B1A10008B1A10008D7
:1001C00072B62E4880F3098840F20000CCF200009D
:1001D0004EF63471CEF20001086040F20000C0F229
:1001E000F0004EF68851CEF2000108604FF000009A
:1001F000E1EE100A4EF63C71CEF2000108600620D6
:1002000080F31488BFF36F8F13F042F84FF055302E
:100210001B491C4A91423CBF41F8040BFAE71A49BA
:10022000164A91423CBF41F8040BFAE71749184AB5
:10023000184B9A423EBF51F8040B42F8040BF8E702
:1002400000201549154A91423CBF41F8040BFAE7DA
:1002500009F096FF124C134DAC4203DA54F8041B1C
:100260008847F9E701F0FCFE0F4C104DAC4203DA71
:1002700054F8041B8847F9E709F092BF00080020F2
:1002800000000020000400200004002058BC0108E9
:1002900000080020AC180020B018002018A800208A
:1002A000C0010008C0010008C0010008C00100082A
:1002B0002DE9F04F2DED108AC1F80CD0D0F80CD0FC
:1002C000BDEC108ABDE8F08F0AF0B2F80BF008F927
:1002D000002383F311882846A04700200AF038FE47
:1002E0000BF0E6F80AF084F80AF0A2FC0AF0A0F895
:1002F0000BF0F6F800DFFEE7000000000000000051
:100300002DE9F843544B80461A68544882422DED3B
:10031000028B1BD052490B68DA0405D40A6842F4F8
:1003200080530B60012000E000204E4A4E491160CE
:1003300013684A4A934208D147490B6030B1484894
:10034000036823F48052026000E0FEE798ED018A22
:10035000B5EE408A0021F1EE10FAC8F81C10C8F87A
:100360001810C8F81410C8F81010C8F82810C8F8E9
:100370002410C8F8201029D0DFED3C7A28EE270A97
:1003800010EE100A00F0D8FF044618EE100A0D46D1
:1003900000F0D2FF0646B8F800000F4600F0BAFFA2
:1003A0002BA3D3E9002301F04DF902460B4630465A
:1003B000394600F063FE02460B462046294601F00E
:1003C00041F901F055FAA8F82C0001E0A8F82C102A
:1003D00098ED028AB5EE408AF1EE10FA26D0B8F810
:1003E00000904FEA092000F095FF044618EE100A2D
:1003F0000D4600F0A1FF16A3D3E9002300F0F8FF9B
:10040000064648460F4600F085FF02460B4630463A
:10041000394600F033FE02460B462046294601F0DD
:1004200011F901F025FAA8F82E0002E00020A8F842
:100430002E00B8F800204FF47A73B2FBF3F1A8F85D
:100440003010BDEC028BBDE8F88300BFAFF3008035
:100450001F85EB51B81E1940B0180020CDB5E8B586
:100460003038024000300240C2A507F4000080434B
:100470002DE9F04F9BB083461992A94A1891A948DB
:100480001168814200D0FEE79E6AB3F80CC09F69F4
:100490009A8DD98D039603261C6A5D6A059706928C
:1004A00006FB0CF74FEA8C0206264FEA4C000B9134
:1004B0000E97052106FB0CF70F9207220294049574
:1004C0000D90119701FB0CF04FEACC0602FB0CF1EA
:1004D00000271D695C69D3F81CA010901291179633
:1004E0000197188EDDF80490814580F20A818E48CC
:1004F0009BF800601BF80C7010F80690C25DA144D8
:100500008419511994F8008194F8002201EB4808ED
:10051000CDF81C80DDF834801BF80860855DC719B4
:10052000A9180E9A97F800411BF8022097F800725C
:1005300001EB4405815C0895CC1981190F9E91F857
:10054000008191F8007204EB48081BF80640CDF8D2
:1005500024808218055D92F8006192F80022E91962
:1005600001EB460505EB0807DDF8408015971BF801
:1005700008700A950419C15D94F8005194F800427E
:10058000DDF81C808E1806EB4501119D089A1BF8BA
:1005900005508E18C719425D1696161997F8002156
:1005A00006EB42029044CDF85080129C97F80072FE
:1005B0001BF804604519845DE41995F8007195F8FD
:1005C0000052801904EB47044FF01C0804EB0907A4
:1005D00090F80061139708FB09AADDF81C800C94C1
:1005E0000AEB0209152705EB460490F8005207FBB9
:1005F0000890099FDDF820900A2606FB070A0F27BE
:1006000007FB09A04FF00308DDF8289008FB010064
:100610004FF0060A0AFB0900009015984FF03009C8
:1006200009FB00FADDF858902E2000FB09A0824655
:100630000598824413984FF0240909FB00AA1498E6
:100640004FF02A0909FB00AA0898DDF8249008FB5E
:1006500000F8062000FB0988DDF81C9008EB090073
:1006600007FB01010A9F0C98DDF8009006FB0718B4
:100670001C2606FB008115270B9807FB021205922A
:10068000A9F5003868B1029E049FCDF8108006EBF2
:100690000801CE1B46434FF4807296FBF2F00290A5
:1006A0008046069961B1039E08FB01F8C1F5807789
:1006B00006FB07894FF4807299FBF2F003908046A5
:1006C000199901FB08F7002F02DD0837381103E004
:1006D000083F102697FBF6F047F6BC72019E1349BF
:1006E000189FDDF85C809042A8BF1046DA897243FB
:1006F0008842A8BF0146013627F81210C34401966C
:10070000EFE61D615C61029D059C1D629C61039D7D
:10071000049CC3F81CA05C629D621BB0BDE8F08F16
:10072000B0180020CDB5E8B5000800204480FFFFD8
:100730002DE9F04FA1B0C74C1F92C74A1E91116816
:10074000A14200D0FEE79F6A9A69998DDC8D0497DB
:100750009F89069207910F940322052106241D6AA2
:100760005E6A03957A4379437C43129214911594FF
:10077000072209210A24794305964FEA47084FEAE0
:1007800087097A434FEAC70A7C431E695D69D3F83B
:100790001CB01891CDF84480CDF84C901692CDF84D
:1007A0005CA01D94002102911A8E0299914280F260
:1007B0005981AA4A047812F80490A944C55D111918
:1007C00012F8058091F8004191F800A2464406EB2A
:1007D0004406119C0896045D5519165D95F800C1F4
:1007E00095F8005206EB0A0808EB4C0ADDF8488041
:1007F000CDF824A010F80810DDF84C80565C1419D0
:1008000006EB050A10F8085094F800C1565D94F8FC
:10081000004251180AEB4C0C361991F800A1149CB7
:1008200091F80012CDF828C006EB4A08065DCDF815
:100830002C80945DDDF85480551904EB010A95F87D
:10084000004195F800520AEB44010C9110F8081091
:100850009619545C641996F8005104EB45040D9404
:10086000169D96F80062DDF824A0DDF85C80A444B3
:10087000445DCDF86CC0155D5118AD1991F800615B
:1008800091F8001205EB460505EB0A060E9510F8E7
:1008900008501C961419565DDDF860A0711894F884
:1008A000006194F8004201EB460C08990CEB01063C
:1008B0001A9610F80A605519915D9219091995F860
:1008C000004192F8006195F8005201EB44012D249B
:1008D00001EB090804FB09BB10910899CDF864806D
:1008E0000BEB0C09DDF8288005EB460592F8006259
:1008F000242202FB019A152404FB08A9DDF824A098
:100900000C994FF01C0B0BFB0A994FF00A08DDF80D
:100910002CA008FB01994FF00F0B0E990BFB0A99C5
:100920004FF00308DDF834A008FB01994FF0060BE7
:100930000BFB0A99CDF80490DDF82CA00C994FF030
:100940004B0B51440BFB01F91B994FF0490A0AFB71
:10095000019B0699DDF868900BEB010A4FF03F0B05
:100960001C990BFB09AA4FF0450BDDF864900BFBBB
:1009700001AA4FF0370B0BFB09ABDDF824A00A9955
:1009800008FB0AF84FF00609DDF820A009FB0188F2
:100990000C99D0444FF00F09DDF82CA009FB018819
:1009A0000A21DDF8389001FB0A884FF01C0A0D99E6
:1009B0000AFB098804FB018A109C0F994FF02D094E
:1009C00009FB04A8DDF804A002FB0C820692AAF53C
:1009D0007A3971B1039C0599CDF8149004EB0902A2
:1009E000541A0F9A4FF48071544394FBF1F403941A
:1009F000A146079961B1049CC1F5807209FB01FC15
:100A000004FB02C94FF4807199FBF1F20492914604
:100A10001F9C04FB09F1002902DD10314C1103E099
:100A20001039202291FBF2F447F6BC718C42A8BF2A
:100A30000C46DA890299DDF874804A4308498C42F1
:100A4000A8BF21461E9C24F81210029A4044511C53
:100A5000A9E600BFCDB5E8B5B01800200008002019
:100A60004480FFFF05981E615D61039E069D049C06
:100A700058629D61C3F81CB01E629C62104621B092
:100A8000BDE8F08F2DE9F04F95B0994C1392994A3B
:100A900012911168A14200D0FEE75E6A1D6A9F6A4A
:100AA0009A69998DB3F82E800C964FF00009D3F80F
:100AB00010C05E69D3F81CB00195029709920A91A3
:100AC000CDF83480CDF80C908B4904780D190C5D6D
:100AD00095F8007295F8008106EB070A067ACDF8C2
:100AE0002CA08F198E5D97F8002202EB4805AC44CC
:100AF000057C97F80081CDF810C04A194D5D92F839
:100B0000009292F8002109EB040A0AEB480C90F8D5
:100B100018A090F82090CDF814C001EB0A0494F8C6
:100B2000007294F80041BF1907EB420801EB09027B
:100B3000CDF8188092F8006292F80021771907EB3F
:100B4000440606EB080C90F8288011F80A70079606
:100B500001EB0805CDF840C095F8004295F800512A
:100B6000E619059F06EB4204E619119690F83060ED
:100B700008948C1911F8097094F80022D219049F76
:100B800002EB4502BD180F9590F8385011F8089007
:100B900094F80041DDF82C808E5D4F1997F800A283
:100BA00097F800710AEB090C0CEB4404DDF818A06F
:100BB00011F805C000941C2505FB082944440A21AE
:100BC000DDF8148001FB0A9906EB4706DDF820A04A
:100BD0000F2707FB0899032101FB0A99DDF81CA0E8
:100BE0004FF0060808FB0A99DDF810A0152101FB5B
:100BF0000A99CB44DDF84490CDF82CB04FF02E0A82
:100C00000AFB09FADDF840904FF0300B0BFB09AA04
:100C10004FF0240B0BFB04A90F9C4FF02A0A0AFB90
:100C2000049B099CDDF81890DDF810A0A344059CF6
:100C300008FB09A8DDF820A04FF0030909FB048890
:100C4000079C07FB0A890A2707FB0498DDF8009038
:100C5000DDF82CA00C9F05FB098501FB02520199D0
:100C60000992AAF500328C180D99DDF82880E51B51
:100C70004D434FF4807195FBF1F40194019F44467C
:100C80007C43029FC8EB010507FB054595FBF1F18D
:100C90000291139C6143002902DD0831091103E030
:100CA0000839102791FBF7F147F6BC75134C129FDA
:100CB0000C92A942A8BF2946039DA142B8BF214674
:100CC00079530C354030C02D03957FF4FDAE099863
:100CD000019C029D9861C3F810C05E61C3F81CB00E
:100CE0001C625A629D62102015B0BDE8F08F00BFF3
:100CF000CDB5E8B5B0180020000800204480FFFF03
:100D00002DE9F04FA1B084461F92BE4A1E91BE4805
:100D10001168814200D0FEE79E6A9F6905969E8910
:100D2000D98D01967000079703277E431190019893
:100D30009A8D0F9112960521019E08924843B200A8
:100D40001490019E01980199139206277E43072271
:100D5000C700514315961797019E019F1C6A5D6A53
:100D6000169109220A2156434F434FF0000804947C
:100D700006955C691D69D3F81CB018961D97CDF8CF
:100D80000C80188EDDF80C90814580F25A819F49C5
:100D90009CF80000DDF804900F181CF8096097F823
:100DA00000A297F80021085CA2448C198E5D94F88B
:100DB000008294F80041454405EB4207119D0997D4
:100DC0001CF805504A194D5D92F8007292F80081A6
:100DD0003F18129807EB44091CF80040CDF8289002
:100DE00008190C5D90F8007290F80001BF1907EB2C
:100DF0004809DDF84C80CDF82C901CF8089001EBE8
:100E00000902CDF8089092F8006292F80021771953
:100E1000149E1CF80690159E07EB400801EB090094
:100E2000CDF8308090F8005290F800012F1907EBB0
:100E300042081CF80670029DCDF83480CA194E5D38
:100E400092F80042A41904EB40050295DDF82C80CD
:100E5000169E92F80021CF5DA844CDF86C801CF856
:100E6000068011F80950DDF8609001EB080011F8D8
:100E7000088090F8004290F8000166190A9D06EB80
:100E80004204179A0E9466191C961CF802608C197D
:100E90008E5D94F8002294F80041D519099F05EB66
:100EA0004002D5191A951CF809504F194D5D97F855
:100EB000000297F80071404400EB44002D2100EB44
:100EC0000A0401FB0ABB1090099819940BEB020A63
:100ED00006EB470424210B9F01FB00A94FF01508E6
:100EE000DDF828A00D9808FB07964FF01C0B0BFBB4
:100EF0000A69DDF830800A2606FB009A0F27DDF824
:100F0000389007FB08AB4FF0030808FB09BADDF87F
:100F100008B0062000FB0BA9CDF80090DDF834A046
:100F2000DDF830B04FF04B090AEB0B0009FB00FA7B
:100F30001B984FF0490B0BFB00A9079809EB000A1F
:100F4000DDF868901C984FF03F0B0BFB09AA4FF09F
:100F5000450BDDF864900BFB00AA4FF0370B0BFB41
:100F600009ABDDF828A00B9808FB0AF84FF006093A
:100F7000DDF824A009FB00880D9808EB0A0907FB9F
:100F800000980C9FDDF83890029806FB07864FF01A
:100F90001C0A0AFB0968152707FB008610980F9F9B
:100FA0004FF02D0909FB006A01FB02A2DDF800A049
:100FB0000792AAF57A386FB10499069ECDF8188089
:100FC00001EB0800811B79434FF4807291FBF2F72B
:100FD0000497B846089860B1059908FB00F8C0F579
:100FE000807601FB06894FF4807299FBF2F7059732
:100FF000B8461F9800FB08F6002E09DD1036771161
:101000000AE000BFB0180020CDB5E8B50008002008
:10101000103E202196FBF1F7039ED8891049DDF898
:10102000748047F6BC729742A8BF17468F42A8BF8C
:10103000394670431E9F721C27F81010C444039257
:101040009FE65C61079C049A9C61059E069C1D615D
:10105000C3F81CB01A625C629E6221B0BDE8F08FDA
:101060004480FFFFAFF3008000000000000000009C
:1010700081F0004102E000BF83F0004330B54FEA49
:1010800041044FEA430594EA050F08BF90EA020FB6
:101090001FBF54EA000C55EA020C7FEA645C7FEA49
:1010A000655C00F0E2804FEA5454D4EB5555B8BF6C
:1010B0006D420CDD2C4480EA020281EA030382EADD
:1010C000000083EA010180EA020281EA0303362D6F
:1010D00088BF30BD11F0004F4FEA01314FF4801C42
:1010E0004CEA113102D0404261EB410113F0004F54
:1010F0004FEA03334CEA133302D0524263EB43030B
:1011000094EA050F00F0A780A4F10104D5F1200EA8
:101110000DDB02FA0EFC22FA05F2801841F1000103
:1011200003FA0EF2801843FA05F359410EE0A5F1D7
:1011300020050EF1200E012A03FA0EFC28BF4CF008
:10114000020C43FA05F3C01851EBE37101F00045BE
:1011500007D54FF0000EDCF1000C7EEB00006EEBCB
:101160000101B1F5801F1BD3B1F5001F0CD3490855
:101170005FEA30004FEA3C0C04F101044FEA4452AC
:1011800012F5800F80F09A80BCF1004F08BF5FEA33
:10119000500C50F1000041EB045141EA050130BD13
:1011A0005FEA4C0C404141EB010111F4801FA4F1B6
:1011B0000104E9D191F0000F04BF01460020B1FA0B
:1011C00081F308BF2033A3F10B03B3F120020CDA43
:1011D0000C3208DD02F1140CC2F10C0201FA0CF021
:1011E00021FA02F10CE002F11402D8BFC2F1200C86
:1011F00001FA02F120FA0CFCDCBF41EA0C0190403C
:10120000E41AA2BF01EB0451294330BD6FEA040484
:101210001F3C1CDA0C340EDC04F11404C4F120026F
:1012200020FA04F001FA02F340EA030021FA04F381
:1012300045EA030130BDC4F10C04C4F1200220FAD8
:1012400002F001FA04F340EA0300294630BD21FA16
:1012500004F0294630BD94F0000F83F4801306BFDC
:1012600081F480110134013D4EE77FEA645C18BFD0
:101270007FEA655C29D094EA050F08BF90EA020F67
:1012800005D054EA000C04BF1946104630BD91EA5F
:10129000030F1EBF0021002030BD5FEA545C05D162
:1012A0004000494128BF41F0004130BD14F58004A1
:1012B0003CBF01F5801130BD01F0004545F0FE4115
:1012C00041F470014FF0000030BD7FEA645C1ABF4A
:1012D000194610467FEA655C1CBF0B46024650EA81
:1012E000013406BF52EA033591EA030F41F40021AD
:1012F00030BD00BF90F0000F04BF0021704730B533
:101300004FF4806404F132044FF000054FF0000107
:1013100050E700BF90F0000F04BF0021704730B5C8
:101320004FF4806404F1320410F0004548BF40429D
:101330004FF000013EE700BF42004FEAE2014FEAF2
:1013400031014FEA02701FBF12F07F4393F07F4FCD
:1013500081F06051704732F07F4208BF704793F0D0
:101360007F4F04BF41F40021704730B54FF46074E3
:1013700001F0004521F000411CE700BF50EA0102E6
:1013800008BF704730B54FF000050AE050EA01028F
:1013900008BF704730B511F0004502D5404261EBFF
:1013A00041014FF4806404F132045FEA915C3FF440
:1013B000D8AE4FF003025FEADC0C18BF03325FEADD
:1013C000DC0C18BF033202EBDC02C2F1200300FA8E
:1013D00003FC20FA02F001FA03FE40EA0E0021FAB3
:1013E00002F11444BDE600BF000000000000000050
:1013F00070B54FF0FF0C4CF4E06C1CEA11541DBFAB
:101400001CEA135594EA0C0F95EA0C0F00F0DEF875
:101410002C4481EA030621EA4C5123EA4C5350EA5A
:10142000013518BF52EA033541F4801143F48013AB
:1014300038D0A0FB02CE4FF00005E1FB02E506F03C
:101440000042E0FB03E54FF00006E1FB03569CF091
:10145000000F18BF4EF0010EA4F1FF04B6F5007F97
:1014600064F5407404D25FEA4E0E6D4146EB060609
:1014700042EAC62141EA55514FEAC52040EA5E5092
:101480004FEACE2EB4F1FD0C88BFBCF5E06F1ED83C
:10149000BEF1004F08BF5FEA500E50F1000041EB73
:1014A000045170BD06F0004646EA010140EA020020
:1014B00081EA0301B4EB5C04C2BFD4EB0C0541EA42
:1014C000045170BD41F480114FF0000E013C00F357
:1014D000AB8014F1360FDEBF002001F0004170BD7B
:1014E000C4F10004203C35DA0C341BDC04F1140494
:1014F000C4F1200500FA05F320FA04F001FA05F220
:1015000040EA020001F0004221F0004110EBD370EC
:1015100021FA04F642EB06015EEA430E08BF20EA18
:10152000D37070BDC4F10C04C4F1200500FA04F3BB
:1015300020FA05F001FA04F240EA020001F000414D
:1015400010EBD37041F100015EEA430E08BF20EAC0
:10155000D37070BDC4F1200500FA05F24EEA020E08
:1015600020FA04F301FA05F243EA020321FA04F037
:1015700001F0004121FA04F220EA020000EBD370EE
:101580005EEA430E08BF20EAD37070BD94F0000FEE
:101590000FD101F00046400041EB010111F4801F22
:1015A00008BF013CF7D041EA060195F0000F18BFD3
:1015B000704703F00046520043EB030313F4801F0F
:1015C00008BF013DF7D043EA0603704794EA0C0FC9
:1015D0000CEA135518BF95EA0C0F0CD050EA4106DF
:1015E00018BF52EA4306D1D181EA030101F000415C
:1015F0004FF0000070BD50EA410606BF1046194684
:1016000052EA430619D094EA0C0F02D150EA01368F
:1016100013D195EA0C0F05D152EA03361CBF1046D0
:1016200019460AD181EA030101F0004141F0FE416F
:1016300041F470014FF0000070BD41F0FE4141F4F3
:10164000780170BD70B54FF0FF0C4CF4E06C1CEAF3
:1016500011541DBF1CEA135594EA0C0F95EA0C0FA8
:1016600000F0A7F8A4EB050481EA030E52EA033563
:101670004FEA013100F088804FEA03334FF0805584
:1016800045EA131343EA12634FEA022245EA1115B1
:1016900045EA10654FEA00260EF000419D4208BF62
:1016A000964244F1FD0404F5407402D25B084FEA0F
:1016B0003202B61A65EB03055B084FEA32024FF4BB
:1016C00080104FF4002CB6EB020E75EB030E22BF18
:1016D000B61A754640EA0C005B084FEA3202B6EBD8
:1016E000020E75EB030E22BFB61A754640EA5C0087
:1016F0005B084FEA3202B6EB020E75EB030E22BF17
:10170000B61A754640EA9C005B084FEA3202B6EB17
:10171000020E75EB030E22BFB61A754640EADC00D6
:1017200055EA060E18D04FEA051545EA16754FEA38
:1017300006164FEAC30343EA52734FEAC2025FEA56
:101740001C1CC0D111F4801F0BD141EA00014FF0E5
:1017500000004FF0004CB6E711F4801F04BF0143B6
:101760000020B4F1FD0C88BFBCF5E06F3FF6AFAED2
:10177000B5EB030C04BFB6EB020C5FEA500C50F162
:10178000000041EB045170BD0EF0004E4EEA1131E5
:1017900014EB5C04C2BFD4EB0C0541EA045170BDEC
:1017A00041F480114FF0000E013C90E645EA060E30
:1017B0008DE60CEA135594EA0C0F08BF95EA0C0F5E
:1017C0003FF43BAF94EA0C0F0AD150EA01347FF4A6
:1017D00034AF95EA0C0F7FF425AF104619462CE77D
:1017E00095EA0C0F06D152EA03353FF4FDAE1046E0
:1017F000194622E750EA410618BF52EA43067FF431
:10180000C5AE50EA41047FF40DAF52EA43057FF4C0
:10181000EBAE12E700000000000000000000000036
:101820004FEA410212F5001215D211D56FF4787308
:10183000B3EB625212D94FEAC12343F0004343EAAB
:10184000505311F0004F23FA02F018BF4042704786
:101850004FF00000704750EA013005D111F0004010
:1018600008BF6FF0004070474FF00000704700BFA6
:101870004A0011D212F5001211D20DD56FF478730F
:10188000B3EB62520ED44FEAC12343F0004343EA64
:10189000505323FA02F070474FF00000704750EAAF
:1018A000013002D14FF0FF3070474FF00000704719
:1018B0004FEA4102B2F1E04324BFB3F5001CDCF172
:1018C000FE5C0DD901F0004C4FEAC0024CEA5070AA
:1018D000B2F1004F40EB830008BF20F001007047D9
:1018E00011F0804F21D113F13872BCBF01F00040DC
:1018F000704741F480114FEA5252C2F11802C2F10E
:10190000200C10FA0CF320FA02F018BF40F001008E
:101910004FEAC1234FEAD32303FA0CFC40EA0C0040
:1019200023FA02F34FEA4303CCE77FEA625307D17D
:1019300050EA01331EBF4FF0FE4040F440007047B4
:1019400001F0004040F0FE4040F40000704700BF4E
:1019500053B94AB9002908BF00281CBF4FF0FF3116
:101960004FF0FF3000F074B9ADF1080C6DE904CE12
:1019700000F006F8DDF804E0DDE9022304B070476A
:101980002DE9F047089E04468846002B4BD18A4239
:10199000154667D9B2FA82F24AB1C2F1200701FABC
:1019A00002F320FA07F7954047EA030894404FEA0C
:1019B000154E230CB8FBFEF71FFA85FC0EFB1788AB
:1019C00043EA084307FB0CF1994209D9EB1807F1E8
:1019D000FF3080F01B81994240F21881023F2B4476
:1019E0005B1AA4B2B3FBFEF00EFB103344EA0344CF
:1019F00000FB0CFCA44509D92C1900F1FF3380F041
:101A00000781A44540F2048102382C4440EA074093
:101A1000A4EB0C0400271EB1D4400023C6E9004308
:101A20003946BDE8F0878B4209D9002E00F0EB80E3
:101A30000027C6E9000138463946BDE8F087B3FA09
:101A400083F7002F47D18B4202D3824200F2FA8003
:101A5000841A61EB030301209846002EE0D0C6E90A
:101A60000048DDE702B9FFDEB2FA82F2002A40F058
:101A70008F80491B4FEA154E1FFA85F80127B1FBED
:101A8000FEFC230C0EFB1C1143EA014308FB0CF186
:101A9000994207D9EB180CF1FF3002D2994200F2BB
:101AA000CD808446591AA3B2B1FBFEF00EFB101490
:101AB00043EA044408FB00F8A04507D92C1900F1BB
:101AC000FF3302D2A04500F2B6801846A4EB08040A
:101AD00040EA0C409FE7C7F1200CBB4022FA0CFE05
:101AE0004EEA030E01FA07F420FA0CF521FA0CF382
:101AF0004FEA1E482543B3FBF8F92C0C08FB1933B9
:101B00001FFA8EFA44EA034309FB0AF49C4202FAE4
:101B100007F200FA07F10BD91EEB030309F1FF30BE
:101B200080F087809C4240F28480A9F102097344CE
:101B30001B1BADB2B3FBF8F008FB103345EA0344BE
:101B400000FB0AFAA24508D91EEB040400F1FF339A
:101B50006BD2A24569D90238744440EA0940A0FB1F
:101B60000289A4EB0A044C45C2464B4654D351D0DB
:101B7000002E69D0B1EB0A0564EB030404FA0CFCF7
:101B8000FD40FC404CEA0505C6E90054002747E744
:101B9000C2F1200320FA03F7954001FA02F021FA7E
:101BA00003F34FEA154E3843010CB3FBFEF71FFA5F
:101BB00085F80EFB173341EA034107FB08F38B421C
:101BC00004FA02F407D9691807F1FF3C2FD28B42BF
:101BD0002DD9023F2944CB1A81B2B3FBFEF00EFB94
:101BE000103341EA034100FB08F38B4207D969181F
:101BF00000F1FF3C17D28B4215D902382944C91A8B
:101C000040EA07473BE73746304609E70746E7E63D
:101C10001846FBE64145ABD2B8EB020A69EB0E026F
:101C200001381346A4E76046E9E7184695E767469A
:101C3000D1E781467CE702382C4447E7ACF1020C3F
:101C40002B442FE7384608E73746E9E60000000056
:101C5000704700BF0000000000000000000000000E
:101C6000844641EA000313F003036DD1403A41D3A7
:101C700051F8043B40F8043B51F8043B40F8043B66
:101C800051F8043B40F8043B51F8043B40F8043B56
:101C900051F8043B40F8043B51F8043B40F8043B46
:101CA00051F8043B40F8043B51F8043B40F8043B36
:101CB00051F8043B40F8043B51F8043B40F8043B26
:101CC00051F8043B40F8043B51F8043B40F8043B16
:101CD00051F8043B40F8043B51F8043B40F8043B06
:101CE00051F8043B40F8043B51F8043B40F8043BF6
:101CF000403ABDD2303211D351F8043B40F8043B96
:101D000051F8043B40F8043B51F8043B40F8043BD5
:101D100051F8043B40F8043B103AEDD20C3205D3A5
:101D200051F8043B40F8043B043AF9D2043208D09D
:101D3000D2071CBF11F8013B00F8013B01D30B880F
:101D400003806046704700BF082A13D38B078DD0ED
:101D500010F003038AD0C3F10403D21ADB071CBFBF
:101D600011F8013B00F8013B80D331F8023B20F829
:101D7000023B7BE7043AD9D3013A11F8013B00F862
:101D8000013BF9D20B7803704B7843708B788370EA
:101D900060467047000000000000000000000000E6
:101DA00090F800F06DE9024520F007016FF0000C9B
:101DB00010F0070491F820F040F049804FF0000443
:101DC0006FF00700D1E9002391F840F000F108001E
:101DD00082FA4CF2A4FA8CF283FA4CF3A2FA8CF356
:101DE0004BBBD1E9022382FA4CF200F10800A4FABD
:101DF0008CF283FA4CF3A2FA8CF3E3B9D1E9042311
:101E000082FA4CF200F10800A4FA8CF283FA4CF347
:101E1000A2FA8CF37BB9D1E9062301F1200182FA01
:101E20004CF200F10800A4FA8CF283FA4CF3A2FA07
:101E30008CF3002BC6D0002A04BF04301A4612BA15
:101E4000B2FA82F2FDE8024500EBD2007047D1E918
:101E5000002304F00305C4F100004FEAC50514F0A7
:101E6000040F91F840F00CFA05F562EA05021CBF78
:101E700063EA050362464FF00004A9E70000000092
:101E800001F0FF01102A2BDB10F0070F08D010F82B
:101E9000013B013A8B422DD010F0070F42B3F6D12F
:101EA000F0B441EA012141EA014122F007047FF048
:101EB00000070023F0E80256083C85EA010586EA9F
:101EC000010685FA47F5A3FA87F586FA47F6A5FADB
:101ED00087F68EB9EED1F0BC01F0FF0102F00702E7
:101EE00032B110F8013B013A83EA010313B1F8D192
:101EF0000020704701387047002D06BF3546033873
:101F0000073815F0010F07D1013015F4807F02BFAB
:101F1000013015F4C03F0130F0BC0138704700BFFC
:101F20004FF0FF3C06E000BF4FF0010C02E000BFA5
:101F30004FF0010C4DF804CD4FEA410C7FEA6C5C88
:101F40004FEA430C18BF7FEA6C5C1BD001B050EA2B
:101F5000410C0CBF52EA430C91EA030F02BF90EA16
:101F6000020F0020704710F1000F91EA030F58BFD5
:101F7000994208BF90422CBFD8176FEAE37040F037
:101F8000010070474FEA410C7FEA6C5C02D150EAD5
:101F9000013C07D14FEA430C7FEA6C5CD6D152EA90
:101FA000033CD3D05DF8040B704700BF8446104655
:101FB00062468C461946634600E000BF01B5FFF754
:101FC000B7FF002848BF10F1000F01BD4DF808ED24
:101FD000FFF7F4FF0CBF012000205DF808FB00BFF5
:101FE0004DF808EDFFF7EAFF34BF012000205DF84F
:101FF00008FB00BF4DF808EDFFF7E0FF94BF01209C
:1020000000205DF808FB00BF4DF808EDFFF7CEFF9C
:1020100094BF012000205DF808FB00BF4DF808EDDB
:10202000FFF7C4FF34BF012000205DF808FB00BFAC
:102030004FEA410C7FEA6C5C02D150EA013C0AD1C4
:102040004FEA430C7FEA6C5C02D152EA033C02D1B6
:102050004FF0000070474FF0010070470000000093
:1020600000B5184B83B01B6801930AF011FA08F011
:10207000B7F8154A1549164807F052FE04F0F0F873
:1020800003F0D6FC07F00CFE124913480CF0A0F840
:1020900004F036F802F094FB02F06AFF00F0F0FE64
:1020A00003F046FE01F04CFE002001F029FF02F093
:1020B000A7FA08F045F800F0EBFD642008F0D0FE28
:1020C000FBE700BF000B0020040B00200C0B0020DE
:1020D000B4180020200B002064A70020000000009E
:1020E00000B5084B83B01A680192019A1B689A42A6
:1020F00005D1054803B05DF804EB08F0D9B8FFF747
:10210000EFFF00BF000B0020608D01080000000001
:1021100030B5094C83B023680193054603F010FCE9
:10212000019A23689A4205D1284603B0BDE83040A1
:1021300003F0EEBBFFF7D4FF000B0020000000000F
:10214000F0B5134F83B03B68019306460C4603F08D
:102150000FFC642303FB0606002E0ADD03F008FCD7
:102160000546204603F0D4FB204603F0E9FBB542C8
:10217000F4DB002003F0CCFB019A3B689A4205D1C6
:10218000002003B0BDE8F04003F0DABBFFF7A8FF82
:10219000000B002000000000000000000000000014
:1021A00070B52DED028B1A4E9FED1A8A336882B0FE
:1021B00004460020019303F023FC0020654203F055
:1021C00007FC10E003F0ECFB07EE900AF8EEE77A6C
:1021D000F4EEC87AF1EE10FA10D5284603F0B0FB01
:1021E000204603F095FB03F0C3FB07EE900AF8EEE0
:1021F000E77AF4EEC87AF1EE10FAE3D4019A336884
:102200009A4203D102B0BDEC028B70BDFFF768FFAC
:10221000000B002092DFA34300000000000000003C
:1022200070B52DED028B1A4E9FED1A8A336882B07D
:1022300004460020019303F0E3FB0020654203F015
:10224000C7FB10E003F0ACFB07EE900AF8EEE77A6C
:10225000F4EEC87AF1EE10FA10D5204603F070FBC8
:10226000284603F055FB03F083FB07EE900AF8EED7
:10227000E77AF4EEC87AF1EE10FAE3D4019A336803
:102280009A4203D102B0BDEC028B70BDFFF728FF6C
:10229000000B002092DFA3430000000000000000BC
:1022A00070B52DED028B1A4E9FED1A8A336882B0FD
:1022B00004460020019303F0A3FB0020654203F0D5
:1022C00087FB10E003F06CFB07EE900AF8EEE77A6C
:1022D000F4EEC87AF1EE10FA10D5204603F030FB88
:1022E000284603F015FB03F043FB07EE900AF8EED7
:1022F000E77AF4EEC87AF1EE10FAE3D4019A336883
:102300009A4203D102B0BDEC028B70BDFFF7E8FE2C
:10231000000B002092DF23440000000000000000BA
:102320002DE9F0412DED028BDFF8808082B0D8F8E6
:10233000003001930F1E2ADD9FED1B8A0446002604
:102340004542002003F05CFB002003F041FB10E05D
:1023500003F026FB07EE900AF8EEE77AF4EEC87A6F
:10236000F1EE10FA10D5204603F0EAFA284603F001
:10237000CFFA03F0FDFA07EE900AF8EEE77AF4EEF2
:10238000C87AF1EE10FAE3D40136B742D9D1019AF6
:10239000D8F800309A4204D102B0BDEC028BBDE8FF
:1023A000F081FFF79DFE00BF92DFA344000B0020E9
:1023B00010B5094C82B023680193002003F0A8FAFD
:1023C000019A23689A4205D1002002B0BDE810406E
:1023D00003F0B6BAFFF784FE000B002000000000F7
:1023E0002DE9F0412DED028BDFF82C819FED488A1D
:1023F000D8F8003082B00446002001930F4603F065
:10240000FFFA0020654203F0E3FA10E003F0C8FA97
:1024100007EE900AF8EEE77AF4EEC87AF1EE10FAD9
:1024200010D5204603F08CFA284603F071FA03F029
:102430009FFA07EE900AF8EEE77AF4EEC87AF1EE2A
:1024400010FAE3D4002F4DDD9FED328A002665425D
:10245000002003F0D5FA002003F0BAFA10E003F0F0
:102460009FFA07EE900AF8EEE77AF4EEC87AF1EEFA
:1024700010FA10D5284603F063FA204603F048FA14
:1024800003F076FA07EE900AF8EEE77AF4EEC87AEF
:10249000F1EE10FAE3D4002003F0B2FA002003F0CA
:1024A00097FA10E003F07CFA07EE900AF8EEE77A6C
:1024B000F4EEC87AF1EE10FA10D5204603F040FA97
:1024C000284603F025FA03F053FA07EE900AF8EED7
:1024D000E77AF4EEC87AF1EE10FAE3D40136F6B2F8
:1024E000BE42B5DB002003F013FA002003F028FA07
:1024F000019AD8F800309A4207D1384602B0BDECB4
:10250000028BBDE8F04100F043B8FFF7E9FD00BFE2
:1025100092DFA34292DF2343000B00200000000063
:1025200030B50A4C83B0236801930546084603F092
:10253000EFF9019A23689A4205D1284603B0BDE815
:10254000304003F0FDB9FFF7CBFD00BF000B0020CA
:102550000EB410B583B005AA094C52F8041B2368C9
:1025600008480092019310F0EBFE019A23689A420A
:1025700004D103B0BDE8104003B07047FFF7B0FDD1
:10258000000B002064A700200000000000000000F5
:10259000F0B5114F83B006463B68019302F030FF5F
:1025A000002E11DB002500240121E0B202F070FEB4
:1025B0000134C82008F054FC02F022FF042CF3D1AF
:1025C00001356DB2B542EEDD019A3B689A4201D108
:1025D00003B0F0BDFFF784FD000B002000000000F9
:1025E00070B5154D82B02B680193064602F008FFC6
:1025F00000240121E0B20C4402F04AFE042CF8D180
:102600004FF47A740D4B04FB06F404F2E734A3FB99
:102610000434A409204608F023FC02F0F1FE019ADC
:102620002B689A4205D1204602B0BDE8704008F000
:1026300017BCFFF755FD00BF000B0020D34D621003
:1026400030B5184D83B02B68019300240121E0B20E
:102650000C4402F01DFE042CF8D100231A46184643
:102660000A2102F06DFE00231A460A21012002F021
:1026700067FE00231A460A21022002F061FE0023B1
:102680001A460A21032002F05BFE019A2B689A4247
:1026900005D1012003B0BDE8304002F089BEFFF74C
:1026A0001FFD00BF000B0020000000000000000024
:1026B00030B5184D83B02B6801930024E0B200219F
:1026C000013402F0E5FD042CF8D100231A46194626
:1026D000184602F035FE00231A461946012002F082
:1026E0002FFE00231A461946022002F029FE00237D
:1026F0001A461946032002F023FE019A2B689A42DB
:1027000005D1002003B0BDE8304002F051BEFFF714
:10271000E7FC00BF000B00200000000000000000EC
:1027200010B5104C82B023680193FFF789FF4FF476
:102730007A710520FFF704FDFFF7BAFF012002F0D0
:1027400017FE4FF4967008F08BFB019A23689A42AB
:1027500005D1002002B0BDE8104002F009BEFFF72D
:10276000BFFC00BF000B00200000000000000000C4
:1027700030B53F4D83B02B6801930128044641D00A
:10278000022859D003284FF000031DD01A461946DD
:10279000184602F0D5FD00231A461946012002F022
:1027A000CFFD00231A461946022002F0C9FD019A06
:1027B0002B689A425AD100231A461946032003B0C7
:1027C000BDE8304002F0BCBD194618460A2202F0AE
:1027D000B7FD002319460A22012002F0B1FD0023B3
:1027E00019460A22022002F0ABFD019A2B689A4298
:1027F0003CD10023204619460A2203B0BDE83040F0
:1028000002F09EBD00231A4618460A2102F098FDE8
:1028100000231A4620460A2102F092FD00231A46A0
:102820000A21022002F08CFD019A2B689A421DD1E8
:1028300000231A460A21C1E70022114610460A2346
:1028400002F07EFD002211460A23012002F078FDED
:10285000002211460A23204602F072FD019A2B68DD
:102860009A4203D1002211460A23A7E7FFF738FC5A
:10287000000B00200000000000000000000000002D
:1028800030B50B4D83B02B680193002003F088FC1A
:102890000446072003F084FC019A2B6820449A42E6
:1028A00000EBD07002D1401003B030BDFFF718FC30
:1028B000000B0020000000000000000000000000ED
:1028C00030B51F4D83B02B68019307E0C820FFF798
:1028D00067FC642008F0C4FAFFF76AFD07F008FA05
:1028E0006328F3D94FF4FA7008F0BAFA07E0C82069
:1028F000FFF756FC322008F0B3FAFFF759FD062027
:1029000003F04EFC0446012003F04AFC201A9628EE
:10291000EDDC07F0EDF96328E0D9012002F028FD95
:102920004FF4FA7008F09CFA019A2B689A4205D18C
:10293000002003B0BDE8304002F01ABDFFF7D0FB25
:10294000000B00200000000000000000000000005C
:102950002DE9F041DFF878815A4FD8F8003082B085
:10296000002211460520019301F06AFEFFF7A8FF3F
:102970005548564901220646FFF7EAFD16E00120B8
:1029800003F00EFC0546062003F00AFCB5F5967F21
:10299000044655DCB4F5967F47DCFFF709FD4FF49C
:1029A000FA70FFF7B5FB642008F05AFA01F090FEC8
:1029B00000285AD1FFF764FFB0F5C87FDFDB00F0D5
:1029C00087FA03281ED000F083FA01281AD000F0FD
:1029D0007FFA022816D0FFF7EBFC022003F0E0FBA1
:1029E0000446052003F0DCFB952C48DD95284FF0CC
:1029F000C8004ADCFFF714FCFFF7DAFC002002F005
:102A0000E7FFD0E7FFF7D4FC00F062FA3946024650
:102A100004463046FFF79CFD00F0A2FA012C1AD0C4
:102A2000032C37D000F0D4FABDE7FA216420FFF779
:102A300077FD642008F014FA062003F0B1FBACE740
:102A40006421FA20FFF76CFD642008F009FA0120E8
:102A500003F0A6FB9EE702214FF4FA70FFF7C0FCDB
:102A6000FFF75EFEFFF7A4FCDCE7019AD8F8003020
:102A70009A4225D102B0BDE8F041FFF799BCC820C9
:102A8000FFF78EFBFFF794FCB8E7FFF709FCFFF7B1
:102A90008FFCB3E7FFF78CFC012002F069FC0022F9
:102AA0001146072001F0CCFD019AD8F800309A4277
:102AB00006D14FF47A7002B0BDE8F04108F0D0B909
:102AC000FFF70EFB348E010864A70020108E01086A
:102AD000000B0020000000000000000000000000CB
:102AE000F0B5334C85B02368039303F049F90546EC
:102AF00003F05EF910EE100AFEF71EFC2A46CDE93F
:102B000000012C492C48FFF723FD03F069F910EE72
:102B1000100AFEF711FC0B46024628492648FFF72B
:102B200017FD07F0E5F8264902462348FFF710FD98
:102B3000002001F0C5F90546012001F0C1F9064663
:102B4000022001F0BDF90746032001F0B9F9334630
:102B50002A46CDE900701B491748FFF7F9FC6421AC
:102B60004FF4E97001F09CFC0220FFF701FE4FF4E6
:102B7000967008F075F90320FFF7FAFD4FF4967090
:102B800008F06EF90120FFF7F3FD0020FFF7F0FDDC
:102B9000002002F00DFC039A23689A4205D1002020
:102BA00005B0BDE8F04002F0E3BBFFF799FA00BFC3
:102BB000000B0020808D010864A70020988D01087B
:102BC000B88D0108D88D0108000000000000000049
:102BD00000B52B4A2B4B92692B491B68916183B03E
:102BE000019302F09DFF0028B8BF03308010032836
:102BF0003CD8DFE800F02A31080201F069FDC8BBCB
:102C0000FFF7D6FBEDE701F063FD0028F8D00120C7
:102C1000FFF7AEFD4FF47A7008F022F90220FFF7BB
:102C2000A7FD4FF47A7008F01BF90320FFF7A0FD11
:102C30004FF47A7008F014F90020FFF799FD052190
:102C40004FF47A70FFF76CFBDAE701F041FD0028E2
:102C5000D6D0FFF77DFED3E701F03AFD0028CFD0B4
:102C6000FFF73EFF642008F0FBF8C9E7C820FFF734
:102C7000B7FCC5E700F02CF9FFF77AFDC0E700BF0D
:102C800040990020000B0020508E01080000000039
:102C900010B50A4C0A4B22680A4884B040F67811F5
:102CA000039200220092402208F082F8039A2368DF
:102CB0009A4201D104B010BDFFF712FA000B0020B8
:102CC000D12B0008C0180020000000000000000008
:102CD0002DE9F04F2D4A2E4B92692E4F2E4E2F4D3F
:102CE0002F491B68DFF8D8B0916183B007F2DF1A73
:102CF000019306F2DF1905F2DF182A4808F098FC64
:102D000001F036FE0022014600F5A06C835CC2F3A0
:102D10004E04DB083B554B7803F01F033355835CAF
:102D200091F801E0DB0003F03803023143EA5E135F
:102D30008C4502F102022B55E8D11B4B002213F8FF
:102D4000011F9A450A44FAD1ABFB02321749184BCE
:102D5000C2F307220A60002213F8011F99450A44B2
:102D6000FAD1ABFB02321349134BC2F307220A60BC
:102D7000002213F8011F98450A44FAD1ABFB022345
:102D80000E4AC3F307231360B7E700BF4099002042
:102D9000000B00203C2700203C220020BC24002007
:102DA000808E0108300B0020DB270020BC2900208A
:102DB000DB220020382200205B2500202C0B002085
:102DC000CDCCCCCC000000000000000000000000D2
:102DD00080B5244C244AA3692449996186B0022312
:102DE0002025166800930A224FF420730021CDE9B4
:102DF00001553020059601F063FE1D4E1D4F002049
:102E000002F0E6F801F064FD002001F099FDB04603
:102E100001F0FEFC13E007F0E3FE07F009FB08F009
:102E20005FFB2368A34207D0A2699B6892689A421D
:102E300002D2384607F03CFA002383F3118801F0F0
:102E4000BFFD01F025FD85F3118808F031FB07F087
:102E5000CFFA07F09DFBB368002BDCDC404608F09E
:102E60001FFCD8E740990020000B0020708E01085D
:102E7000300B0020908E01080000000000000000D0
:102E800030B50E4C0E4B22680E4885B000250392DB
:102E900041F278114122009507F08AFF0A4B009514
:102EA00041220A484FF41E7107F082FF039A2368FB
:102EB0009A4201D105B030BDFFF712F9000B002096
:102EC000D12C0008382C0020D12D0008C02900206A
:102ED00030B51D4B1D491B6808681D4C1D4A2468F0
:102EE000126883B0019003F10900122807D802F19B
:102EF0000900122803D804F10900122820D902F190
:102F00000A0098420ADA04F10A059D4206DA012015
:102F1000019A0B689A4215D103B030BD0A3393422F
:102F200003DA04F10A05954208DBA34204DAA04261
:102F3000B4BF03200020EBE70020E9E70220E7E729
:102F40000420E5E7FFF7CCF8BC290020000B0020A7
:102F50002C0B0020382200200000000000000000A0
:102F600010B5194C82B023680193FFF7B1FF042814
:102F70001CD00128019A0DD002280BD00328236809
:102F80000DD09A4208BF002007D102B0BDE8104022
:102F9000FFF7EEBB23689A42F7D0FFF7A1F89A42F9
:102FA000FBD102B0BDE81040FFF7E2BB019A2368F5
:102FB0009A42F2D10A231A461946002002B0BDE80F
:102FC000104002F0BDB900BF000B0020000000005F
:102FD00000B5084B83B01A680192019A1B689A42A7
:102FE00005D1002003B05DF804EBFFF7C1BBFFF78C
:102FF00077F800BF000B0020000000000000000078
:1030000030B54368174D1A68296883B004460191AA
:1030100012B304220270DA681B68520811469847FE
:103020002378042B18D0202383F3118808F070FA3A
:1030300007F01EFA04F10800002108F001F807F07B
:1030400037FA08F07DFA002383F31188019A2B6880
:103050009A4204D103B030BD02232370E3E7FFF7A7
:103060003FF800BF000B002000000000000000003F
:1030700070B5194D82B02B68019311F00C0F0C46FE
:10308000064622D114F0200109D0019A2B689A42F9
:103090001FD1304602B0BDE87040FFF7B1BFE30674
:1030A0000DD57268136853B1019C2868844210D111
:1030B000D2683046520802B0BDE870401847019A05
:1030C0002B689A4205D102B070BD044807F0F0F8B1
:1030D000D8E7FFF705F800BF000B0020C08E0108FD
:1030E00070B5194D82B02B68019311F00C0F0C468E
:1030F000064622D114F0200109D0019A2B689A4289
:103100001FD1304602B0BDE87040FFF779BFE3063B
:103110000DD57268136853B1019C2868844210D1A0
:10312000D2683046520802B0BDE870401847019A94
:103130002B689A4205D102B070BD044807F0B8F878
:10314000D8E7FEF7CDFF00BF000B0020C08E0108BE
:1031500030B50F4D0F4C2A680F4B83B020460192BB
:103160004FF6FF721A8000F013FC0C4B01992A688D
:103170000B480C4D2562636203F1240591420A4B12
:103180002363C4E90A5001D103B030BDFEF7A8FFA4
:10319000000B0020C83D0020B03D002088B0010891
:1031A0001E010100003C004046000100000000003C
:1031B00070B52C4D03782A6882B0012B0446019229
:1031C00024D06368E26A5989236B22F4F04223F425
:1031D000F043090544BF42F4205243F42053C4E9AC
:1031E0000B23236A00221A606268236A52891A60DC
:1031F000236A03225A60226A136843F04003136073
:10320000019A2B689A422BD102B070BD164EB04283
:103210000AD0D4E9083212680C339360A26A236A98
:1032200012680C339360CCE70346104A406A0A21C7
:103230000CF046F880B9B06A0B4B0D4A0A210CF02D
:103240003FF828B90B4A136C43F400431364E0E7DA
:10325000094807F02DF8F5E7074807F029F8EAE7ED
:10326000FEF73EFF000B0020C83D0020E1300008C3
:103270007130000800380240A08E010800000000F4
:1032800070B5456A174C2D68266882B00196EB60D0
:10329000436A1B685960456AC36A2D6843F48063BA
:1032A0002B60836A1B68DA60836A1B685960826AD4
:1032B000036B126843F480631360436A1A681368EF
:1032C00043F001031360836A1A68136843F0010333
:1032D0001360019A23689A4201D102B070BDFEF7D3
:1032E000FFFE00BF000B00200000000000000000F7
:1032F00030B5104D81682B680F4A83B001930B687D
:1033000023F001030B608168946A03E0936A1B1B3E
:10331000C72B09D8086810F00100F7D1019A2B6873
:103320009A4204D103B030BD4FF0FF30F6E7FEF70C
:10333000D7FE00BF000B00204099002000000000D5
:1033400030B5184D83B02B68019311F00C0F044673
:103350000AD00378032B13D00622636822709A6880
:103360001AB100212046904763685B688BB10199D0
:103370002A68914213D1204603B0BDE83040184777
:10338000FFF7B6FF0622636822709A68002AE8D128
:10339000EBE7019A2B689A4201D103B030BDFEF7EA
:1033A0009FFE00BF000B0020000000000000000096
:1033B000F0B5284D83B02B68019308F041F807F071
:1033C00097F8254B1E69F20715D55A69234C42F030
:1033D00001025A612778BB1F012B2AD90522636895
:1033E00022701B680BB120469847042F27D0022F6C
:1033F00025D003232370B30710D5174A174C536900
:1034000043F0020353612378032B1DD063689B684C
:103410000622227013B101211048984707F090F856
:10342000019A2B689A4213D103B0BDE8F04008F02E
:10343000EFBF019A2B689A420AD103B0F0BD022374
:103440002370B307EAD5D8E72046FFF751FFDDE741
:10345000FEF746FE000B002000000550B43D0020A2
:1034600030B50B4D0B4C2B6883B02046019300F018
:103470002FF9019A2B680848084D094921619A42A1
:10348000C4E9025001D103B030BDFEF729FE00BFF0
:10349000000B0020B43D0020DCB001080000055006
:1034A00016550202000000000000000000000000AD
:1034B0002DE9F0412F4C0578266882B0012D019648
:1034C00006D0019A23689A4252D102B0BDE8F08139
:1034D000294DA842F5D10E4690461F46274AE86876
:1034E0002B460C210BF0ECFE002839D1D5E9023235
:1034F000126828339360EB681A68042151611B68D5
:10350000C3F80C80EB681A6817611B68B6085E6028
:103510002B694FB343F480232B61E968184A09688B
:103520000B60EB6819680B6843F001030B60536B89
:1035300043F0010353630B214E200BF0A1FBD5E9AF
:103540000113DA6842F00102DA60DA6842F002023E
:10355000DA60CA6822F4804222F001021A60B0E701
:10356000084806F0A5FEC1E723F480232B61D4E7C9
:10357000FEF7B6FD000B0020B43D002041330008EB
:1035800000380240D08E010800000000000000005A
:1035900030B5184C0378226883B0022B019205D015
:1035A000019A23689A4223D103B030BD124B98424E
:1035B0000546F5D18168114A0B6823F4804323F056
:1035C00001030B608168CB6823F00F03CB60536B62
:1035D00023F0010353634E200BF07AFB019A23681A
:1035E0009A4205D1E86803B0BDE830400BF0D0BE88
:1035F000FEF776FD000B0020B43D002000380240AD
:1036000000B50F4B0278196883B0022A01910ED1E0
:1036100081680A6842F002020A6081680A6842F41E
:1036200080420A6081680A6842F001020A60019AD9
:103630001B689A4202D103B05DF804FBFEF750FD0F
:10364000000B00200000000000000000000000004F
:1036500000B50F4B0278196883B0022A01910ED190
:1036600081680A6822F002020A6081680A6842F4EE
:1036700080420A6081680A6842F001020A60019A89
:103680001B689A4202D103B05DF804FBFEF728FDE7
:10369000000B0020000000000000000000000000FF
:1036A00000B5074B83B01A680192019A1B689A42D1
:1036B00004D103B05DF804EBFFF7D2BEFEF710FDB6
:1036C000000B0020000000000000000000000000CF
:1036D00000B5084B83B01A68019201220270019A6A
:1036E0001B6800219A42416002D103B05DF804FBDF
:1036F000FEF7F6FC000B00200000000000000000B8
:103700002DE9F043254D83B02C680194DDF8289015
:103710000F4616469846044618B111B1204B9A42FE
:103720002FD9204806F0C4FD202383F3118807F029
:10373000BFFE06F05DFE2378012B02D0194806F08B
:10374000B7FD4246314620464B466760FFF7B0FE64
:103750000223237006F06CFE07F0C2FE124B1A68BB
:103760009A4204D0996993688A689A420FD30023D9
:1037700083F31188019A2B689A420CD103B0BDE8FB
:10378000F0839307CDD1B8F1000FCDD1C9E7074839
:1037900006F08EFDEBE7FEF7A3FC00BF000B002058
:1037A000FCFF0300008F010840990020F08E010803
:1037B00030B51C4D83B02B680193044658B32023C9
:1037C00083F3118807F074FE06F012FE2378022BB3
:1037D00002D0154806F06CFD2046FFF7D9FE012304
:1037E000237006F025FE07F07BFE104B1A689A4204
:1037F00004D0996993688A689A4208D3002383F3B6
:103800001188019A2B689A4209D103B030BD08484B
:1038100006F04EFDF2E7044806F04AFDCFE7FEF75A
:103820005FFC00BF000B0020108F010840990020B2
:10383000F08E010800000000000000000000000001
:1038400030B51C4D83B02B680193044658B3202338
:1038500083F3118807F02CFE06F0CAFD2378022BB3
:1038600002D0154806F024FD2046FFF7C9FE0423C8
:10387000237006F0DDFD07F033FE104B1A689A4204
:1038800004D0996993688A689A4208D3002383F325
:103890001188019A2B689A4209D103B030BD0848BB
:1038A00006F006FDF2E7044806F002FDCFE7FEF75A
:1038B00017FC00BF000B0020208F0108409900205A
:1038C000F08E010800000000000000000000000071
:1038D00030B51C4D83B02B680193044658B32023A8
:1038E00083F3118807F0E4FD06F082FD2378022BB4
:1038F00002D0154806F0DCFC2046FFF7A9FE0323A2
:10390000237006F095FD07F0EBFD104B1A689A4204
:1039100004D0996993688A689A4208D3002383F394
:103920001188019A2B689A4209D103B030BD08482A
:1039300006F0BEFCF2E7044806F0BAFCCFE7FEF75B
:10394000CFFB00BF000B0020408F010840990020F2
:10395000F08E0108000000000000000000000000E0
:1039600000B5074B83B01A680192019A1B689A420E
:1039700004D103B05DF804EBFFF7EABBFEF7B0FB40
:10398000000B00200000000000000000000000000C
:1039900000B50A4B83B01A680192012202700199A6
:1039A0001A6800239142C0E9013305D10C3003B0FD
:1039B0005DF804EB07F0B4BEFEF792FB000B0020AD
:1039C00070B51E4D82B02B6801930E46044670B34D
:1039D00069B3202383F3118807F06AFD06F008FD20
:1039E0002378013B012B02D9154806F061FC2046E3
:1039F0006660FFF7DDFB0223237006F019FD07F078
:103A00006FFD104B1A689A4204D0996993688A68CE
:103A10009A4208D3002383F31188019A2B689A42B3
:103A200009D102B070BD084806F042FCF2E7044834
:103A300006F03EFCCDE7FEF753FB00BF000B002075
:103A4000608F010840990020508F0108000000009D
:103A50002DE9F041214D82B02C6801940E4690462C
:103A60001F46044600B171BB1D4806F021FC20230F
:103A700083F3118807F01CFD06F0BAFC2378022BB3
:103A800002D0174806F014FC03203B46424631465C
:103A900020702046FFF7F4FB06F0CAFC07F020FD7B
:103AA000104B1A689A4204D0996993688A689A42BE
:103AB0000ED3002383F31188019A2B689A420BD10D
:103AC00002B0BDE8F081002BCED0002ACFD1CBE7E9
:103AD000054806F0EDFBECE7FEF702FB000B0020CB
:103AE000708F010840990020508F010800000000ED
:103AF00000B5084B83B01A680192019A1B689A427C
:103B000005D1054803B05DF804EB06F0D1BBFEF724
:103B1000E7FA00BF000B0020908F010800000000B2
:103B200070B51849184C0A78236882B001934FF495
:103B3000B47303FB00F562B1019A23689A421FD166
:103B400012481349B1FBF5F102B0BDE8704009F02D
:103B5000FFB81048104A01260E70802141830F499A
:103B60000F4808F085FF019A23689A4208D1074858
:103B70000749B1FBF5F102B0BDE8704009F050B95A
:103B8000FEF7AEFA203E0020000B0020E4A6002045
:103B900000BD0105000C0240A08F0108103E00206E
:103BA00090A30020000000000000000000000000C2
:103BB000F0B51A4D1A4C2E78276883B00197174636
:103BC00066B1019A23689A4226D116481649B1FB7C
:103BD000F7F103B0BDE8F04009F0BAB8134EDFF8D2
:103BE00054C0736002464FF0010E80200B4685F8EA
:103BF00000E03146ACF81A000D4808F039FF019A90
:103C000023689A4208D107480749B1FBF7F103B08E
:103C1000BDE8F04009F004B9FEF762FA203E00204A
:103C2000000B0020E4A6002000BD0105103E00208E
:103C300090A30020000C02400000000000000000E3
:103C4000F0B5114C83B02368019305460F480E462A
:103C5000174609F01DF90E4808F09AFF33462A4628
:103C60000C490B4808F0CCFE019A23689A4208D10F
:103C700006480949B1FBF7F103B0BDE8F04009F08F
:103C8000A7B8FEF72DFA00BF000B0020E4A6002025
:103C900090A30020103E002000BD010500000000A0
:103CA00010B50C4C0C4B22680C4882B0019280225B
:103CB0001A8309F0EDF80A4808F06AFF019A2368B0
:103CC000084900209A42087001D102B010BDFEF7E9
:103CD00007FA00BF000B0020000C0240E4A6002001
:103CE00090A30020203E0020000000000000000003
:103CF00010B50C4C0C4B22680C4882B0019280220B
:103D00001A8309F0EDF80A4808F0F2FE019A2368D8
:103D1000084900209A42087001D102B010BDFEF798
:103D2000DFF900BF000B0020000C0240E4A60020D9
:103D300090A30020203E00200000000000000000B2
:103D400070B5154D154A164B2968164E9E6082B007
:103D500000244FF4006010800191947011461248C5
:103D60005C6001221A60DC6008F002FE0F4B104E0E
:103D700010485C60202219469A60DC601E6008F0E2
:103D80009FFF019A2B689A4204D102B0BDE87040AF
:103D9000FFF7AEBFFEF7A4F9000B00200C3E002099
:103DA000103E0020F13A000890A30020FC3D0020C6
:103DB00000BD0105E4A60020000000000000000096
:103DC0002DE9F04F394A3A4B126883B00124019231
:103DD0001C70002963D04FF00008364CC246C34621
:103DE000C1464746C446434647F6FF7E1DE0AB4505
:103DF000A8BFAB46024432F9026CB2F90450B44297
:103E0000B8BF3446B645A8BFB6464D4545DCA845C3
:103E1000A8BFA846B2F90220BA420EDC043392458C
:103E20009BB2A8BF924699420CD95D1C6A0030F93A
:103E300015506545DBDDAC46DCE704339BB29942A7
:103E40001746F2D8A4EB0E04ACEB0B0CA7EB0A0759
:103E5000A9EB0808A4B21FFA8CFCBFB21FFA88F8BD
:103E6000154A12491480019C0968144BA2F802C03B
:103E70009780B0F8F8C4B0F8FA64A2F80680B0F8F9
:103E8000FC54B0F8FE24A3F800C08C425E809D80F4
:103E9000DA8008D103B0BDE8F08FA946BAE78846BA
:103EA0000F468C46DCE7FEF71BF900BF000B002035
:103EB000213E00200080FFFF2C3E0020243E0020F9
:103EC00000B50A4B83B01A68019203289CBF084AC8
:103ED00032F81000019A1B6888BF00209A4202D174
:103EE00003B05DF804FBFEF7FBF800BF000B0020F9
:103EF0002C3E002000000000000000000000000038
:103F000070B53F4B3F4C1A78236882B0012A019369
:103F100005D0019A23689A4270D102B070BD3A4927
:103F20003A4B4D6C45F480354D644E6A002546F49D
:103F300080364E624D621D61DD60196A21F001011B
:103F40001962996921F003019961996941F00101B0
:103F50009961996921F0F0019961196A21F00A01CA
:103F60001962996921F00C019961996821F0700139
:103F70009960996841F050019960996821F4803105
:103F800021F007019960996841F00701996019686B
:103F900021F440711960DA629D625A61196A21F058
:103FA00010011962996921F440719961996921F0B0
:103FB000807121F4E0419961996941F4C0419961AE
:103FC000196A21F0A00119629A639A6942F40062A9
:103FD0009A611A6A22F480621A621A6A42F0110225
:103FE0001A621A6842F001021A6020B10090684615
:103FF00000F076F98DE7064B0093F8E7FEF770F8CE
:104000007CA60020000B0020003802400040014048
:10401000C13D00080000000000000000000000009A
:1040200070B5114C82B0236801930E4615462023CB
:1040300083F3118807F06CFA06F01AFA0B4B0C4860
:10404000C3E9006507F02CFB06F032FA07F078FAB6
:10405000002383F31188019A23689A4201D102B0A8
:1040600070BDFEF73DF800BF000B00204853002054
:10407000343E0020000000000000000000000000AE
:1040800070B5114C82B0236801930E46154620236B
:1040900083F3118807F03CFA06F0EAF90B4B0C4861
:1040A000C3E9006507F0FCFA06F002FA07F048FAE7
:1040B000002383F31188019A23689A4201D102B048
:1040C00070BDFEF70DF800BF000B00202C51002042
:1040D000343E00200000000000000000000000004E
:1040E0002DE9F04F624B63499A69634B916185B04A
:1040F0001B6803935E4B9B6993F821305B0700F1CB
:10410000AD805E4807F094FA5C4807F091FA584B8E
:104110009B6993F8212012F0040240F09F80584DD3
:1041200058482B6801680446406805EB830304EB9C
:10413000810103F50279430001F10808019343D09E
:10414000DFF850B1504BDFF85CA1012018F8125095
:1041500018F8006019F8121019F8004005F0550C15
:10416000770806F0550613F80CC09E5D01F0550E59
:104170004CEA061649084FEA540C01F0550104F0C8
:1041800055040CF0550C6D0813F80EE0595C1C5DDD
:1041900013F80CC00BF8126005F0550507F0550731
:1041A00041EA0C114EEA041E0AF812E05D5D0AF8BD
:1041B0000010DF5D0199013245EA071591420BF8C5
:1041C000005000F10200C1D1304B31493148324D2D
:1041D0000422FCF74DF9314B314932480422FCF7F7
:1041E00047F9314B314932480422FCF741F9314B50
:1041F000314932480422FCF73BF9DFF8D4C0286883
:104200009CF80070224A264900EBC71302F14006D1
:1042100014881C8054885C804C889C80043231F85F
:10422000044BDC80964203F10803F1D1092F11D130
:10423000234B00221B688CF800204FF42071984714
:104240002B68204A204993420B6006BF1F4B2B600E
:104250002A604FE701378CF800704BE7064B039A52
:104260001B689A4202D105B0BDE8F08FFDF738FF18
:104270004099002070920108000B0020343E00207D
:10428000485300202C5100203C0B0020044F0020FC
:10429000C043002000440020BC0B00206C4F0020D5
:1042A000D44F002014500020384F0020C24300207B
:1042B00001440020A04F0020D64F002015500020C0
:1042C0001451002000450020C00B0020004A0020AF
:1042D000004F00200000000000000000000000006F
:1042E0002DE9F04F494A0168494B116085B0002122
:1042F0000E461B684748039307F03AF94FF4AF6145
:10430000454B009641224548454DDFF84891454CC4
:10431000DFF844A1444F06F04BFD444B444A18607B
:10432000136BC5F804A043F480534FF002184FF408
:104330007A5B13632846C5E90298A5F800B0FBF73D
:10434000DFFF2046C4E901A9C4F80C80A4F800B03E
:10435000FBF7D6FF05F13400C5E90EA9C5F840808A
:10436000A5F834B0FBF7CCFF324DC4F8408004F11F
:104370003400C4E90EA9A4F834B0FBF7C1FF3146FC
:1043800040F20C42384611F083FADFF8D0902A4A06
:104390006E604FF400634FF080082E812A606B81BD
:1043A000264CC5F80C80C7F80894FFF7D9FA2946BF
:1043B0002348244DFFF704FB07F5027307F10802B9
:1043C0004FF480711E48FFF743FB314620464FF4FF
:1043D000037211F05DFA1C4B1C4AC4F808920834B1
:1043E0001A611946C3E900641948C3E9028508F057
:1043F00067FF074B039A1B689A4205D1144805B022
:10440000BDE8F04F08F0A4BFFDF76AFE145100208C
:10441000000B0020343E0020E1400008483E002010
:10442000044F00206C4F002048530020403E0020E5
:104430000038024038530020214000082C51002051
:10444000C83D002081400008185100202C030800BE
:104450007CA60020000020410000FA45EFBEADDE42
:1044600010B50B4C0B48236882B0019307F040FA5B
:10447000094807F01DFC019A23689A4205D10548B6
:1044800002B0BDE8104007F06BBAFDF729FE00BF8F
:10449000000B0020D00B0020C80B00200000000003
:1044A00030B50F4C83B0236801930D4608B1FFF778
:1044B00037FB4FF47A700B4900FB05F000F2E73050
:1044C000A1FB0030800906F0CBFC019A23689A42D8
:1044D00004D103B0BDE83040FFF70ABCFDF700FE91
:1044E000000B0020D34D621000000000000000000F
:1044F0002DE9F0432DED028BDFF8FC80344BD8F82A
:10450000182034491B68344DDFED348A9FED348A1E
:10451000344E354F916183B00193202383F311888A
:1045200006F0C6FF05F064FF304806F031FD286054
:1045300005F07EFF06F0D4FFD8F80030434508D0E0
:10454000D8F818209B6892689A4202D2284805F051
:10455000AFFE4FF0000989F311882B681A8972BBEE
:1045600030E0D3E9001202EB890393ED007A31F8D1
:104570001900C8EE877A09F10109FCEEE77A17EE17
:10458000903A9CB22146FFF78BFF07EE904AF8EE77
:10459000E77A4FF47A7367EE887AFCEEE77A17EEE3
:1045A000902A90B203FB00F000F2E730A7FB003046
:1045B000800906F055FC2B681A894A4502DD3278DD
:1045C000002ACED100230B48337007F0F1FAA4E79C
:1045D000000B0020809201085857002000007A4408
:1045E0006666A63FC40B0020D34D621054570020CE
:1045F00090920108C80B00204099002000000000A4
:1046000010B50A4C0A4B22680A4884B04FF4FC717A
:10461000039200220092402206F0CAFB039A23680C
:104620009A4201D104B010BDFDF75AFD000B0020E5
:10463000F144000860570020000000000000000066
:1046400030B51E4C85B0236803930F2815D00E2873
:1046500015D81B4A00EB400002EB800219480368A2
:1046600099B963B103992368174D012499422C70BD
:1046700008BF114617D0FDF733FD002AEED1039A8B
:1046800023689A42F7D105B030BD02290E4D04BF10
:104690000021297063B10399236801209942287091
:1046A000E9D10848114605B0BDE8304006F028BD04
:1046B0000192FFF7D5FE019AEDE700BF000B002045
:1046C000A097010854570020C40B002000000000F0
:1046D00000B5074B07491A68087883B00192019A20
:1046E0001B689A4202D103B05DF804FBFDF7F8FCA9
:1046F000000B0020585900200000000000000000BE
:1047000000B5074B07491A68087083B00192019AF7
:104710001B689A4202D103B05DF804FBFDF7E0FC90
:10472000000B00205859002000000000000000008D
:1047300000B5064B83B01A680192019A1B689A4231
:1047400002D103B05DF804FBFDF7CAFC000B0020AA
:1047500000B5064B83B01A680192019A1B689A4211
:1047600002D103B05DF804FBFDF7BAFC000B00209A
:1047700010B5104C104B226882B0019201221A70C1
:10478000202383F3118806F0C3FE05F071FE0B4869
:1047900007F0E6F905F08CFE06F0D2FE002383F365
:1047A0001188019A23689A4201D102B010BDFDF729
:1047B00097FC00BF000B002064590020E40B002090
:1047C00030B50E4D0E4C2B6883B00193FEF768FF99
:1047D000206808B110F094FD4FF4964010F088FD69
:1047E00001992A682060B0FA80F35B099142C3F115
:1047F000000001D103B030BDFDF772FC000B0020BA
:104800005C590020000000000000000000000000D3
:1048100030B5174D174C2B78226885B0012B0392C9
:1048200020D000F005FC144B1B78ABB9B0F5964FC7
:1048300015D8124A124B12681B68124900920246A0
:104840001148FEF75DFF01232B700020039A2368B7
:104850009A420BD105B030BDB0F5165FE9D94FF0E3
:10486000FF30F3E70848FEF7A3FFDAE7FDF738FC6F
:104870005A590020000B00205B590020605900208D
:104880005C590020E0A40108B43D002000000000B5
:1048900010B50B4C0B48236882B0019307F028F841
:1048A000094807F005FA019A23689A4205D105489C
:1048B00002B0BDE8104007F053B8FDF711FC00BF8F
:1048C000000B0020EC0B0020E40B00200000000097
:1048D00030B5154D154C164B2268286883B00192EF
:1048E00001221A7008B110F00BFD4FF4165010F0B1
:1048F000FFFC286098B10F4D286808B110F000FD4A
:104900004FF4165010F0F4FCB0FA80F35B09286005
:104910005842019A23689A4204D103B030BD4FF047
:10492000FF30F6E7FDF7DCFB5C590020000B0020B0
:104930005B590020605900200000000000000000CA
:1049400000B5074B07491A68087083B00192019AB5
:104950001B689A4202D103B05DF804FBFDF7C0FB6F
:10496000000B00205959002000000000000000004A
:1049700000B50D4A0D4B1278196883B0019142B110
:104980000B4AD26812681268120302D4094A1068EE
:1049900001E0094A1068019A1B689A4202D103B0EB
:1049A0005DF804FBFDF79CFB5B590020000B002029
:1049B000B43D0020605900205C5900200000000038
:1049C00000B50E4A0E4B1278196883B001914AB1B6
:1049D000019A1B689A420FD10A4803B05DF804EBB4
:1049E000FEF776BF019A1B689A4205D1054803B0CD
:1049F0005DF804EBFEF724BFFDF772FB5959002068
:104A0000000B0020B43D002000000000000000006A
:104A100070B5274D82B02B68019306460122032111
:104A20006E2000F0E5FB044630B1019A2B689A42F3
:104A300020463AD102B070BD32464E216E2000F0C1
:104A4000D7FB04460028F0D1442E07D00246B721F8
:104A50006E2000F0CDFBB8B10446E6E70122B72195
:104A60006E2000F0C5FB0028F6D1224603216E20FF
:104A700000F0BEFB0028EFD1032211216E2000F0D0
:104A8000B7FB78B10446D0E7224603216E2000F040
:104A9000AFFB0028E0D10A2211216E2000F0A8FB14
:104AA0000028D9D1034B1E71BFE7FDF719FB00BFEA
:104AB000000B0020685900200000000000000000EA
:104AC0002DE9F04F8FB0DFF80084DDF860C0D8F832
:104AD00000400D940CF1FF355C1EB3F5207F9DF86E
:104AE00064909DF868B00C44154400F21282BCF545
:104AF000F07F00F20E82B1F5207F0E4600F21282A6
:104B0000B2F5F07F174600F21082A14280F00482D5
:104B1000B4F5207F00F20082AA4280F00082B5F551
:104B2000F07F00F2FC81B9F1400F824600F0B081C5
:104B3000B9F1800F23D0B9F1200F00F09C81002340
:104B4000CDE90033BBF1400F2FD0BBF1800F00F057
:104B5000CB81BBF1200F00F0B9810023CDE90233F6
:104B6000002203216E2000F043FBA0B30D9AD8F879
:104B700000309A4240F0E2810FB0BDE8F08F9A0712
:104B800040F0D681CC4A8C085900661CA2FB01017A
:104B9000A2FB030204EB930406EBD2030093BBF1E8
:104BA000400F06EBD1030193CFD11CF0010F40F071
:104BB000C281C14B7D084FEA4C026F1CA3FB02125D
:104BC000A3FB0C1307EB9303029307EB920305EB94
:104BD0005C050393C4E702465B216E2000F008FBEE
:104BE0000028C3D15046FFF713FF0028BED102466C
:104BF00003216E2000F0FCFA0028B7D1C6F307238A
:104C00001A4608216E20049300F0F2FA0028ADD174
:104C1000F3B21A4609216E20059300F0E9FA002844
:104C2000A4D1C7F307231A460A216E20069300F089
:104C3000DFFA00289AD1FBB21A460B216E200793A7
:104C400000F0D6FA002891D1C4F307231A460C21AC
:104C50006E20089300F0CCFA002887D1E3B21A4600
:104C60000D216E20099300F0C3FA00287FF47EAF77
:104C7000C5F307231A460E216E200A9300F0B8FAF6
:104C800000287FF473AFEBB21A460F216E200B930E
:104C900000F0AEFA00287FF469AF049A35216E2047
:104CA00000F0A6FA00287FF461AF059A36216E2045
:104CB00000F09EFA00287FF459AF089A37216E2041
:104CC00000F096FA00287FF451AF099A38216E203F
:104CD00000F08EFA00287FF449AF069A39216E2041
:104CE00000F086FA00287FF441AF079A3A216E203F
:104CF00000F07EFA00287FF439AF0A9A3B216E203B
:104D000000F076FA00287FF431AF0B9A3C216E2038
:104D100000F06EFA00287FF429AF009B3D21C3F319
:104D200007226E2000F064FA00287FF41FAF9DF880
:104D300000203E216E2000F05BFA00287FF416AFC1
:104D4000019B3F21C3F307226E2000F051FA002897
:104D50007FF40CAF9DF8042040216E2000F048FA4B
:104D600000287FF403AF029B4121C3F307226E208A
:104D700000F03EFA00287FF4F9AE9DF808204221A9
:104D80006E2000F035FA00287FF4F0AE039B43213B
:104D9000C3F307226E2000F02BFA00287FF4E6AE62
:104DA0009DF80C2044216E2000F022FA00287FF4A8
:104DB000DDAE012203216E2000F01AFA00287FF4F4
:104DC000D5AE4A4693216E2000F012FA00287FF4F7
:104DD000CDAE5A4694216E2000F00AFA00287FF4E6
:104DE000C5AE012203216E2000F002FA00287FF4F4
:104DF000BDAE0134A31B07EE103ADFED307AB8EEFA
:104E0000477ABAF1440F77EEC77A00F09980B0EE96
:104E1000006AF2EE006AE7EE066A77EEA77AB0EE75
:104E2000667A67EE877ADFED266A87EEA67AFCEE71
:104E3000C77ACDED007A009B9521C3F307226E203F
:104E400000F0D6F900287FF491AE9DF8002096215D
:104E50006E2000F0CDF900287FF488AE194B0135A3
:104E6000EF1BA41B5F801C8083F804A083F80590CF
:104E700083F806B07AE610495A00A1FB030306EB5B
:104E80005303A1FB0212009306EB5203019359E670
:104E9000D9074DD4084A74085900661CA2FB0101C9
:104EA000A2FB030204EB530406EB9203009306EB10
:104EB0009103019346E600BFABAAAAAA00002244D0
:104EC0000000A34468590020000B0020244A4FEA48
:104ED0004C03A2FB0C1CA2FB032307EB530307EBC1
:104EE0005C02029203933BE61CF0030F23D11C4BA0
:104EF000BD084FEA4C026F1CA3FB0212A3FB0C136C
:104F000007EBD303029307EBD20305EB9C05039356
:104F100026E66FF0070029E66FF0030026E66FF043
:104F2000040023E66FF0010020E66FF002001DE6AA
:104F30006FF005001AE66FF0060017E6FDF7D0F8EF
:104F4000F2EE006A37EE267ADFED066A67EE277A20
:104F500087EEA67AFCEEC77ACDED007A6BE700BF4C
:104F6000ABAAAAAA00002444000000000000000030
:104F700010B5114C86B02368059300F0B1F80F49C5
:104F80000F4808F05DFA012200210D4808F0F0FA00
:104F900020237822CDE901330092A023B422F0210E
:104FA0000220FFF78DFD059A23689A4201D106B0D1
:104FB00010BDFDF795F800BF000B0020F0A401081C
:104FC00048A70020000000000000000000000000D2
:104FD00030B5164C83B023680193054600230222A6
:104FE00003216E208DF8033000F002F928B1019AF8
:104FF00023689A4218D103B030BD0DF10302042199
:105000006E2000F0A5F80028F1D19DF80320012DB5
:105010000CBF02F0FB0242F0040204216E208DF866
:10502000032000F0E5F8E2E7FDF75AF8000B002056
:1050300010B50A4B0A4A1988146858881B7982B03F
:10504000442B019400FB01F00199136818BF400044
:10505000994201D102B010BDFDF742F86859002015
:10506000000B002000000000000000000000000015
:1050700070B5164E16483368154D82B005224FF4B0
:10508000807101930CF0F4F820246B6983F4807331
:105090006B61012005F0E4FE631E13F0FF04F4D100
:1050A0004FF4807140F20622298309480CF0E0F8A1
:1050B000019A33689A4206D10649074802B0BDE812
:1050C000704007F075BFFDF70BF800BF000B002024
:1050D0000004024030A50108C0A300200000000029
:1050E00000B50C4A0C4B1278196883B0012A019163
:1050F000019A1B6804D09A4209D103B05DF804FB01
:105100009A4204D103B05DF804EBFFF7B1BFFCF79E
:10511000E7FF00BFC0A30020000B0020000000003C
:1051200000B5084B83B01A680192019A1B689A4235
:1051300005D1054803B05DF804EB07F081BFFCF72B
:10514000CFFF00BF000B0020C0A300200000000024
:105150002DE9F041224C234E88B0002335688DF8AC
:105160001830804620468DF814101746079508F031
:1051700037F82378012B0CD00420012306AACDE9AF
:1051800001300092414605AA204607F0B9FF0546C6
:1051900068B9134808F044F89DF818303B700020B7
:1051A000079A33689A4218D108B0BDE8F0812046CA
:1051B00007F08EFF23780C4A052B106004D00848B6
:1051C00008F02EF868B2EBE7204607F039FF2378A5
:1051D000012BF4D1FFF74CFFF1E7FCF781FF00BF93
:1051E000C0A30020000B0020705900200000000028
:1051F000F0B5214C214E89B033680793074600254E
:1052000020468DF818108DF819208DF8145007F0ED
:10521000E7FF2378012B0CD0042205AB0195029205
:1052200000933946022306AA204607F069FF054687
:1052300048B9114807F0F4FF0020079A33689A42F2
:1052400017D109B0F0BD204607F042FF23780C4A81
:10525000052B106004D0084807F0E2FF68B2ECE7C5
:10526000204607F0EDFE2378012BF4D1FFF700FF75
:10527000F1E7FCF735FF00BFC0A30020000B0020C2
:105280007059002000000000000000000000000035
:1052900070B5294D82B02B6801930E46032841D882
:1052A000DFE800F01A120A02012922D9234A5369C1
:1052B00083F40063536116E0012926D91F4A53691C
:1052C00083F4806353610EE0012918D91B4A5369A6
:1052D00083F04003536106E001291CD9174A536942
:1052E00083F020035361019A2B689A4218D102B0CF
:1052F00070BD124B4FF4006229B15A83F3E70F4B94
:1053000040220029F9D11A83EDE70C4B4FF480625B
:105310000029F8D0F1E7094B20220029F3D0ECE76F
:10532000FCF7DEFE0024E0B231460134FFF7B0FFA7
:10533000042CF8D1D7E700BF000B0020000C02407E
:1053400070B5094D094E2C6882B000EB4000019405
:10535000315434180198296862708842A37001D1D1
:1053600002B070BDFCF7BCFE000B00207459002099
:1053700000B50D4B83B01A68019201280BD90B4977
:105380004A6982F004024A61019A1B689A4209D173
:1053900003B05DF804FB054A042108B95183F3E723
:1053A0001183F1E7FCF79CFE000B00200004024093
:1053B00000B50E4B83B01A68019201280BD90C4935
:1053C0004A6982F480424A61019A1B689A420AD172
:1053D00003B05DF804FB064A4FF4804108B95183DD
:1053E000F2E71183F0E7FCF77BFE00BF000B002023
:1053F000000C02400000000000000000000000005F
:10540000F0B50D4F0D4C3B6883B0002501932E463F
:10541000E8B200210135FFF73BFF042D26706670CE
:10542000A67004F10304F3D1019A3B689A4201D1BA
:1054300003B0F0BDFCF754FE000B002074590020AF
:1054400030B5094B094D044607CB83B02B68019357
:10545000206001982B6861609842A26001D103B07E
:1054600030BDFCF73DFE00BF74590020000B00204A
:1054700070B51A4D1A4C1B4E0FCD0FC49EB02A6842
:10548000336822801D93EFF30981682203A8FCF79B
:10549000E7FB154B9D6AAA0714D4EB0708D5124BFE
:1054A00008995B6B114A00910D48802110F040FA79
:1054B0001D9A33689A420FD109481EB0BDE870406A
:1054C00004F0F6BE099A5B6B0092A4F11000084A42
:1054D000802110F02DFAE0E7FCF702FE84A5010818
:1054E00080590020000B002000ED00E060A50108BD
:1054F00040A50108000000000000000000000000BE
:1055000000B51F4B0278196883B00191E2B11D4AC2
:105510004FF4005111834278EAB11A4A4FF4805196
:1055200011838278F2B1174A4FF480411183C27817
:10553000FAB9144A4FF400415183019A1B689A4208
:105540001CD103B05DF804FB0E4A4FF400515183A7
:105550004278002AE1D10B4A4FF48051518382787E
:10556000002AE0D1074A4FF480415183C278002AD3
:10557000DFD0044A4FF400411183DEE7FCF7B0FDB1
:10558000000B00200010024000000000000000009E
:1055900000B51F4B0278196883B00191E2B11D4A32
:1055A0004FF4007111834278EAB11A4A4FF48071C6
:1055B00011838278F2B1174A4FF400611183C278E7
:1055C000FAB9144A4FF480615183019A1B689A42D8
:1055D0001CD103B05DF804FB0E4A4FF400715183F7
:1055E0004278002AE1D10B4A4FF4807151838278CE
:1055F000002AE0D1074A4FF400615183C278002AA3
:10560000DFD0044A4FF480611183DEE7FCF768FDC8
:10561000000B00200010024000000000000000000D
:1056200030B50C4A0C4B116883B04FF40055019112
:105630004FF480544FF400414FF480405D835C830D
:105640005883598301991368994201D103B030BD41
:10565000FCF746FD000B0020001002400000000097
:1056600030B50C4A0C4B116883B04FF400750191B2
:105670004FF480744FF480614FF400605D835C836D
:105680005883598301991368994201D103B030BD01
:10569000FCF726FD000B0020001002400000000077
:1056A00010B50B4C0B48236882B09922002101935E
:1056B00007F05EFF019A23689A4206D1054800214F
:1056C00002B0BDE8104008F03BB8FCF709FD00BF90
:1056D000000B002010A700200000000000000000C8
:1056E00010B50B4C0B48236882B09922002101931E
:1056F00007F03EFF019A23689A4206D1054800212F
:1057000002B0BDE8104008F01BB8FCF7E9FC00BF90
:10571000000B00202CA7002000000000000000006B
:1057200000B5084B83B01A680192019A1B689A422F
:1057300006D10548002103B05DF804EB07F068BF0F
:10574000FCF7CEFC000B002010A70020000000009A
:1057500000B5084B83B01A680192019A1B689A42FF
:1057600006D10548002103B05DF804EB07F050BFF7
:10577000FCF7B6FC000B00202CA700200000000066
:1057800070B51A4C1A4E2378326882B0022B0192FF
:10579000A26811D165781748013505F0070500EBBF
:1057A0008500904763686570013B6360019A3368C8
:1057B0009A4219D102B070BD012B08D0019933680B
:1057C000994211D10C4802B0BDE87040104765788D
:1057D0000848013D05F0070500EB85009047636828
:1057E000657001336360E1E7FCF77AFC185A00202A
:1057F000000B002030A6010820A6010800000000D0
:1058000070B51A4C1A4E2378326882B0012B01927F
:10581000A26811D165781748013505F0070500EB3E
:10582000850090476368657001336360019A33684F
:105830009A4219D102B070BD022B08D00199336889
:10584000994211D10C4802B0BDE87040104765780C
:105850000848013D05F0070500EB850090476368A7
:105860006570013B6360E1E7FCF73AFC005A0020F9
:10587000000B002030A6010820A60108000000004F
:1058800030B51F4D85B02B68039340F24C439942CD
:10589000044626DCA3F69803994211DB4B00002B4B
:1058A00029D10370036998474FF47A71039A2B68E2
:1058B0009A421ED1606905B0BDE8304007F010BEC5
:1058C000104B02225B42227040F2892293420E4921
:1058D00091FBF3F189B207DC0191E36898470199E4
:1058E000E4E7012303702D21019123699847019971
:1058F000DCE7FCF7F5FBE4DD01220270E4E700BF22
:10590000000B002068F7FFFFA086010000000000E8
:1059100000B5084B83B01A680192019A1B689A423D
:1059200006D10146044803B05DF804EBFFF7A8BFB9
:10593000FCF7D6FB000B0020005A002000000000FE
:1059400000B5084B83B01A680192019A1B689A420D
:1059500006D10146044803B05DF804EBFFF790BFA1
:10596000FCF7BEFB000B0020185A002000000000CE
:1059700000B5094B094A1968506883B000EBD07034
:105980000191019A1B689A4203D1401003B05DF85F
:1059900004FBFCF7A5FB00BF000B0020005A002011
:1059A00000B5094B094A1968506883B000EBD07004
:1059B0000191019A1B689A4203D1401003B05DF82F
:1059C00004FBFCF78DFB00BF000B0020185A0020E1
:1059D00000B5084B08491A6883B040000192019A4B
:1059E0001B6848609A4202D103B05DF804FBFCF7E3
:1059F00077FB00BF000B0020005A002000000000D1
:105A000000B5084B08491A6883B040000192019A1A
:105A10001B6848609A4202D103B05DF804FBFCF7B2
:105A20005FFB00BF000B0020185A002000000000A0
:105A300070B51D4E1D4A1E4B30681E491E4C9160AC
:105A400082B00021D46001901C4C1D481D4D9D600A
:105A5000117051705160106154611B481B4A1C4DFC
:105A6000D8601C48197059705960C3E90425FFF7C4
:105A700047FD1848FFF78CFD1749204607F0E0FC6A
:105A8000204607F015FE2846144907F0D9FC019A74
:105A900033689A4205D1284602B0BDE8704007F04D
:105AA00007BEFCF71DFB00BF000B0020185A0020AA
:105AB000005A002001550008A156000810A7002038
:105AC0002157000891550008E15600085157000879
:105AD0002CA7002020A60108E0A50108A0A5010828
